{
	"crowdfund/SmartContract/contracts.sol": {
		"FundRaise": {
			"abi": [
				{
					"inputs": [
						{
							"internalType": "uint256",
							"name": "minimum",
							"type": "uint256"
						},
						{
							"internalType": "address",
							"name": "campaignOwner",
							"type": "address"
						}
					],
					"stateMutability": "nonpayable",
					"type": "constructor"
				},
				{
					"inputs": [
						{
							"internalType": "uint256",
							"name": "index",
							"type": "uint256"
						}
					],
					"name": "approveRequests",
					"outputs": [],
					"stateMutability": "nonpayable",
					"type": "function"
				},
				{
					"inputs": [
						{
							"internalType": "address",
							"name": "",
							"type": "address"
						}
					],
					"name": "approvers",
					"outputs": [
						{
							"internalType": "bool",
							"name": "",
							"type": "bool"
						}
					],
					"stateMutability": "view",
					"type": "function"
				},
				{
					"inputs": [],
					"name": "contribute",
					"outputs": [],
					"stateMutability": "payable",
					"type": "function"
				},
				{
					"inputs": [
						{
							"internalType": "string",
							"name": "desc",
							"type": "string"
						},
						{
							"internalType": "uint256",
							"name": "val",
							"type": "uint256"
						},
						{
							"internalType": "address payable",
							"name": "recip",
							"type": "address"
						}
					],
					"name": "createRequest",
					"outputs": [],
					"stateMutability": "nonpayable",
					"type": "function"
				},
				{
					"inputs": [
						{
							"internalType": "uint256",
							"name": "index",
							"type": "uint256"
						}
					],
					"name": "finalizeRequest",
					"outputs": [],
					"stateMutability": "nonpayable",
					"type": "function"
				},
				{
					"inputs": [],
					"name": "getRequestsCount",
					"outputs": [
						{
							"internalType": "uint256",
							"name": "",
							"type": "uint256"
						}
					],
					"stateMutability": "view",
					"type": "function"
				},
				{
					"inputs": [],
					"name": "getSummary",
					"outputs": [
						{
							"internalType": "uint256",
							"name": "",
							"type": "uint256"
						},
						{
							"internalType": "uint256",
							"name": "",
							"type": "uint256"
						},
						{
							"internalType": "uint256",
							"name": "",
							"type": "uint256"
						},
						{
							"internalType": "uint256",
							"name": "",
							"type": "uint256"
						},
						{
							"internalType": "address",
							"name": "",
							"type": "address"
						}
					],
					"stateMutability": "view",
					"type": "function"
				},
				{
					"inputs": [],
					"name": "minContribution",
					"outputs": [
						{
							"internalType": "uint256",
							"name": "",
							"type": "uint256"
						}
					],
					"stateMutability": "view",
					"type": "function"
				},
				{
					"inputs": [],
					"name": "owner",
					"outputs": [
						{
							"internalType": "address",
							"name": "",
							"type": "address"
						}
					],
					"stateMutability": "view",
					"type": "function"
				},
				{
					"inputs": [
						{
							"internalType": "uint256",
							"name": "",
							"type": "uint256"
						}
					],
					"name": "requests",
					"outputs": [
						{
							"internalType": "string",
							"name": "description",
							"type": "string"
						},
						{
							"internalType": "uint256",
							"name": "value",
							"type": "uint256"
						},
						{
							"internalType": "address payable",
							"name": "recipient",
							"type": "address"
						},
						{
							"internalType": "bool",
							"name": "complete",
							"type": "bool"
						},
						{
							"internalType": "uint256",
							"name": "approvalsCount",
							"type": "uint256"
						}
					],
					"stateMutability": "view",
					"type": "function"
				},
				{
					"inputs": [],
					"name": "votersCount",
					"outputs": [
						{
							"internalType": "uint256",
							"name": "",
							"type": "uint256"
						}
					],
					"stateMutability": "view",
					"type": "function"
				}
			],
			"devdoc": {
				"kind": "dev",
				"methods": {},
				"version": 1
			},
			"evm": {
				"assembly": "    /* \"crowdfund/SmartContract/contracts.sol\":536:3191  contract FundRaise {... */\n  mstore(0x40, 0x80)\n    /* \"crowdfund/SmartContract/contracts.sol\":1204:1325  constructor(uint minimum, address campaignOwner){... */\n  callvalue\n  dup1\n  iszero\n  tag_1\n  jumpi\n  0x00\n  dup1\n  revert\ntag_1:\n  pop\n  mload(0x40)\n  sub(codesize, bytecodeSize)\n  dup1\n  bytecodeSize\n  dup4\n  codecopy\n  dup2\n  dup2\n  add\n  0x40\n  mstore\n  dup2\n  add\n  swap1\n  tag_2\n  swap2\n  swap1\n  tag_3\n  jump\t// in\ntag_2:\n    /* \"crowdfund/SmartContract/contracts.sol\":1270:1283  campaignOwner */\n  dup1\n    /* \"crowdfund/SmartContract/contracts.sol\":1262:1267  owner */\n  0x00\n  dup1\n    /* \"crowdfund/SmartContract/contracts.sol\":1262:1283  owner = campaignOwner */\n  0x0100\n  exp\n  dup2\n  sload\n  dup2\n  0xffffffffffffffffffffffffffffffffffffffff\n  mul\n  not\n  and\n  swap1\n  dup4\n  0xffffffffffffffffffffffffffffffffffffffff\n  and\n  mul\n  or\n  swap1\n  sstore\n  pop\n    /* \"crowdfund/SmartContract/contracts.sol\":1311:1318  minimum */\n  dup2\n    /* \"crowdfund/SmartContract/contracts.sol\":1293:1308  minContribution */\n  0x01\n    /* \"crowdfund/SmartContract/contracts.sol\":1293:1318  minContribution = minimum */\n  dup2\n  swap1\n  sstore\n  pop\n    /* \"crowdfund/SmartContract/contracts.sol\":1204:1325  constructor(uint minimum, address campaignOwner){... */\n  pop\n  pop\n    /* \"crowdfund/SmartContract/contracts.sol\":536:3191  contract FundRaise {... */\n  jump(tag_6)\n    /* \"#utility.yul\":7:150   */\ntag_8:\n    /* \"#utility.yul\":64:69   */\n  0x00\n    /* \"#utility.yul\":95:101   */\n  dup2\n    /* \"#utility.yul\":89:102   */\n  mload\n    /* \"#utility.yul\":80:102   */\n  swap1\n  pop\n    /* \"#utility.yul\":111:144   */\n  tag_10\n    /* \"#utility.yul\":138:143   */\n  dup2\n    /* \"#utility.yul\":111:144   */\n  tag_11\n  jump\t// in\ntag_10:\n    /* \"#utility.yul\":7:150   */\n  swap3\n  swap2\n  pop\n  pop\n  jump\t// out\n    /* \"#utility.yul\":156:299   */\ntag_12:\n    /* \"#utility.yul\":213:218   */\n  0x00\n    /* \"#utility.yul\":244:250   */\n  dup2\n    /* \"#utility.yul\":238:251   */\n  mload\n    /* \"#utility.yul\":229:251   */\n  swap1\n  pop\n    /* \"#utility.yul\":260:293   */\n  tag_14\n    /* \"#utility.yul\":287:292   */\n  dup2\n    /* \"#utility.yul\":260:293   */\n  tag_15\n  jump\t// in\ntag_14:\n    /* \"#utility.yul\":156:299   */\n  swap3\n  swap2\n  pop\n  pop\n  jump\t// out\n    /* \"#utility.yul\":305:812   */\ntag_3:\n    /* \"#utility.yul\":384:390   */\n  0x00\n    /* \"#utility.yul\":392:398   */\n  dup1\n    /* \"#utility.yul\":441:443   */\n  0x40\n    /* \"#utility.yul\":429:438   */\n  dup4\n    /* \"#utility.yul\":420:427   */\n  dup6\n    /* \"#utility.yul\":416:439   */\n  sub\n    /* \"#utility.yul\":412:444   */\n  slt\n    /* \"#utility.yul\":409:528   */\n  iszero\n  tag_17\n  jumpi\n    /* \"#utility.yul\":447:526   */\n  tag_18\n  tag_19\n  jump\t// in\ntag_18:\n    /* \"#utility.yul\":409:528   */\ntag_17:\n    /* \"#utility.yul\":567:568   */\n  0x00\n    /* \"#utility.yul\":592:656   */\n  tag_20\n    /* \"#utility.yul\":648:655   */\n  dup6\n    /* \"#utility.yul\":639:645   */\n  dup3\n    /* \"#utility.yul\":628:637   */\n  dup7\n    /* \"#utility.yul\":624:646   */\n  add\n    /* \"#utility.yul\":592:656   */\n  tag_12\n  jump\t// in\ntag_20:\n    /* \"#utility.yul\":582:656   */\n  swap3\n  pop\n    /* \"#utility.yul\":538:666   */\n  pop\n    /* \"#utility.yul\":705:707   */\n  0x20\n    /* \"#utility.yul\":731:795   */\n  tag_21\n    /* \"#utility.yul\":787:794   */\n  dup6\n    /* \"#utility.yul\":778:784   */\n  dup3\n    /* \"#utility.yul\":767:776   */\n  dup7\n    /* \"#utility.yul\":763:785   */\n  add\n    /* \"#utility.yul\":731:795   */\n  tag_8\n  jump\t// in\ntag_21:\n    /* \"#utility.yul\":721:795   */\n  swap2\n  pop\n    /* \"#utility.yul\":676:805   */\n  pop\n    /* \"#utility.yul\":305:812   */\n  swap3\n  pop\n  swap3\n  swap1\n  pop\n  jump\t// out\n    /* \"#utility.yul\":899:995   */\ntag_24:\n    /* \"#utility.yul\":936:943   */\n  0x00\n    /* \"#utility.yul\":965:989   */\n  tag_26\n    /* \"#utility.yul\":983:988   */\n  dup3\n    /* \"#utility.yul\":965:989   */\n  tag_27\n  jump\t// in\ntag_26:\n    /* \"#utility.yul\":954:989   */\n  swap1\n  pop\n    /* \"#utility.yul\":899:995   */\n  swap2\n  swap1\n  pop\n  jump\t// out\n    /* \"#utility.yul\":1001:1127   */\ntag_27:\n    /* \"#utility.yul\":1038:1045   */\n  0x00\n    /* \"#utility.yul\":1078:1120   */\n  0xffffffffffffffffffffffffffffffffffffffff\n    /* \"#utility.yul\":1071:1076   */\n  dup3\n    /* \"#utility.yul\":1067:1121   */\n  and\n    /* \"#utility.yul\":1056:1121   */\n  swap1\n  pop\n    /* \"#utility.yul\":1001:1127   */\n  swap2\n  swap1\n  pop\n  jump\t// out\n    /* \"#utility.yul\":1133:1210   */\ntag_29:\n    /* \"#utility.yul\":1170:1177   */\n  0x00\n    /* \"#utility.yul\":1199:1204   */\n  dup2\n    /* \"#utility.yul\":1188:1204   */\n  swap1\n  pop\n    /* \"#utility.yul\":1133:1210   */\n  swap2\n  swap1\n  pop\n  jump\t// out\n    /* \"#utility.yul\":1339:1456   */\ntag_19:\n    /* \"#utility.yul\":1448:1449   */\n  0x00\n    /* \"#utility.yul\":1445:1446   */\n  dup1\n    /* \"#utility.yul\":1438:1450   */\n  revert\n    /* \"#utility.yul\":1462:1584   */\ntag_11:\n    /* \"#utility.yul\":1535:1559   */\n  tag_35\n    /* \"#utility.yul\":1553:1558   */\n  dup2\n    /* \"#utility.yul\":1535:1559   */\n  tag_24\n  jump\t// in\ntag_35:\n    /* \"#utility.yul\":1528:1533   */\n  dup2\n    /* \"#utility.yul\":1525:1560   */\n  eq\n    /* \"#utility.yul\":1515:1578   */\n  tag_36\n  jumpi\n    /* \"#utility.yul\":1574:1575   */\n  0x00\n    /* \"#utility.yul\":1571:1572   */\n  dup1\n    /* \"#utility.yul\":1564:1576   */\n  revert\n    /* \"#utility.yul\":1515:1578   */\ntag_36:\n    /* \"#utility.yul\":1462:1584   */\n  pop\n  jump\t// out\n    /* \"#utility.yul\":1590:1712   */\ntag_15:\n    /* \"#utility.yul\":1663:1687   */\n  tag_38\n    /* \"#utility.yul\":1681:1686   */\n  dup2\n    /* \"#utility.yul\":1663:1687   */\n  tag_29\n  jump\t// in\ntag_38:\n    /* \"#utility.yul\":1656:1661   */\n  dup2\n    /* \"#utility.yul\":1653:1688   */\n  eq\n    /* \"#utility.yul\":1643:1706   */\n  tag_39\n  jumpi\n    /* \"#utility.yul\":1702:1703   */\n  0x00\n    /* \"#utility.yul\":1699:1700   */\n  dup1\n    /* \"#utility.yul\":1692:1704   */\n  revert\n    /* \"#utility.yul\":1643:1706   */\ntag_39:\n    /* \"#utility.yul\":1590:1712   */\n  pop\n  jump\t// out\n    /* \"crowdfund/SmartContract/contracts.sol\":536:3191  contract FundRaise {... */\ntag_6:\n  dataSize(sub_0)\n  dup1\n  dataOffset(sub_0)\n  0x00\n  codecopy\n  0x00\n  return\nstop\n\nsub_0: assembly {\n        /* \"crowdfund/SmartContract/contracts.sol\":536:3191  contract FundRaise {... */\n      mstore(0x40, 0x80)\n      jumpi(tag_1, lt(calldatasize, 0x04))\n      shr(0xe0, calldataload(0x00))\n      dup1\n      0x81d12c58\n      gt\n      tag_13\n      jumpi\n      dup1\n      0x81d12c58\n      eq\n      tag_7\n      jumpi\n      dup1\n      0x8a9cfd55\n      eq\n      tag_8\n      jumpi\n      dup1\n      0x8da5cb5b\n      eq\n      tag_9\n      jumpi\n      dup1\n      0x98c07938\n      eq\n      tag_10\n      jumpi\n      dup1\n      0xaaffadf3\n      eq\n      tag_11\n      jumpi\n      dup1\n      0xd7bb99ba\n      eq\n      tag_12\n      jumpi\n      jump(tag_1)\n    tag_13:\n      dup1\n      0x03441006\n      eq\n      tag_2\n      jumpi\n      dup1\n      0x0a144391\n      eq\n      tag_3\n      jumpi\n      dup1\n      0x3410452a\n      eq\n      tag_4\n      jumpi\n      dup1\n      0x4051ddac\n      eq\n      tag_5\n      jumpi\n      dup1\n      0x4e08ac85\n      eq\n      tag_6\n      jumpi\n    tag_1:\n      0x00\n      dup1\n      revert\n        /* \"crowdfund/SmartContract/contracts.sol\":2578:2836  function finalizeRequest (uint index) public isOwner{... */\n    tag_2:\n      callvalue\n      dup1\n      iszero\n      tag_14\n      jumpi\n      0x00\n      dup1\n      revert\n    tag_14:\n      pop\n      tag_15\n      0x04\n      dup1\n      calldatasize\n      sub\n      dup2\n      add\n      swap1\n      tag_16\n      swap2\n      swap1\n      tag_17\n      jump\t// in\n    tag_16:\n      tag_18\n      jump\t// in\n    tag_15:\n      stop\n        /* \"crowdfund/SmartContract/contracts.sol\":865:906  mapping(address => bool) public approvers */\n    tag_3:\n      callvalue\n      dup1\n      iszero\n      tag_19\n      jumpi\n      0x00\n      dup1\n      revert\n    tag_19:\n      pop\n      tag_20\n      0x04\n      dup1\n      calldatasize\n      sub\n      dup2\n      add\n      swap1\n      tag_21\n      swap2\n      swap1\n      tag_22\n      jump\t// in\n    tag_21:\n      tag_23\n      jump\t// in\n    tag_20:\n      mload(0x40)\n      tag_24\n      swap2\n      swap1\n      tag_25\n      jump\t// in\n    tag_24:\n      mload(0x40)\n      dup1\n      swap2\n      sub\n      swap1\n      return\n        /* \"crowdfund/SmartContract/contracts.sol\":3099:3189  function getRequestsCount() public view returns (uint) {... */\n    tag_4:\n      callvalue\n      dup1\n      iszero\n      tag_26\n      jumpi\n      0x00\n      dup1\n      revert\n    tag_26:\n      pop\n      tag_27\n      tag_28\n      jump\t// in\n    tag_27:\n      mload(0x40)\n      tag_29\n      swap2\n      swap1\n      tag_30\n      jump\t// in\n    tag_29:\n      mload(0x40)\n      dup1\n      swap2\n      sub\n      swap1\n      return\n        /* \"crowdfund/SmartContract/contracts.sol\":2842:3089  function getSummary() public view returns (... */\n    tag_5:\n      callvalue\n      dup1\n      iszero\n      tag_31\n      jumpi\n      0x00\n      dup1\n      revert\n    tag_31:\n      pop\n      tag_32\n      tag_33\n      jump\t// in\n    tag_32:\n      mload(0x40)\n      tag_34\n      swap6\n      swap5\n      swap4\n      swap3\n      swap2\n      swap1\n      tag_35\n      jump\t// in\n    tag_34:\n      mload(0x40)\n      dup1\n      swap2\n      sub\n      swap1\n      return\n        /* \"crowdfund/SmartContract/contracts.sol\":2313:2572  function approveRequests(uint index) public {... */\n    tag_6:\n      callvalue\n      dup1\n      iszero\n      tag_36\n      jumpi\n      0x00\n      dup1\n      revert\n    tag_36:\n      pop\n      tag_37\n      0x04\n      dup1\n      calldatasize\n      sub\n      dup2\n      add\n      swap1\n      tag_38\n      swap2\n      swap1\n      tag_17\n      jump\t// in\n    tag_38:\n      tag_39\n      jump\t// in\n    tag_37:\n      stop\n        /* \"crowdfund/SmartContract/contracts.sol\":1001:1042  mapping (uint => Request) public requests */\n    tag_7:\n      callvalue\n      dup1\n      iszero\n      tag_40\n      jumpi\n      0x00\n      dup1\n      revert\n    tag_40:\n      pop\n      tag_41\n      0x04\n      dup1\n      calldatasize\n      sub\n      dup2\n      add\n      swap1\n      tag_42\n      swap2\n      swap1\n      tag_17\n      jump\t// in\n    tag_42:\n      tag_43\n      jump\t// in\n    tag_41:\n      mload(0x40)\n      tag_44\n      swap6\n      swap5\n      swap4\n      swap3\n      swap2\n      swap1\n      tag_45\n      jump\t// in\n    tag_44:\n      mload(0x40)\n      dup1\n      swap2\n      sub\n      swap1\n      return\n        /* \"crowdfund/SmartContract/contracts.sol\":1492:2307  function createRequest(string calldata desc, uint val, address payable recip) public isOwner {... */\n    tag_8:\n      callvalue\n      dup1\n      iszero\n      tag_46\n      jumpi\n      0x00\n      dup1\n      revert\n    tag_46:\n      pop\n      tag_47\n      0x04\n      dup1\n      calldatasize\n      sub\n      dup2\n      add\n      swap1\n      tag_48\n      swap2\n      swap1\n      tag_49\n      jump\t// in\n    tag_48:\n      tag_50\n      jump\t// in\n    tag_47:\n      stop\n        /* \"crowdfund/SmartContract/contracts.sol\":806:826  address public owner */\n    tag_9:\n      callvalue\n      dup1\n      iszero\n      tag_51\n      jumpi\n      0x00\n      dup1\n      revert\n    tag_51:\n      pop\n      tag_52\n      tag_53\n      jump\t// in\n    tag_52:\n      mload(0x40)\n      tag_54\n      swap2\n      swap1\n      tag_55\n      jump\t// in\n    tag_54:\n      mload(0x40)\n      dup1\n      swap2\n      sub\n      swap1\n      return\n        /* \"crowdfund/SmartContract/contracts.sol\":948:971  uint public votersCount */\n    tag_10:\n      callvalue\n      dup1\n      iszero\n      tag_56\n      jumpi\n      0x00\n      dup1\n      revert\n    tag_56:\n      pop\n      tag_57\n      tag_58\n      jump\t// in\n    tag_57:\n      mload(0x40)\n      tag_59\n      swap2\n      swap1\n      tag_30\n      jump\t// in\n    tag_59:\n      mload(0x40)\n      dup1\n      swap2\n      sub\n      swap1\n      return\n        /* \"crowdfund/SmartContract/contracts.sol\":832:859  uint public minContribution */\n    tag_11:\n      callvalue\n      dup1\n      iszero\n      tag_60\n      jumpi\n      0x00\n      dup1\n      revert\n    tag_60:\n      pop\n      tag_61\n      tag_62\n      jump\t// in\n    tag_61:\n      mload(0x40)\n      tag_63\n      swap2\n      swap1\n      tag_30\n      jump\t// in\n    tag_63:\n      mload(0x40)\n      dup1\n      swap2\n      sub\n      swap1\n      return\n        /* \"crowdfund/SmartContract/contracts.sol\":1335:1486  function contribute() public payable {... */\n    tag_12:\n      tag_64\n      tag_65\n      jump\t// in\n    tag_64:\n      stop\n        /* \"crowdfund/SmartContract/contracts.sol\":2578:2836  function finalizeRequest (uint index) public isOwner{... */\n    tag_18:\n        /* \"crowdfund/SmartContract/contracts.sol\":1140:1145  owner */\n      0x00\n      dup1\n      sload\n      swap1\n      0x0100\n      exp\n      swap1\n      div\n      0xffffffffffffffffffffffffffffffffffffffff\n      and\n        /* \"crowdfund/SmartContract/contracts.sol\":1126:1145  msg.sender == owner */\n      0xffffffffffffffffffffffffffffffffffffffff\n      and\n        /* \"crowdfund/SmartContract/contracts.sol\":1126:1136  msg.sender */\n      caller\n        /* \"crowdfund/SmartContract/contracts.sol\":1126:1145  msg.sender == owner */\n      0xffffffffffffffffffffffffffffffffffffffff\n      and\n      eq\n        /* \"crowdfund/SmartContract/contracts.sol\":1118:1180  require(msg.sender == owner, \"Only owner can create campaign\") */\n      tag_67\n      jumpi\n      mload(0x40)\n      0x08c379a000000000000000000000000000000000000000000000000000000000\n      dup2\n      mstore\n      0x04\n      add\n      tag_68\n      swap1\n      tag_69\n      jump\t// in\n    tag_68:\n      mload(0x40)\n      dup1\n      swap2\n      sub\n      swap1\n      revert\n    tag_67:\n        /* \"crowdfund/SmartContract/contracts.sol\":2641:2658  Request storage r */\n      0x00\n        /* \"crowdfund/SmartContract/contracts.sol\":2661:2669  requests */\n      0x05\n        /* \"crowdfund/SmartContract/contracts.sol\":2661:2676  requests[index] */\n      0x00\n        /* \"crowdfund/SmartContract/contracts.sol\":2670:2675  index */\n      dup4\n        /* \"crowdfund/SmartContract/contracts.sol\":2661:2676  requests[index] */\n      dup2\n      mstore\n      0x20\n      add\n      swap1\n      dup2\n      mstore\n      0x20\n      add\n      0x00\n      keccak256\n        /* \"crowdfund/SmartContract/contracts.sol\":2641:2676  Request storage r = requests[index] */\n      swap1\n      pop\n        /* \"crowdfund/SmartContract/contracts.sol\":2728:2729  2 */\n      0x02\n        /* \"crowdfund/SmartContract/contracts.sol\":2714:2725  votersCount */\n      sload(0x03)\n        /* \"crowdfund/SmartContract/contracts.sol\":2714:2729  votersCount / 2 */\n      tag_71\n      swap2\n      swap1\n      tag_72\n      jump\t// in\n    tag_71:\n        /* \"crowdfund/SmartContract/contracts.sol\":2694:2695  r */\n      dup2\n        /* \"crowdfund/SmartContract/contracts.sol\":2694:2710  r.approvalsCount */\n      0x04\n      add\n      sload\n        /* \"crowdfund/SmartContract/contracts.sol\":2694:2731  r.approvalsCount > (votersCount / 2 ) */\n      gt\n        /* \"crowdfund/SmartContract/contracts.sol\":2686:2732  require(r.approvalsCount > (votersCount / 2 )) */\n      tag_73\n      jumpi\n      0x00\n      dup1\n      revert\n    tag_73:\n        /* \"crowdfund/SmartContract/contracts.sol\":2751:2752  r */\n      dup1\n        /* \"crowdfund/SmartContract/contracts.sol\":2751:2761  r.complete */\n      0x02\n      add\n      0x14\n      swap1\n      sload\n      swap1\n      0x0100\n      exp\n      swap1\n      div\n      0xff\n      and\n        /* \"crowdfund/SmartContract/contracts.sol\":2750:2761  !r.complete */\n      iszero\n        /* \"crowdfund/SmartContract/contracts.sol\":2742:2762  require(!r.complete) */\n      tag_74\n      jumpi\n      0x00\n      dup1\n      revert\n    tag_74:\n        /* \"crowdfund/SmartContract/contracts.sol\":2772:2773  r */\n      dup1\n        /* \"crowdfund/SmartContract/contracts.sol\":2772:2783  r.recipient */\n      0x02\n      add\n      0x00\n      swap1\n      sload\n      swap1\n      0x0100\n      exp\n      swap1\n      div\n      0xffffffffffffffffffffffffffffffffffffffff\n      and\n        /* \"crowdfund/SmartContract/contracts.sol\":2772:2792  r.recipient.transfer */\n      0xffffffffffffffffffffffffffffffffffffffff\n      and\n        /* \"crowdfund/SmartContract/contracts.sol\":2772:2801  r.recipient.transfer(r.value) */\n      0x08fc\n        /* \"crowdfund/SmartContract/contracts.sol\":2793:2794  r */\n      dup3\n        /* \"crowdfund/SmartContract/contracts.sol\":2793:2800  r.value */\n      0x01\n      add\n      sload\n        /* \"crowdfund/SmartContract/contracts.sol\":2772:2801  r.recipient.transfer(r.value) */\n      swap1\n      dup2\n      iszero\n      mul\n      swap1\n      mload(0x40)\n      0x00\n      mload(0x40)\n      dup1\n      dup4\n      sub\n      dup2\n      dup6\n      dup9\n      dup9\n      call\n      swap4\n      pop\n      pop\n      pop\n      pop\n      iszero\n      dup1\n      iszero\n      tag_76\n      jumpi\n      returndatasize\n      0x00\n      dup1\n      returndatacopy\n      revert(0x00, returndatasize)\n    tag_76:\n      pop\n        /* \"crowdfund/SmartContract/contracts.sol\":2824:2828  true */\n      0x01\n        /* \"crowdfund/SmartContract/contracts.sol\":2811:2812  r */\n      dup2\n        /* \"crowdfund/SmartContract/contracts.sol\":2811:2821  r.complete */\n      0x02\n      add\n      0x14\n        /* \"crowdfund/SmartContract/contracts.sol\":2811:2828  r.complete = true */\n      0x0100\n      exp\n      dup2\n      sload\n      dup2\n      0xff\n      mul\n      not\n      and\n      swap1\n      dup4\n      iszero\n      iszero\n      mul\n      or\n      swap1\n      sstore\n      pop\n        /* \"crowdfund/SmartContract/contracts.sol\":2630:2836  {... */\n      pop\n        /* \"crowdfund/SmartContract/contracts.sol\":2578:2836  function finalizeRequest (uint index) public isOwner{... */\n      pop\n      jump\t// out\n        /* \"crowdfund/SmartContract/contracts.sol\":865:906  mapping(address => bool) public approvers */\n    tag_23:\n      mstore(0x20, 0x02)\n      dup1\n      0x00\n      mstore\n      keccak256(0x00, 0x40)\n      0x00\n      swap2\n      pop\n      sload\n      swap1\n      0x0100\n      exp\n      swap1\n      div\n      0xff\n      and\n      dup2\n      jump\t// out\n        /* \"crowdfund/SmartContract/contracts.sol\":3099:3189  function getRequestsCount() public view returns (uint) {... */\n    tag_28:\n        /* \"crowdfund/SmartContract/contracts.sol\":3148:3152  uint */\n      0x00\n        /* \"crowdfund/SmartContract/contracts.sol\":3171:3182  numRequests */\n      sload(0x04)\n        /* \"crowdfund/SmartContract/contracts.sol\":3164:3182  return numRequests */\n      swap1\n      pop\n        /* \"crowdfund/SmartContract/contracts.sol\":3099:3189  function getRequestsCount() public view returns (uint) {... */\n      swap1\n      jump\t// out\n        /* \"crowdfund/SmartContract/contracts.sol\":2842:3089  function getSummary() public view returns (... */\n    tag_33:\n        /* \"crowdfund/SmartContract/contracts.sol\":2892:2896  uint */\n      0x00\n        /* \"crowdfund/SmartContract/contracts.sol\":2898:2902  uint */\n      dup1\n        /* \"crowdfund/SmartContract/contracts.sol\":2904:2908  uint */\n      0x00\n        /* \"crowdfund/SmartContract/contracts.sol\":2910:2914  uint */\n      dup1\n        /* \"crowdfund/SmartContract/contracts.sol\":2916:2923  address */\n      0x00\n        /* \"crowdfund/SmartContract/contracts.sol\":2961:2976  minContribution */\n      sload(0x01)\n        /* \"crowdfund/SmartContract/contracts.sol\":2988:3009  address(this).balance */\n      selfbalance\n        /* \"crowdfund/SmartContract/contracts.sol\":3021:3032  numRequests */\n      sload(0x04)\n        /* \"crowdfund/SmartContract/contracts.sol\":3044:3055  votersCount */\n      sload(0x03)\n        /* \"crowdfund/SmartContract/contracts.sol\":3067:3072  owner */\n      0x00\n      dup1\n      sload\n      swap1\n      0x0100\n      exp\n      swap1\n      div\n      0xffffffffffffffffffffffffffffffffffffffff\n      and\n        /* \"crowdfund/SmartContract/contracts.sol\":2942:3082  return (... */\n      swap5\n      pop\n      swap5\n      pop\n      swap5\n      pop\n      swap5\n      pop\n      swap5\n      pop\n        /* \"crowdfund/SmartContract/contracts.sol\":2842:3089  function getSummary() public view returns (... */\n      swap1\n      swap2\n      swap3\n      swap4\n      swap5\n      jump\t// out\n        /* \"crowdfund/SmartContract/contracts.sol\":2313:2572  function approveRequests(uint index) public {... */\n    tag_39:\n        /* \"crowdfund/SmartContract/contracts.sol\":2368:2387  Request storage req */\n      0x00\n        /* \"crowdfund/SmartContract/contracts.sol\":2390:2398  requests */\n      0x05\n        /* \"crowdfund/SmartContract/contracts.sol\":2390:2405  requests[index] */\n      0x00\n        /* \"crowdfund/SmartContract/contracts.sol\":2399:2404  index */\n      dup4\n        /* \"crowdfund/SmartContract/contracts.sol\":2390:2405  requests[index] */\n      dup2\n      mstore\n      0x20\n      add\n      swap1\n      dup2\n      mstore\n      0x20\n      add\n      0x00\n      keccak256\n        /* \"crowdfund/SmartContract/contracts.sol\":2368:2405  Request storage req = requests[index] */\n      swap1\n      pop\n        /* \"crowdfund/SmartContract/contracts.sol\":2425:2434  approvers */\n      0x02\n        /* \"crowdfund/SmartContract/contracts.sol\":2425:2446  approvers[msg.sender] */\n      0x00\n        /* \"crowdfund/SmartContract/contracts.sol\":2435:2445  msg.sender */\n      caller\n        /* \"crowdfund/SmartContract/contracts.sol\":2425:2446  approvers[msg.sender] */\n      0xffffffffffffffffffffffffffffffffffffffff\n      and\n      0xffffffffffffffffffffffffffffffffffffffff\n      and\n      dup2\n      mstore\n      0x20\n      add\n      swap1\n      dup2\n      mstore\n      0x20\n      add\n      0x00\n      keccak256\n      0x00\n      swap1\n      sload\n      swap1\n      0x0100\n      exp\n      swap1\n      div\n      0xff\n      and\n        /* \"crowdfund/SmartContract/contracts.sol\":2417:2447  require(approvers[msg.sender]) */\n      tag_80\n      jumpi\n      0x00\n      dup1\n      revert\n    tag_80:\n        /* \"crowdfund/SmartContract/contracts.sol\":2466:2469  req */\n      dup1\n        /* \"crowdfund/SmartContract/contracts.sol\":2466:2479  req.approvals */\n      0x03\n      add\n        /* \"crowdfund/SmartContract/contracts.sol\":2466:2491  req.approvals[msg.sender] */\n      0x00\n        /* \"crowdfund/SmartContract/contracts.sol\":2480:2490  msg.sender */\n      caller\n        /* \"crowdfund/SmartContract/contracts.sol\":2466:2491  req.approvals[msg.sender] */\n      0xffffffffffffffffffffffffffffffffffffffff\n      and\n      0xffffffffffffffffffffffffffffffffffffffff\n      and\n      dup2\n      mstore\n      0x20\n      add\n      swap1\n      dup2\n      mstore\n      0x20\n      add\n      0x00\n      keccak256\n      0x00\n      swap1\n      sload\n      swap1\n      0x0100\n      exp\n      swap1\n      div\n      0xff\n      and\n        /* \"crowdfund/SmartContract/contracts.sol\":2465:2491  !req.approvals[msg.sender] */\n      iszero\n        /* \"crowdfund/SmartContract/contracts.sol\":2457:2492  require(!req.approvals[msg.sender]) */\n      tag_81\n      jumpi\n      0x00\n      dup1\n      revert\n    tag_81:\n        /* \"crowdfund/SmartContract/contracts.sol\":2531:2535  true */\n      0x01\n        /* \"crowdfund/SmartContract/contracts.sol\":2503:2506  req */\n      dup2\n        /* \"crowdfund/SmartContract/contracts.sol\":2503:2516  req.approvals */\n      0x03\n      add\n        /* \"crowdfund/SmartContract/contracts.sol\":2503:2528  req.approvals[msg.sender] */\n      0x00\n        /* \"crowdfund/SmartContract/contracts.sol\":2517:2527  msg.sender */\n      caller\n        /* \"crowdfund/SmartContract/contracts.sol\":2503:2528  req.approvals[msg.sender] */\n      0xffffffffffffffffffffffffffffffffffffffff\n      and\n      0xffffffffffffffffffffffffffffffffffffffff\n      and\n      dup2\n      mstore\n      0x20\n      add\n      swap1\n      dup2\n      mstore\n      0x20\n      add\n      0x00\n      keccak256\n      0x00\n        /* \"crowdfund/SmartContract/contracts.sol\":2503:2535  req.approvals[msg.sender] = true */\n      0x0100\n      exp\n      dup2\n      sload\n      dup2\n      0xff\n      mul\n      not\n      and\n      swap1\n      dup4\n      iszero\n      iszero\n      mul\n      or\n      swap1\n      sstore\n      pop\n        /* \"crowdfund/SmartContract/contracts.sol\":2545:2548  req */\n      dup1\n        /* \"crowdfund/SmartContract/contracts.sol\":2545:2563  req.approvalsCount */\n      0x04\n      add\n      0x00\n        /* \"crowdfund/SmartContract/contracts.sol\":2545:2565  req.approvalsCount++ */\n      dup2\n      sload\n      dup1\n      swap3\n      swap2\n      swap1\n      tag_82\n      swap1\n      tag_83\n      jump\t// in\n    tag_82:\n      swap2\n      swap1\n      pop\n      sstore\n      pop\n        /* \"crowdfund/SmartContract/contracts.sol\":2357:2572  {... */\n      pop\n        /* \"crowdfund/SmartContract/contracts.sol\":2313:2572  function approveRequests(uint index) public {... */\n      pop\n      jump\t// out\n        /* \"crowdfund/SmartContract/contracts.sol\":1001:1042  mapping (uint => Request) public requests */\n    tag_43:\n      mstore(0x20, 0x05)\n      dup1\n      0x00\n      mstore\n      keccak256(0x00, 0x40)\n      0x00\n      swap2\n      pop\n      swap1\n      pop\n      dup1\n      0x00\n      add\n      dup1\n      sload\n      tag_84\n      swap1\n      tag_85\n      jump\t// in\n    tag_84:\n      dup1\n      0x1f\n      add\n      0x20\n      dup1\n      swap2\n      div\n      mul\n      0x20\n      add\n      mload(0x40)\n      swap1\n      dup2\n      add\n      0x40\n      mstore\n      dup1\n      swap3\n      swap2\n      swap1\n      dup2\n      dup2\n      mstore\n      0x20\n      add\n      dup3\n      dup1\n      sload\n      tag_86\n      swap1\n      tag_85\n      jump\t// in\n    tag_86:\n      dup1\n      iszero\n      tag_87\n      jumpi\n      dup1\n      0x1f\n      lt\n      tag_88\n      jumpi\n      0x0100\n      dup1\n      dup4\n      sload\n      div\n      mul\n      dup4\n      mstore\n      swap2\n      0x20\n      add\n      swap2\n      jump(tag_87)\n    tag_88:\n      dup3\n      add\n      swap2\n      swap1\n      0x00\n      mstore\n      keccak256(0x00, 0x20)\n      swap1\n    tag_89:\n      dup2\n      sload\n      dup2\n      mstore\n      swap1\n      0x01\n      add\n      swap1\n      0x20\n      add\n      dup1\n      dup4\n      gt\n      tag_89\n      jumpi\n      dup3\n      swap1\n      sub\n      0x1f\n      and\n      dup3\n      add\n      swap2\n    tag_87:\n      pop\n      pop\n      pop\n      pop\n      pop\n      swap1\n      dup1\n      0x01\n      add\n      sload\n      swap1\n      dup1\n      0x02\n      add\n      0x00\n      swap1\n      sload\n      swap1\n      0x0100\n      exp\n      swap1\n      div\n      0xffffffffffffffffffffffffffffffffffffffff\n      and\n      swap1\n      dup1\n      0x02\n      add\n      0x14\n      swap1\n      sload\n      swap1\n      0x0100\n      exp\n      swap1\n      div\n      0xff\n      and\n      swap1\n      dup1\n      0x04\n      add\n      sload\n      swap1\n      pop\n      dup6\n      jump\t// out\n        /* \"crowdfund/SmartContract/contracts.sol\":1492:2307  function createRequest(string calldata desc, uint val, address payable recip) public isOwner {... */\n    tag_50:\n        /* \"crowdfund/SmartContract/contracts.sol\":1140:1145  owner */\n      0x00\n      dup1\n      sload\n      swap1\n      0x0100\n      exp\n      swap1\n      div\n      0xffffffffffffffffffffffffffffffffffffffff\n      and\n        /* \"crowdfund/SmartContract/contracts.sol\":1126:1145  msg.sender == owner */\n      0xffffffffffffffffffffffffffffffffffffffff\n      and\n        /* \"crowdfund/SmartContract/contracts.sol\":1126:1136  msg.sender */\n      caller\n        /* \"crowdfund/SmartContract/contracts.sol\":1126:1145  msg.sender == owner */\n      0xffffffffffffffffffffffffffffffffffffffff\n      and\n      eq\n        /* \"crowdfund/SmartContract/contracts.sol\":1118:1180  require(msg.sender == owner, \"Only owner can create campaign\") */\n      tag_91\n      jumpi\n      mload(0x40)\n      0x08c379a000000000000000000000000000000000000000000000000000000000\n      dup2\n      mstore\n      0x04\n      add\n      tag_92\n      swap1\n      tag_69\n      jump\t// in\n    tag_92:\n      mload(0x40)\n      dup1\n      swap2\n      sub\n      swap1\n      revert\n    tag_91:\n        /* \"crowdfund/SmartContract/contracts.sol\":1979:1996  Request storage r */\n      0x00\n        /* \"crowdfund/SmartContract/contracts.sol\":1999:2007  requests */\n      0x05\n        /* \"crowdfund/SmartContract/contracts.sol\":1999:2022  requests[numRequests++] */\n      0x00\n        /* \"crowdfund/SmartContract/contracts.sol\":2008:2019  numRequests */\n      0x04\n      0x00\n        /* \"crowdfund/SmartContract/contracts.sol\":2008:2021  numRequests++ */\n      dup2\n      sload\n      dup1\n      swap3\n      swap2\n      swap1\n      tag_94\n      swap1\n      tag_83\n      jump\t// in\n    tag_94:\n      swap2\n      swap1\n      pop\n      sstore\n        /* \"crowdfund/SmartContract/contracts.sol\":1999:2022  requests[numRequests++] */\n      dup2\n      mstore\n      0x20\n      add\n      swap1\n      dup2\n      mstore\n      0x20\n      add\n      0x00\n      keccak256\n        /* \"crowdfund/SmartContract/contracts.sol\":1979:2022  Request storage r = requests[numRequests++] */\n      swap1\n      pop\n        /* \"crowdfund/SmartContract/contracts.sol\":2048:2052  desc */\n      dup5\n      dup5\n        /* \"crowdfund/SmartContract/contracts.sol\":2032:2033  r */\n      dup3\n        /* \"crowdfund/SmartContract/contracts.sol\":2032:2045  r.description */\n      0x00\n      add\n        /* \"crowdfund/SmartContract/contracts.sol\":2032:2052  r.description = desc */\n      swap2\n      swap1\n      tag_95\n      swap3\n      swap2\n      swap1\n      tag_96\n      jump\t// in\n    tag_95:\n      pop\n        /* \"crowdfund/SmartContract/contracts.sol\":2072:2075  val */\n      dup3\n        /* \"crowdfund/SmartContract/contracts.sol\":2062:2063  r */\n      dup2\n        /* \"crowdfund/SmartContract/contracts.sol\":2062:2069  r.value */\n      0x01\n      add\n        /* \"crowdfund/SmartContract/contracts.sol\":2062:2075  r.value = val */\n      dup2\n      swap1\n      sstore\n      pop\n        /* \"crowdfund/SmartContract/contracts.sol\":2099:2104  recip */\n      dup2\n        /* \"crowdfund/SmartContract/contracts.sol\":2085:2086  r */\n      dup2\n        /* \"crowdfund/SmartContract/contracts.sol\":2085:2096  r.recipient */\n      0x02\n      add\n      0x00\n        /* \"crowdfund/SmartContract/contracts.sol\":2085:2104  r.recipient = recip */\n      0x0100\n      exp\n      dup2\n      sload\n      dup2\n      0xffffffffffffffffffffffffffffffffffffffff\n      mul\n      not\n      and\n      swap1\n      dup4\n      0xffffffffffffffffffffffffffffffffffffffff\n      and\n      mul\n      or\n      swap1\n      sstore\n      pop\n        /* \"crowdfund/SmartContract/contracts.sol\":2127:2132  false */\n      0x00\n        /* \"crowdfund/SmartContract/contracts.sol\":2114:2115  r */\n      dup2\n        /* \"crowdfund/SmartContract/contracts.sol\":2114:2124  r.complete */\n      0x02\n      add\n      0x14\n        /* \"crowdfund/SmartContract/contracts.sol\":2114:2132  r.complete = false */\n      0x0100\n      exp\n      dup2\n      sload\n      dup2\n      0xff\n      mul\n      not\n      and\n      swap1\n      dup4\n      iszero\n      iszero\n      mul\n      or\n      swap1\n      sstore\n      pop\n        /* \"crowdfund/SmartContract/contracts.sol\":2161:2162  0 */\n      0x00\n        /* \"crowdfund/SmartContract/contracts.sol\":2142:2143  r */\n      dup2\n        /* \"crowdfund/SmartContract/contracts.sol\":2142:2158  r.approvalsCount */\n      0x04\n      add\n        /* \"crowdfund/SmartContract/contracts.sol\":2142:2162  r.approvalsCount = 0 */\n      dup2\n      swap1\n      sstore\n      pop\n        /* \"crowdfund/SmartContract/contracts.sol\":1585:2307  {... */\n      pop\n        /* \"crowdfund/SmartContract/contracts.sol\":1492:2307  function createRequest(string calldata desc, uint val, address payable recip) public isOwner {... */\n      pop\n      pop\n      pop\n      pop\n      jump\t// out\n        /* \"crowdfund/SmartContract/contracts.sol\":806:826  address public owner */\n    tag_53:\n      0x00\n      dup1\n      sload\n      swap1\n      0x0100\n      exp\n      swap1\n      div\n      0xffffffffffffffffffffffffffffffffffffffff\n      and\n      dup2\n      jump\t// out\n        /* \"crowdfund/SmartContract/contracts.sol\":948:971  uint public votersCount */\n    tag_58:\n      sload(0x03)\n      dup2\n      jump\t// out\n        /* \"crowdfund/SmartContract/contracts.sol\":832:859  uint public minContribution */\n    tag_62:\n      sload(0x01)\n      dup2\n      jump\t// out\n        /* \"crowdfund/SmartContract/contracts.sol\":1335:1486  function contribute() public payable {... */\n    tag_65:\n        /* \"crowdfund/SmartContract/contracts.sol\":1402:1417  minContribution */\n      sload(0x01)\n        /* \"crowdfund/SmartContract/contracts.sol\":1390:1399  msg.value */\n      callvalue\n        /* \"crowdfund/SmartContract/contracts.sol\":1390:1417  msg.value > minContribution */\n      gt\n        /* \"crowdfund/SmartContract/contracts.sol\":1382:1418  require(msg.value > minContribution) */\n      tag_98\n      jumpi\n      0x00\n      dup1\n      revert\n    tag_98:\n        /* \"crowdfund/SmartContract/contracts.sol\":1452:1456  true */\n      0x01\n        /* \"crowdfund/SmartContract/contracts.sol\":1428:1437  approvers */\n      0x02\n        /* \"crowdfund/SmartContract/contracts.sol\":1428:1449  approvers[msg.sender] */\n      0x00\n        /* \"crowdfund/SmartContract/contracts.sol\":1438:1448  msg.sender */\n      caller\n        /* \"crowdfund/SmartContract/contracts.sol\":1428:1449  approvers[msg.sender] */\n      0xffffffffffffffffffffffffffffffffffffffff\n      and\n      0xffffffffffffffffffffffffffffffffffffffff\n      and\n      dup2\n      mstore\n      0x20\n      add\n      swap1\n      dup2\n      mstore\n      0x20\n      add\n      0x00\n      keccak256\n      0x00\n        /* \"crowdfund/SmartContract/contracts.sol\":1428:1456  approvers[msg.sender] = true */\n      0x0100\n      exp\n      dup2\n      sload\n      dup2\n      0xff\n      mul\n      not\n      and\n      swap1\n      dup4\n      iszero\n      iszero\n      mul\n      or\n      swap1\n      sstore\n      pop\n        /* \"crowdfund/SmartContract/contracts.sol\":1466:1477  votersCount */\n      0x03\n      0x00\n        /* \"crowdfund/SmartContract/contracts.sol\":1466:1479  votersCount++ */\n      dup2\n      sload\n      dup1\n      swap3\n      swap2\n      swap1\n      tag_99\n      swap1\n      tag_83\n      jump\t// in\n    tag_99:\n      swap2\n      swap1\n      pop\n      sstore\n      pop\n        /* \"crowdfund/SmartContract/contracts.sol\":1335:1486  function contribute() public payable {... */\n      jump\t// out\n    tag_96:\n      dup3\n      dup1\n      sload\n      tag_100\n      swap1\n      tag_85\n      jump\t// in\n    tag_100:\n      swap1\n      0x00\n      mstore\n      keccak256(0x00, 0x20)\n      swap1\n      0x1f\n      add\n      0x20\n      swap1\n      div\n      dup2\n      add\n      swap3\n      dup3\n      tag_102\n      jumpi\n      0x00\n      dup6\n      sstore\n      jump(tag_101)\n    tag_102:\n      dup3\n      0x1f\n      lt\n      tag_103\n      jumpi\n      dup1\n      calldataload\n      not(0xff)\n      and\n      dup4\n      dup1\n      add\n      or\n      dup6\n      sstore\n      jump(tag_101)\n    tag_103:\n      dup3\n      dup1\n      add\n      0x01\n      add\n      dup6\n      sstore\n      dup3\n      iszero\n      tag_101\n      jumpi\n      swap2\n      dup3\n      add\n    tag_104:\n      dup3\n      dup2\n      gt\n      iszero\n      tag_105\n      jumpi\n      dup3\n      calldataload\n      dup3\n      sstore\n      swap2\n      0x20\n      add\n      swap2\n      swap1\n      0x01\n      add\n      swap1\n      jump(tag_104)\n    tag_105:\n    tag_101:\n      pop\n      swap1\n      pop\n      tag_106\n      swap2\n      swap1\n      tag_107\n      jump\t// in\n    tag_106:\n      pop\n      swap1\n      jump\t// out\n    tag_107:\n    tag_108:\n      dup1\n      dup3\n      gt\n      iszero\n      tag_109\n      jumpi\n      0x00\n      dup2\n      0x00\n      swap1\n      sstore\n      pop\n      0x01\n      add\n      jump(tag_108)\n    tag_109:\n      pop\n      swap1\n      jump\t// out\n        /* \"#utility.yul\":7:146   */\n    tag_111:\n        /* \"#utility.yul\":53:58   */\n      0x00\n        /* \"#utility.yul\":91:97   */\n      dup2\n        /* \"#utility.yul\":78:98   */\n      calldataload\n        /* \"#utility.yul\":69:98   */\n      swap1\n      pop\n        /* \"#utility.yul\":107:140   */\n      tag_113\n        /* \"#utility.yul\":134:139   */\n      dup2\n        /* \"#utility.yul\":107:140   */\n      tag_114\n      jump\t// in\n    tag_113:\n        /* \"#utility.yul\":7:146   */\n      swap3\n      swap2\n      pop\n      pop\n      jump\t// out\n        /* \"#utility.yul\":152:307   */\n    tag_115:\n        /* \"#utility.yul\":206:211   */\n      0x00\n        /* \"#utility.yul\":244:250   */\n      dup2\n        /* \"#utility.yul\":231:251   */\n      calldataload\n        /* \"#utility.yul\":222:251   */\n      swap1\n      pop\n        /* \"#utility.yul\":260:301   */\n      tag_117\n        /* \"#utility.yul\":295:300   */\n      dup2\n        /* \"#utility.yul\":260:301   */\n      tag_118\n      jump\t// in\n    tag_117:\n        /* \"#utility.yul\":152:307   */\n      swap3\n      swap2\n      pop\n      pop\n      jump\t// out\n        /* \"#utility.yul\":327:880   */\n    tag_119:\n        /* \"#utility.yul\":385:393   */\n      0x00\n        /* \"#utility.yul\":395:401   */\n      dup1\n        /* \"#utility.yul\":445:448   */\n      dup4\n        /* \"#utility.yul\":438:442   */\n      0x1f\n        /* \"#utility.yul\":430:436   */\n      dup5\n        /* \"#utility.yul\":426:443   */\n      add\n        /* \"#utility.yul\":422:449   */\n      slt\n        /* \"#utility.yul\":412:534   */\n      tag_121\n      jumpi\n        /* \"#utility.yul\":453:532   */\n      tag_122\n      tag_123\n      jump\t// in\n    tag_122:\n        /* \"#utility.yul\":412:534   */\n    tag_121:\n        /* \"#utility.yul\":566:572   */\n      dup3\n        /* \"#utility.yul\":553:573   */\n      calldataload\n        /* \"#utility.yul\":543:573   */\n      swap1\n      pop\n        /* \"#utility.yul\":596:614   */\n      0xffffffffffffffff\n        /* \"#utility.yul\":588:594   */\n      dup2\n        /* \"#utility.yul\":585:615   */\n      gt\n        /* \"#utility.yul\":582:699   */\n      iszero\n      tag_124\n      jumpi\n        /* \"#utility.yul\":618:697   */\n      tag_125\n      tag_126\n      jump\t// in\n    tag_125:\n        /* \"#utility.yul\":582:699   */\n    tag_124:\n        /* \"#utility.yul\":732:736   */\n      0x20\n        /* \"#utility.yul\":724:730   */\n      dup4\n        /* \"#utility.yul\":720:737   */\n      add\n        /* \"#utility.yul\":708:737   */\n      swap2\n      pop\n        /* \"#utility.yul\":786:789   */\n      dup4\n        /* \"#utility.yul\":778:782   */\n      0x01\n        /* \"#utility.yul\":770:776   */\n      dup3\n        /* \"#utility.yul\":766:783   */\n      mul\n        /* \"#utility.yul\":756:764   */\n      dup4\n        /* \"#utility.yul\":752:784   */\n      add\n        /* \"#utility.yul\":749:790   */\n      gt\n        /* \"#utility.yul\":746:874   */\n      iszero\n      tag_127\n      jumpi\n        /* \"#utility.yul\":793:872   */\n      tag_128\n      tag_129\n      jump\t// in\n    tag_128:\n        /* \"#utility.yul\":746:874   */\n    tag_127:\n        /* \"#utility.yul\":327:880   */\n      swap3\n      pop\n      swap3\n      swap1\n      pop\n      jump\t// out\n        /* \"#utility.yul\":886:1025   */\n    tag_130:\n        /* \"#utility.yul\":932:937   */\n      0x00\n        /* \"#utility.yul\":970:976   */\n      dup2\n        /* \"#utility.yul\":957:977   */\n      calldataload\n        /* \"#utility.yul\":948:977   */\n      swap1\n      pop\n        /* \"#utility.yul\":986:1019   */\n      tag_132\n        /* \"#utility.yul\":1013:1018   */\n      dup2\n        /* \"#utility.yul\":986:1019   */\n      tag_133\n      jump\t// in\n    tag_132:\n        /* \"#utility.yul\":886:1025   */\n      swap3\n      swap2\n      pop\n      pop\n      jump\t// out\n        /* \"#utility.yul\":1031:1360   */\n    tag_22:\n        /* \"#utility.yul\":1090:1096   */\n      0x00\n        /* \"#utility.yul\":1139:1141   */\n      0x20\n        /* \"#utility.yul\":1127:1136   */\n      dup3\n        /* \"#utility.yul\":1118:1125   */\n      dup5\n        /* \"#utility.yul\":1114:1137   */\n      sub\n        /* \"#utility.yul\":1110:1142   */\n      slt\n        /* \"#utility.yul\":1107:1226   */\n      iszero\n      tag_135\n      jumpi\n        /* \"#utility.yul\":1145:1224   */\n      tag_136\n      tag_137\n      jump\t// in\n    tag_136:\n        /* \"#utility.yul\":1107:1226   */\n    tag_135:\n        /* \"#utility.yul\":1265:1266   */\n      0x00\n        /* \"#utility.yul\":1290:1343   */\n      tag_138\n        /* \"#utility.yul\":1335:1342   */\n      dup5\n        /* \"#utility.yul\":1326:1332   */\n      dup3\n        /* \"#utility.yul\":1315:1324   */\n      dup6\n        /* \"#utility.yul\":1311:1333   */\n      add\n        /* \"#utility.yul\":1290:1343   */\n      tag_111\n      jump\t// in\n    tag_138:\n        /* \"#utility.yul\":1280:1343   */\n      swap2\n      pop\n        /* \"#utility.yul\":1236:1353   */\n      pop\n        /* \"#utility.yul\":1031:1360   */\n      swap3\n      swap2\n      pop\n      pop\n      jump\t// out\n        /* \"#utility.yul\":1366:2201   */\n    tag_49:\n        /* \"#utility.yul\":1463:1469   */\n      0x00\n        /* \"#utility.yul\":1471:1477   */\n      dup1\n        /* \"#utility.yul\":1479:1485   */\n      0x00\n        /* \"#utility.yul\":1487:1493   */\n      dup1\n        /* \"#utility.yul\":1536:1538   */\n      0x60\n        /* \"#utility.yul\":1524:1533   */\n      dup6\n        /* \"#utility.yul\":1515:1522   */\n      dup8\n        /* \"#utility.yul\":1511:1534   */\n      sub\n        /* \"#utility.yul\":1507:1539   */\n      slt\n        /* \"#utility.yul\":1504:1623   */\n      iszero\n      tag_140\n      jumpi\n        /* \"#utility.yul\":1542:1621   */\n      tag_141\n      tag_137\n      jump\t// in\n    tag_141:\n        /* \"#utility.yul\":1504:1623   */\n    tag_140:\n        /* \"#utility.yul\":1690:1691   */\n      0x00\n        /* \"#utility.yul\":1679:1688   */\n      dup6\n        /* \"#utility.yul\":1675:1692   */\n      add\n        /* \"#utility.yul\":1662:1693   */\n      calldataload\n        /* \"#utility.yul\":1720:1738   */\n      0xffffffffffffffff\n        /* \"#utility.yul\":1712:1718   */\n      dup2\n        /* \"#utility.yul\":1709:1739   */\n      gt\n        /* \"#utility.yul\":1706:1823   */\n      iszero\n      tag_142\n      jumpi\n        /* \"#utility.yul\":1742:1821   */\n      tag_143\n      tag_144\n      jump\t// in\n    tag_143:\n        /* \"#utility.yul\":1706:1823   */\n    tag_142:\n        /* \"#utility.yul\":1855:1920   */\n      tag_145\n        /* \"#utility.yul\":1912:1919   */\n      dup8\n        /* \"#utility.yul\":1903:1909   */\n      dup3\n        /* \"#utility.yul\":1892:1901   */\n      dup9\n        /* \"#utility.yul\":1888:1910   */\n      add\n        /* \"#utility.yul\":1855:1920   */\n      tag_119\n      jump\t// in\n    tag_145:\n        /* \"#utility.yul\":1837:1920   */\n      swap5\n      pop\n      swap5\n      pop\n        /* \"#utility.yul\":1633:1930   */\n      pop\n        /* \"#utility.yul\":1969:1971   */\n      0x20\n        /* \"#utility.yul\":1995:2048   */\n      tag_146\n        /* \"#utility.yul\":2040:2047   */\n      dup8\n        /* \"#utility.yul\":2031:2037   */\n      dup3\n        /* \"#utility.yul\":2020:2029   */\n      dup9\n        /* \"#utility.yul\":2016:2038   */\n      add\n        /* \"#utility.yul\":1995:2048   */\n      tag_130\n      jump\t// in\n    tag_146:\n        /* \"#utility.yul\":1985:2048   */\n      swap3\n      pop\n        /* \"#utility.yul\":1940:2058   */\n      pop\n        /* \"#utility.yul\":2097:2099   */\n      0x40\n        /* \"#utility.yul\":2123:2184   */\n      tag_147\n        /* \"#utility.yul\":2176:2183   */\n      dup8\n        /* \"#utility.yul\":2167:2173   */\n      dup3\n        /* \"#utility.yul\":2156:2165   */\n      dup9\n        /* \"#utility.yul\":2152:2174   */\n      add\n        /* \"#utility.yul\":2123:2184   */\n      tag_115\n      jump\t// in\n    tag_147:\n        /* \"#utility.yul\":2113:2184   */\n      swap2\n      pop\n        /* \"#utility.yul\":2068:2194   */\n      pop\n        /* \"#utility.yul\":1366:2201   */\n      swap3\n      swap6\n      swap2\n      swap5\n      pop\n      swap3\n      pop\n      jump\t// out\n        /* \"#utility.yul\":2207:2536   */\n    tag_17:\n        /* \"#utility.yul\":2266:2272   */\n      0x00\n        /* \"#utility.yul\":2315:2317   */\n      0x20\n        /* \"#utility.yul\":2303:2312   */\n      dup3\n        /* \"#utility.yul\":2294:2301   */\n      dup5\n        /* \"#utility.yul\":2290:2313   */\n      sub\n        /* \"#utility.yul\":2286:2318   */\n      slt\n        /* \"#utility.yul\":2283:2402   */\n      iszero\n      tag_149\n      jumpi\n        /* \"#utility.yul\":2321:2400   */\n      tag_150\n      tag_137\n      jump\t// in\n    tag_150:\n        /* \"#utility.yul\":2283:2402   */\n    tag_149:\n        /* \"#utility.yul\":2441:2442   */\n      0x00\n        /* \"#utility.yul\":2466:2519   */\n      tag_151\n        /* \"#utility.yul\":2511:2518   */\n      dup5\n        /* \"#utility.yul\":2502:2508   */\n      dup3\n        /* \"#utility.yul\":2491:2500   */\n      dup6\n        /* \"#utility.yul\":2487:2509   */\n      add\n        /* \"#utility.yul\":2466:2519   */\n      tag_130\n      jump\t// in\n    tag_151:\n        /* \"#utility.yul\":2456:2519   */\n      swap2\n      pop\n        /* \"#utility.yul\":2412:2529   */\n      pop\n        /* \"#utility.yul\":2207:2536   */\n      swap3\n      swap2\n      pop\n      pop\n      jump\t// out\n        /* \"#utility.yul\":2542:2684   */\n    tag_152:\n        /* \"#utility.yul\":2645:2677   */\n      tag_154\n        /* \"#utility.yul\":2671:2676   */\n      dup2\n        /* \"#utility.yul\":2645:2677   */\n      tag_155\n      jump\t// in\n    tag_154:\n        /* \"#utility.yul\":2640:2643   */\n      dup3\n        /* \"#utility.yul\":2633:2678   */\n      mstore\n        /* \"#utility.yul\":2542:2684   */\n      pop\n      pop\n      jump\t// out\n        /* \"#utility.yul\":2690:2808   */\n    tag_156:\n        /* \"#utility.yul\":2777:2801   */\n      tag_158\n        /* \"#utility.yul\":2795:2800   */\n      dup2\n        /* \"#utility.yul\":2777:2801   */\n      tag_159\n      jump\t// in\n    tag_158:\n        /* \"#utility.yul\":2772:2775   */\n      dup3\n        /* \"#utility.yul\":2765:2802   */\n      mstore\n        /* \"#utility.yul\":2690:2808   */\n      pop\n      pop\n      jump\t// out\n        /* \"#utility.yul\":2814:2923   */\n    tag_160:\n        /* \"#utility.yul\":2895:2916   */\n      tag_162\n        /* \"#utility.yul\":2910:2915   */\n      dup2\n        /* \"#utility.yul\":2895:2916   */\n      tag_163\n      jump\t// in\n    tag_162:\n        /* \"#utility.yul\":2890:2893   */\n      dup3\n        /* \"#utility.yul\":2883:2917   */\n      mstore\n        /* \"#utility.yul\":2814:2923   */\n      pop\n      pop\n      jump\t// out\n        /* \"#utility.yul\":2929:3293   */\n    tag_164:\n        /* \"#utility.yul\":3017:3020   */\n      0x00\n        /* \"#utility.yul\":3045:3084   */\n      tag_166\n        /* \"#utility.yul\":3078:3083   */\n      dup3\n        /* \"#utility.yul\":3045:3084   */\n      tag_167\n      jump\t// in\n    tag_166:\n        /* \"#utility.yul\":3100:3171   */\n      tag_168\n        /* \"#utility.yul\":3164:3170   */\n      dup2\n        /* \"#utility.yul\":3159:3162   */\n      dup6\n        /* \"#utility.yul\":3100:3171   */\n      tag_169\n      jump\t// in\n    tag_168:\n        /* \"#utility.yul\":3093:3171   */\n      swap4\n      pop\n        /* \"#utility.yul\":3180:3232   */\n      tag_170\n        /* \"#utility.yul\":3225:3231   */\n      dup2\n        /* \"#utility.yul\":3220:3223   */\n      dup6\n        /* \"#utility.yul\":3213:3217   */\n      0x20\n        /* \"#utility.yul\":3206:3211   */\n      dup7\n        /* \"#utility.yul\":3202:3218   */\n      add\n        /* \"#utility.yul\":3180:3232   */\n      tag_171\n      jump\t// in\n    tag_170:\n        /* \"#utility.yul\":3257:3286   */\n      tag_172\n        /* \"#utility.yul\":3279:3285   */\n      dup2\n        /* \"#utility.yul\":3257:3286   */\n      tag_173\n      jump\t// in\n    tag_172:\n        /* \"#utility.yul\":3252:3255   */\n      dup5\n        /* \"#utility.yul\":3248:3287   */\n      add\n        /* \"#utility.yul\":3241:3287   */\n      swap2\n      pop\n        /* \"#utility.yul\":3021:3293   */\n      pop\n        /* \"#utility.yul\":2929:3293   */\n      swap3\n      swap2\n      pop\n      pop\n      jump\t// out\n        /* \"#utility.yul\":3299:3665   */\n    tag_174:\n        /* \"#utility.yul\":3441:3444   */\n      0x00\n        /* \"#utility.yul\":3462:3529   */\n      tag_176\n        /* \"#utility.yul\":3526:3528   */\n      0x1e\n        /* \"#utility.yul\":3521:3524   */\n      dup4\n        /* \"#utility.yul\":3462:3529   */\n      tag_169\n      jump\t// in\n    tag_176:\n        /* \"#utility.yul\":3455:3529   */\n      swap2\n      pop\n        /* \"#utility.yul\":3538:3631   */\n      tag_177\n        /* \"#utility.yul\":3627:3630   */\n      dup3\n        /* \"#utility.yul\":3538:3631   */\n      tag_178\n      jump\t// in\n    tag_177:\n        /* \"#utility.yul\":3656:3658   */\n      0x20\n        /* \"#utility.yul\":3651:3654   */\n      dup3\n        /* \"#utility.yul\":3647:3659   */\n      add\n        /* \"#utility.yul\":3640:3659   */\n      swap1\n      pop\n        /* \"#utility.yul\":3299:3665   */\n      swap2\n      swap1\n      pop\n      jump\t// out\n        /* \"#utility.yul\":3671:3789   */\n    tag_179:\n        /* \"#utility.yul\":3758:3782   */\n      tag_181\n        /* \"#utility.yul\":3776:3781   */\n      dup2\n        /* \"#utility.yul\":3758:3782   */\n      tag_182\n      jump\t// in\n    tag_181:\n        /* \"#utility.yul\":3753:3756   */\n      dup3\n        /* \"#utility.yul\":3746:3783   */\n      mstore\n        /* \"#utility.yul\":3671:3789   */\n      pop\n      pop\n      jump\t// out\n        /* \"#utility.yul\":3795:4017   */\n    tag_55:\n        /* \"#utility.yul\":3888:3892   */\n      0x00\n        /* \"#utility.yul\":3926:3928   */\n      0x20\n        /* \"#utility.yul\":3915:3924   */\n      dup3\n        /* \"#utility.yul\":3911:3929   */\n      add\n        /* \"#utility.yul\":3903:3929   */\n      swap1\n      pop\n        /* \"#utility.yul\":3939:4010   */\n      tag_184\n        /* \"#utility.yul\":4007:4008   */\n      0x00\n        /* \"#utility.yul\":3996:4005   */\n      dup4\n        /* \"#utility.yul\":3992:4009   */\n      add\n        /* \"#utility.yul\":3983:3989   */\n      dup5\n        /* \"#utility.yul\":3939:4010   */\n      tag_156\n      jump\t// in\n    tag_184:\n        /* \"#utility.yul\":3795:4017   */\n      swap3\n      swap2\n      pop\n      pop\n      jump\t// out\n        /* \"#utility.yul\":4023:4233   */\n    tag_25:\n        /* \"#utility.yul\":4110:4114   */\n      0x00\n        /* \"#utility.yul\":4148:4150   */\n      0x20\n        /* \"#utility.yul\":4137:4146   */\n      dup3\n        /* \"#utility.yul\":4133:4151   */\n      add\n        /* \"#utility.yul\":4125:4151   */\n      swap1\n      pop\n        /* \"#utility.yul\":4161:4226   */\n      tag_186\n        /* \"#utility.yul\":4223:4224   */\n      0x00\n        /* \"#utility.yul\":4212:4221   */\n      dup4\n        /* \"#utility.yul\":4208:4225   */\n      add\n        /* \"#utility.yul\":4199:4205   */\n      dup5\n        /* \"#utility.yul\":4161:4226   */\n      tag_160\n      jump\t// in\n    tag_186:\n        /* \"#utility.yul\":4023:4233   */\n      swap3\n      swap2\n      pop\n      pop\n      jump\t// out\n        /* \"#utility.yul\":4239:5014   */\n    tag_45:\n        /* \"#utility.yul\":4474:4478   */\n      0x00\n        /* \"#utility.yul\":4512:4515   */\n      0xa0\n        /* \"#utility.yul\":4501:4510   */\n      dup3\n        /* \"#utility.yul\":4497:4516   */\n      add\n        /* \"#utility.yul\":4489:4516   */\n      swap1\n      pop\n        /* \"#utility.yul\":4562:4571   */\n      dup2\n        /* \"#utility.yul\":4556:4560   */\n      dup2\n        /* \"#utility.yul\":4552:4572   */\n      sub\n        /* \"#utility.yul\":4548:4549   */\n      0x00\n        /* \"#utility.yul\":4537:4546   */\n      dup4\n        /* \"#utility.yul\":4533:4550   */\n      add\n        /* \"#utility.yul\":4526:4573   */\n      mstore\n        /* \"#utility.yul\":4590:4668   */\n      tag_188\n        /* \"#utility.yul\":4663:4667   */\n      dup2\n        /* \"#utility.yul\":4654:4660   */\n      dup9\n        /* \"#utility.yul\":4590:4668   */\n      tag_164\n      jump\t// in\n    tag_188:\n        /* \"#utility.yul\":4582:4668   */\n      swap1\n      pop\n        /* \"#utility.yul\":4678:4750   */\n      tag_189\n        /* \"#utility.yul\":4746:4748   */\n      0x20\n        /* \"#utility.yul\":4735:4744   */\n      dup4\n        /* \"#utility.yul\":4731:4749   */\n      add\n        /* \"#utility.yul\":4722:4728   */\n      dup8\n        /* \"#utility.yul\":4678:4750   */\n      tag_179\n      jump\t// in\n    tag_189:\n        /* \"#utility.yul\":4760:4848   */\n      tag_190\n        /* \"#utility.yul\":4844:4846   */\n      0x40\n        /* \"#utility.yul\":4833:4842   */\n      dup4\n        /* \"#utility.yul\":4829:4847   */\n      add\n        /* \"#utility.yul\":4820:4826   */\n      dup7\n        /* \"#utility.yul\":4760:4848   */\n      tag_152\n      jump\t// in\n    tag_190:\n        /* \"#utility.yul\":4858:4924   */\n      tag_191\n        /* \"#utility.yul\":4920:4922   */\n      0x60\n        /* \"#utility.yul\":4909:4918   */\n      dup4\n        /* \"#utility.yul\":4905:4923   */\n      add\n        /* \"#utility.yul\":4896:4902   */\n      dup6\n        /* \"#utility.yul\":4858:4924   */\n      tag_160\n      jump\t// in\n    tag_191:\n        /* \"#utility.yul\":4934:5007   */\n      tag_192\n        /* \"#utility.yul\":5002:5005   */\n      0x80\n        /* \"#utility.yul\":4991:5000   */\n      dup4\n        /* \"#utility.yul\":4987:5006   */\n      add\n        /* \"#utility.yul\":4978:4984   */\n      dup5\n        /* \"#utility.yul\":4934:5007   */\n      tag_179\n      jump\t// in\n    tag_192:\n        /* \"#utility.yul\":4239:5014   */\n      swap7\n      swap6\n      pop\n      pop\n      pop\n      pop\n      pop\n      pop\n      jump\t// out\n        /* \"#utility.yul\":5020:5439   */\n    tag_69:\n        /* \"#utility.yul\":5186:5190   */\n      0x00\n        /* \"#utility.yul\":5224:5226   */\n      0x20\n        /* \"#utility.yul\":5213:5222   */\n      dup3\n        /* \"#utility.yul\":5209:5227   */\n      add\n        /* \"#utility.yul\":5201:5227   */\n      swap1\n      pop\n        /* \"#utility.yul\":5273:5282   */\n      dup2\n        /* \"#utility.yul\":5267:5271   */\n      dup2\n        /* \"#utility.yul\":5263:5283   */\n      sub\n        /* \"#utility.yul\":5259:5260   */\n      0x00\n        /* \"#utility.yul\":5248:5257   */\n      dup4\n        /* \"#utility.yul\":5244:5261   */\n      add\n        /* \"#utility.yul\":5237:5284   */\n      mstore\n        /* \"#utility.yul\":5301:5432   */\n      tag_194\n        /* \"#utility.yul\":5427:5431   */\n      dup2\n        /* \"#utility.yul\":5301:5432   */\n      tag_174\n      jump\t// in\n    tag_194:\n        /* \"#utility.yul\":5293:5432   */\n      swap1\n      pop\n        /* \"#utility.yul\":5020:5439   */\n      swap2\n      swap1\n      pop\n      jump\t// out\n        /* \"#utility.yul\":5445:5667   */\n    tag_30:\n        /* \"#utility.yul\":5538:5542   */\n      0x00\n        /* \"#utility.yul\":5576:5578   */\n      0x20\n        /* \"#utility.yul\":5565:5574   */\n      dup3\n        /* \"#utility.yul\":5561:5579   */\n      add\n        /* \"#utility.yul\":5553:5579   */\n      swap1\n      pop\n        /* \"#utility.yul\":5589:5660   */\n      tag_196\n        /* \"#utility.yul\":5657:5658   */\n      0x00\n        /* \"#utility.yul\":5646:5655   */\n      dup4\n        /* \"#utility.yul\":5642:5659   */\n      add\n        /* \"#utility.yul\":5633:5639   */\n      dup5\n        /* \"#utility.yul\":5589:5660   */\n      tag_179\n      jump\t// in\n    tag_196:\n        /* \"#utility.yul\":5445:5667   */\n      swap3\n      swap2\n      pop\n      pop\n      jump\t// out\n        /* \"#utility.yul\":5673:6337   */\n    tag_35:\n        /* \"#utility.yul\":5878:5882   */\n      0x00\n        /* \"#utility.yul\":5916:5919   */\n      0xa0\n        /* \"#utility.yul\":5905:5914   */\n      dup3\n        /* \"#utility.yul\":5901:5920   */\n      add\n        /* \"#utility.yul\":5893:5920   */\n      swap1\n      pop\n        /* \"#utility.yul\":5930:6001   */\n      tag_198\n        /* \"#utility.yul\":5998:5999   */\n      0x00\n        /* \"#utility.yul\":5987:5996   */\n      dup4\n        /* \"#utility.yul\":5983:6000   */\n      add\n        /* \"#utility.yul\":5974:5980   */\n      dup9\n        /* \"#utility.yul\":5930:6001   */\n      tag_179\n      jump\t// in\n    tag_198:\n        /* \"#utility.yul\":6011:6083   */\n      tag_199\n        /* \"#utility.yul\":6079:6081   */\n      0x20\n        /* \"#utility.yul\":6068:6077   */\n      dup4\n        /* \"#utility.yul\":6064:6082   */\n      add\n        /* \"#utility.yul\":6055:6061   */\n      dup8\n        /* \"#utility.yul\":6011:6083   */\n      tag_179\n      jump\t// in\n    tag_199:\n        /* \"#utility.yul\":6093:6165   */\n      tag_200\n        /* \"#utility.yul\":6161:6163   */\n      0x40\n        /* \"#utility.yul\":6150:6159   */\n      dup4\n        /* \"#utility.yul\":6146:6164   */\n      add\n        /* \"#utility.yul\":6137:6143   */\n      dup7\n        /* \"#utility.yul\":6093:6165   */\n      tag_179\n      jump\t// in\n    tag_200:\n        /* \"#utility.yul\":6175:6247   */\n      tag_201\n        /* \"#utility.yul\":6243:6245   */\n      0x60\n        /* \"#utility.yul\":6232:6241   */\n      dup4\n        /* \"#utility.yul\":6228:6246   */\n      add\n        /* \"#utility.yul\":6219:6225   */\n      dup6\n        /* \"#utility.yul\":6175:6247   */\n      tag_179\n      jump\t// in\n    tag_201:\n        /* \"#utility.yul\":6257:6330   */\n      tag_202\n        /* \"#utility.yul\":6325:6328   */\n      0x80\n        /* \"#utility.yul\":6314:6323   */\n      dup4\n        /* \"#utility.yul\":6310:6329   */\n      add\n        /* \"#utility.yul\":6301:6307   */\n      dup5\n        /* \"#utility.yul\":6257:6330   */\n      tag_156\n      jump\t// in\n    tag_202:\n        /* \"#utility.yul\":5673:6337   */\n      swap7\n      swap6\n      pop\n      pop\n      pop\n      pop\n      pop\n      pop\n      jump\t// out\n        /* \"#utility.yul\":6424:6523   */\n    tag_167:\n        /* \"#utility.yul\":6476:6482   */\n      0x00\n        /* \"#utility.yul\":6510:6515   */\n      dup2\n        /* \"#utility.yul\":6504:6516   */\n      mload\n        /* \"#utility.yul\":6494:6516   */\n      swap1\n      pop\n        /* \"#utility.yul\":6424:6523   */\n      swap2\n      swap1\n      pop\n      jump\t// out\n        /* \"#utility.yul\":6529:6698   */\n    tag_169:\n        /* \"#utility.yul\":6613:6624   */\n      0x00\n        /* \"#utility.yul\":6647:6653   */\n      dup3\n        /* \"#utility.yul\":6642:6645   */\n      dup3\n        /* \"#utility.yul\":6635:6654   */\n      mstore\n        /* \"#utility.yul\":6687:6691   */\n      0x20\n        /* \"#utility.yul\":6682:6685   */\n      dup3\n        /* \"#utility.yul\":6678:6692   */\n      add\n        /* \"#utility.yul\":6663:6692   */\n      swap1\n      pop\n        /* \"#utility.yul\":6529:6698   */\n      swap3\n      swap2\n      pop\n      pop\n      jump\t// out\n        /* \"#utility.yul\":6704:6889   */\n    tag_72:\n        /* \"#utility.yul\":6744:6745   */\n      0x00\n        /* \"#utility.yul\":6761:6781   */\n      tag_208\n        /* \"#utility.yul\":6779:6780   */\n      dup3\n        /* \"#utility.yul\":6761:6781   */\n      tag_182\n      jump\t// in\n    tag_208:\n        /* \"#utility.yul\":6756:6781   */\n      swap2\n      pop\n        /* \"#utility.yul\":6795:6815   */\n      tag_209\n        /* \"#utility.yul\":6813:6814   */\n      dup4\n        /* \"#utility.yul\":6795:6815   */\n      tag_182\n      jump\t// in\n    tag_209:\n        /* \"#utility.yul\":6790:6815   */\n      swap3\n      pop\n        /* \"#utility.yul\":6834:6835   */\n      dup3\n        /* \"#utility.yul\":6824:6859   */\n      tag_210\n      jumpi\n        /* \"#utility.yul\":6839:6857   */\n      tag_211\n      tag_212\n      jump\t// in\n    tag_211:\n        /* \"#utility.yul\":6824:6859   */\n    tag_210:\n        /* \"#utility.yul\":6881:6882   */\n      dup3\n        /* \"#utility.yul\":6878:6879   */\n      dup3\n        /* \"#utility.yul\":6874:6883   */\n      div\n        /* \"#utility.yul\":6869:6883   */\n      swap1\n      pop\n        /* \"#utility.yul\":6704:6889   */\n      swap3\n      swap2\n      pop\n      pop\n      jump\t// out\n        /* \"#utility.yul\":6895:6991   */\n    tag_159:\n        /* \"#utility.yul\":6932:6939   */\n      0x00\n        /* \"#utility.yul\":6961:6985   */\n      tag_214\n        /* \"#utility.yul\":6979:6984   */\n      dup3\n        /* \"#utility.yul\":6961:6985   */\n      tag_215\n      jump\t// in\n    tag_214:\n        /* \"#utility.yul\":6950:6985   */\n      swap1\n      pop\n        /* \"#utility.yul\":6895:6991   */\n      swap2\n      swap1\n      pop\n      jump\t// out\n        /* \"#utility.yul\":6997:7101   */\n    tag_155:\n        /* \"#utility.yul\":7042:7049   */\n      0x00\n        /* \"#utility.yul\":7071:7095   */\n      tag_217\n        /* \"#utility.yul\":7089:7094   */\n      dup3\n        /* \"#utility.yul\":7071:7095   */\n      tag_215\n      jump\t// in\n    tag_217:\n        /* \"#utility.yul\":7060:7095   */\n      swap1\n      pop\n        /* \"#utility.yul\":6997:7101   */\n      swap2\n      swap1\n      pop\n      jump\t// out\n        /* \"#utility.yul\":7107:7197   */\n    tag_163:\n        /* \"#utility.yul\":7141:7148   */\n      0x00\n        /* \"#utility.yul\":7184:7189   */\n      dup2\n        /* \"#utility.yul\":7177:7190   */\n      iszero\n        /* \"#utility.yul\":7170:7191   */\n      iszero\n        /* \"#utility.yul\":7159:7191   */\n      swap1\n      pop\n        /* \"#utility.yul\":7107:7197   */\n      swap2\n      swap1\n      pop\n      jump\t// out\n        /* \"#utility.yul\":7203:7329   */\n    tag_215:\n        /* \"#utility.yul\":7240:7247   */\n      0x00\n        /* \"#utility.yul\":7280:7322   */\n      0xffffffffffffffffffffffffffffffffffffffff\n        /* \"#utility.yul\":7273:7278   */\n      dup3\n        /* \"#utility.yul\":7269:7323   */\n      and\n        /* \"#utility.yul\":7258:7323   */\n      swap1\n      pop\n        /* \"#utility.yul\":7203:7329   */\n      swap2\n      swap1\n      pop\n      jump\t// out\n        /* \"#utility.yul\":7335:7412   */\n    tag_182:\n        /* \"#utility.yul\":7372:7379   */\n      0x00\n        /* \"#utility.yul\":7401:7406   */\n      dup2\n        /* \"#utility.yul\":7390:7406   */\n      swap1\n      pop\n        /* \"#utility.yul\":7335:7412   */\n      swap2\n      swap1\n      pop\n      jump\t// out\n        /* \"#utility.yul\":7418:7725   */\n    tag_171:\n        /* \"#utility.yul\":7486:7487   */\n      0x00\n        /* \"#utility.yul\":7496:7609   */\n    tag_222:\n        /* \"#utility.yul\":7510:7516   */\n      dup4\n        /* \"#utility.yul\":7507:7508   */\n      dup2\n        /* \"#utility.yul\":7504:7517   */\n      lt\n        /* \"#utility.yul\":7496:7609   */\n      iszero\n      tag_224\n      jumpi\n        /* \"#utility.yul\":7595:7596   */\n      dup1\n        /* \"#utility.yul\":7590:7593   */\n      dup3\n        /* \"#utility.yul\":7586:7597   */\n      add\n        /* \"#utility.yul\":7580:7598   */\n      mload\n        /* \"#utility.yul\":7576:7577   */\n      dup2\n        /* \"#utility.yul\":7571:7574   */\n      dup5\n        /* \"#utility.yul\":7567:7578   */\n      add\n        /* \"#utility.yul\":7560:7599   */\n      mstore\n        /* \"#utility.yul\":7532:7534   */\n      0x20\n        /* \"#utility.yul\":7529:7530   */\n      dup2\n        /* \"#utility.yul\":7525:7535   */\n      add\n        /* \"#utility.yul\":7520:7535   */\n      swap1\n      pop\n        /* \"#utility.yul\":7496:7609   */\n      jump(tag_222)\n    tag_224:\n        /* \"#utility.yul\":7627:7633   */\n      dup4\n        /* \"#utility.yul\":7624:7625   */\n      dup2\n        /* \"#utility.yul\":7621:7634   */\n      gt\n        /* \"#utility.yul\":7618:7719   */\n      iszero\n      tag_225\n      jumpi\n        /* \"#utility.yul\":7707:7708   */\n      0x00\n        /* \"#utility.yul\":7698:7704   */\n      dup5\n        /* \"#utility.yul\":7693:7696   */\n      dup5\n        /* \"#utility.yul\":7689:7705   */\n      add\n        /* \"#utility.yul\":7682:7709   */\n      mstore\n        /* \"#utility.yul\":7618:7719   */\n    tag_225:\n        /* \"#utility.yul\":7467:7725   */\n      pop\n        /* \"#utility.yul\":7418:7725   */\n      pop\n      pop\n      pop\n      jump\t// out\n        /* \"#utility.yul\":7731:8051   */\n    tag_85:\n        /* \"#utility.yul\":7775:7781   */\n      0x00\n        /* \"#utility.yul\":7812:7813   */\n      0x02\n        /* \"#utility.yul\":7806:7810   */\n      dup3\n        /* \"#utility.yul\":7802:7814   */\n      div\n        /* \"#utility.yul\":7792:7814   */\n      swap1\n      pop\n        /* \"#utility.yul\":7859:7860   */\n      0x01\n        /* \"#utility.yul\":7853:7857   */\n      dup3\n        /* \"#utility.yul\":7849:7861   */\n      and\n        /* \"#utility.yul\":7880:7898   */\n      dup1\n        /* \"#utility.yul\":7870:7951   */\n      tag_227\n      jumpi\n        /* \"#utility.yul\":7936:7940   */\n      0x7f\n        /* \"#utility.yul\":7928:7934   */\n      dup3\n        /* \"#utility.yul\":7924:7941   */\n      and\n        /* \"#utility.yul\":7914:7941   */\n      swap2\n      pop\n        /* \"#utility.yul\":7870:7951   */\n    tag_227:\n        /* \"#utility.yul\":7998:8000   */\n      0x20\n        /* \"#utility.yul\":7990:7996   */\n      dup3\n        /* \"#utility.yul\":7987:8001   */\n      lt\n        /* \"#utility.yul\":7967:7985   */\n      dup2\n        /* \"#utility.yul\":7964:8002   */\n      eq\n        /* \"#utility.yul\":7961:8045   */\n      iszero\n      tag_228\n      jumpi\n        /* \"#utility.yul\":8017:8035   */\n      tag_229\n      tag_230\n      jump\t// in\n    tag_229:\n        /* \"#utility.yul\":7961:8045   */\n    tag_228:\n        /* \"#utility.yul\":7782:8051   */\n      pop\n        /* \"#utility.yul\":7731:8051   */\n      swap2\n      swap1\n      pop\n      jump\t// out\n        /* \"#utility.yul\":8057:8290   */\n    tag_83:\n        /* \"#utility.yul\":8096:8099   */\n      0x00\n        /* \"#utility.yul\":8119:8143   */\n      tag_232\n        /* \"#utility.yul\":8137:8142   */\n      dup3\n        /* \"#utility.yul\":8119:8143   */\n      tag_182\n      jump\t// in\n    tag_232:\n        /* \"#utility.yul\":8110:8143   */\n      swap2\n      pop\n        /* \"#utility.yul\":8165:8231   */\n      0xffffffffffffffffffffffffffffffffffffffffffffffffffffffffffffffff\n        /* \"#utility.yul\":8158:8163   */\n      dup3\n        /* \"#utility.yul\":8155:8232   */\n      eq\n        /* \"#utility.yul\":8152:8255   */\n      iszero\n      tag_233\n      jumpi\n        /* \"#utility.yul\":8235:8253   */\n      tag_234\n      tag_235\n      jump\t// in\n    tag_234:\n        /* \"#utility.yul\":8152:8255   */\n    tag_233:\n        /* \"#utility.yul\":8282:8283   */\n      0x01\n        /* \"#utility.yul\":8275:8280   */\n      dup3\n        /* \"#utility.yul\":8271:8284   */\n      add\n        /* \"#utility.yul\":8264:8284   */\n      swap1\n      pop\n        /* \"#utility.yul\":8057:8290   */\n      swap2\n      swap1\n      pop\n      jump\t// out\n        /* \"#utility.yul\":8296:8476   */\n    tag_235:\n        /* \"#utility.yul\":8344:8421   */\n      0x4e487b7100000000000000000000000000000000000000000000000000000000\n        /* \"#utility.yul\":8341:8342   */\n      0x00\n        /* \"#utility.yul\":8334:8422   */\n      mstore\n        /* \"#utility.yul\":8441:8445   */\n      0x11\n        /* \"#utility.yul\":8438:8439   */\n      0x04\n        /* \"#utility.yul\":8431:8446   */\n      mstore\n        /* \"#utility.yul\":8465:8469   */\n      0x24\n        /* \"#utility.yul\":8462:8463   */\n      0x00\n        /* \"#utility.yul\":8455:8470   */\n      revert\n        /* \"#utility.yul\":8482:8662   */\n    tag_212:\n        /* \"#utility.yul\":8530:8607   */\n      0x4e487b7100000000000000000000000000000000000000000000000000000000\n        /* \"#utility.yul\":8527:8528   */\n      0x00\n        /* \"#utility.yul\":8520:8608   */\n      mstore\n        /* \"#utility.yul\":8627:8631   */\n      0x12\n        /* \"#utility.yul\":8624:8625   */\n      0x04\n        /* \"#utility.yul\":8617:8632   */\n      mstore\n        /* \"#utility.yul\":8651:8655   */\n      0x24\n        /* \"#utility.yul\":8648:8649   */\n      0x00\n        /* \"#utility.yul\":8641:8656   */\n      revert\n        /* \"#utility.yul\":8668:8848   */\n    tag_230:\n        /* \"#utility.yul\":8716:8793   */\n      0x4e487b7100000000000000000000000000000000000000000000000000000000\n        /* \"#utility.yul\":8713:8714   */\n      0x00\n        /* \"#utility.yul\":8706:8794   */\n      mstore\n        /* \"#utility.yul\":8813:8817   */\n      0x22\n        /* \"#utility.yul\":8810:8811   */\n      0x04\n        /* \"#utility.yul\":8803:8818   */\n      mstore\n        /* \"#utility.yul\":8837:8841   */\n      0x24\n        /* \"#utility.yul\":8834:8835   */\n      0x00\n        /* \"#utility.yul\":8827:8842   */\n      revert\n        /* \"#utility.yul\":8854:8971   */\n    tag_126:\n        /* \"#utility.yul\":8963:8964   */\n      0x00\n        /* \"#utility.yul\":8960:8961   */\n      dup1\n        /* \"#utility.yul\":8953:8965   */\n      revert\n        /* \"#utility.yul\":8977:9094   */\n    tag_123:\n        /* \"#utility.yul\":9086:9087   */\n      0x00\n        /* \"#utility.yul\":9083:9084   */\n      dup1\n        /* \"#utility.yul\":9076:9088   */\n      revert\n        /* \"#utility.yul\":9100:9217   */\n    tag_129:\n        /* \"#utility.yul\":9209:9210   */\n      0x00\n        /* \"#utility.yul\":9206:9207   */\n      dup1\n        /* \"#utility.yul\":9199:9211   */\n      revert\n        /* \"#utility.yul\":9223:9340   */\n    tag_144:\n        /* \"#utility.yul\":9332:9333   */\n      0x00\n        /* \"#utility.yul\":9329:9330   */\n      dup1\n        /* \"#utility.yul\":9322:9334   */\n      revert\n        /* \"#utility.yul\":9346:9463   */\n    tag_137:\n        /* \"#utility.yul\":9455:9456   */\n      0x00\n        /* \"#utility.yul\":9452:9453   */\n      dup1\n        /* \"#utility.yul\":9445:9457   */\n      revert\n        /* \"#utility.yul\":9469:9571   */\n    tag_173:\n        /* \"#utility.yul\":9510:9516   */\n      0x00\n        /* \"#utility.yul\":9561:9563   */\n      0x1f\n        /* \"#utility.yul\":9557:9564   */\n      not\n        /* \"#utility.yul\":9552:9554   */\n      0x1f\n        /* \"#utility.yul\":9545:9550   */\n      dup4\n        /* \"#utility.yul\":9541:9555   */\n      add\n        /* \"#utility.yul\":9537:9565   */\n      and\n        /* \"#utility.yul\":9527:9565   */\n      swap1\n      pop\n        /* \"#utility.yul\":9469:9571   */\n      swap2\n      swap1\n      pop\n      jump\t// out\n        /* \"#utility.yul\":9577:9757   */\n    tag_178:\n        /* \"#utility.yul\":9717:9749   */\n      0x4f6e6c79206f776e65722063616e206372656174652063616d706169676e0000\n        /* \"#utility.yul\":9713:9714   */\n      0x00\n        /* \"#utility.yul\":9705:9711   */\n      dup3\n        /* \"#utility.yul\":9701:9715   */\n      add\n        /* \"#utility.yul\":9694:9750   */\n      mstore\n        /* \"#utility.yul\":9577:9757   */\n      pop\n      jump\t// out\n        /* \"#utility.yul\":9763:9885   */\n    tag_114:\n        /* \"#utility.yul\":9836:9860   */\n      tag_247\n        /* \"#utility.yul\":9854:9859   */\n      dup2\n        /* \"#utility.yul\":9836:9860   */\n      tag_159\n      jump\t// in\n    tag_247:\n        /* \"#utility.yul\":9829:9834   */\n      dup2\n        /* \"#utility.yul\":9826:9861   */\n      eq\n        /* \"#utility.yul\":9816:9879   */\n      tag_248\n      jumpi\n        /* \"#utility.yul\":9875:9876   */\n      0x00\n        /* \"#utility.yul\":9872:9873   */\n      dup1\n        /* \"#utility.yul\":9865:9877   */\n      revert\n        /* \"#utility.yul\":9816:9879   */\n    tag_248:\n        /* \"#utility.yul\":9763:9885   */\n      pop\n      jump\t// out\n        /* \"#utility.yul\":9891:10029   */\n    tag_118:\n        /* \"#utility.yul\":9972:10004   */\n      tag_250\n        /* \"#utility.yul\":9998:10003   */\n      dup2\n        /* \"#utility.yul\":9972:10004   */\n      tag_155\n      jump\t// in\n    tag_250:\n        /* \"#utility.yul\":9965:9970   */\n      dup2\n        /* \"#utility.yul\":9962:10005   */\n      eq\n        /* \"#utility.yul\":9952:10023   */\n      tag_251\n      jumpi\n        /* \"#utility.yul\":10019:10020   */\n      0x00\n        /* \"#utility.yul\":10016:10017   */\n      dup1\n        /* \"#utility.yul\":10009:10021   */\n      revert\n        /* \"#utility.yul\":9952:10023   */\n    tag_251:\n        /* \"#utility.yul\":9891:10029   */\n      pop\n      jump\t// out\n        /* \"#utility.yul\":10035:10157   */\n    tag_133:\n        /* \"#utility.yul\":10108:10132   */\n      tag_253\n        /* \"#utility.yul\":10126:10131   */\n      dup2\n        /* \"#utility.yul\":10108:10132   */\n      tag_182\n      jump\t// in\n    tag_253:\n        /* \"#utility.yul\":10101:10106   */\n      dup2\n        /* \"#utility.yul\":10098:10133   */\n      eq\n        /* \"#utility.yul\":10088:10151   */\n      tag_254\n      jumpi\n        /* \"#utility.yul\":10147:10148   */\n      0x00\n        /* \"#utility.yul\":10144:10145   */\n      dup1\n        /* \"#utility.yul\":10137:10149   */\n      revert\n        /* \"#utility.yul\":10088:10151   */\n    tag_254:\n        /* \"#utility.yul\":10035:10157   */\n      pop\n      jump\t// out\n\n    auxdata: 0xa26469706673582212208b9338e8db783222ce42f6108918902d1e5e1eb5ff53ff436ad205fee670b39f64736f6c63430008070033\n}\n",
				"bytecode": {
					"linkReferences": {},
					"object": "60806040523480156200001157600080fd5b506040516200106c3803806200106c8339818101604052810190620000379190620000b4565b806000806101000a81548173ffffffffffffffffffffffffffffffffffffffff021916908373ffffffffffffffffffffffffffffffffffffffff16021790555081600181905550505062000172565b60008151905062000097816200013e565b92915050565b600081519050620000ae8162000158565b92915050565b60008060408385031215620000ce57620000cd62000139565b5b6000620000de858286016200009d565b9250506020620000f18582860162000086565b9150509250929050565b600062000108826200010f565b9050919050565b600073ffffffffffffffffffffffffffffffffffffffff82169050919050565b6000819050919050565b600080fd5b6200014981620000fb565b81146200015557600080fd5b50565b62000163816200012f565b81146200016f57600080fd5b50565b610eea80620001826000396000f3fe60806040526004361061009c5760003560e01c806381d12c581161006457806381d12c581461018a5780638a9cfd55146101cb5780638da5cb5b146101f457806398c079381461021f578063aaffadf31461024a578063d7bb99ba146102755761009c565b806303441006146100a15780630a144391146100ca5780633410452a146101075780634051ddac146101325780634e08ac8514610161575b600080fd5b3480156100ad57600080fd5b506100c860048036038101906100c39190610a57565b61027f565b005b3480156100d657600080fd5b506100f160048036038101906100ec91906109b6565b6103ee565b6040516100fe9190610b37565b60405180910390f35b34801561011357600080fd5b5061011c61040e565b6040516101299190610bcc565b60405180910390f35b34801561013e57600080fd5b50610147610418565b604051610158959493929190610be7565b60405180910390f35b34801561016d57600080fd5b5061018860048036038101906101839190610a57565b61045c565b005b34801561019657600080fd5b506101b160048036038101906101ac9190610a57565b61059a565b6040516101c2959493929190610b52565b60405180910390f35b3480156101d757600080fd5b506101f260048036038101906101ed91906109e3565b610685565b005b34801561020057600080fd5b506102096107ce565b6040516102169190610b1c565b60405180910390f35b34801561022b57600080fd5b506102346107f2565b6040516102419190610bcc565b60405180910390f35b34801561025657600080fd5b5061025f6107f8565b60405161026c9190610bcc565b60405180910390f35b61027d6107fe565b005b60008054906101000a900473ffffffffffffffffffffffffffffffffffffffff1673ffffffffffffffffffffffffffffffffffffffff163373ffffffffffffffffffffffffffffffffffffffff161461030d576040517f08c379a000000000000000000000000000000000000000000000000000000000815260040161030490610bac565b60405180910390fd5b600060056000838152602001908152602001600020905060026003546103339190610c56565b81600401541161034257600080fd5b8060020160149054906101000a900460ff161561035e57600080fd5b8060020160009054906101000a900473ffffffffffffffffffffffffffffffffffffffff1673ffffffffffffffffffffffffffffffffffffffff166108fc82600101549081150290604051600060405180830381858888f193505050501580156103cc573d6000803e3d6000fd5b5060018160020160146101000a81548160ff0219169083151502179055505050565b60026020528060005260406000206000915054906101000a900460ff1681565b6000600454905090565b60008060008060006001544760045460035460008054906101000a900473ffffffffffffffffffffffffffffffffffffffff16945094509450945094509091929394565b6000600560008381526020019081526020016000209050600260003373ffffffffffffffffffffffffffffffffffffffff1673ffffffffffffffffffffffffffffffffffffffff16815260200190815260200160002060009054906101000a900460ff166104c957600080fd5b8060030160003373ffffffffffffffffffffffffffffffffffffffff1673ffffffffffffffffffffffffffffffffffffffff16815260200190815260200160002060009054906101000a900460ff161561052257600080fd5b60018160030160003373ffffffffffffffffffffffffffffffffffffffff1673ffffffffffffffffffffffffffffffffffffffff16815260200190815260200160002060006101000a81548160ff02191690831515021790555080600401600081548092919061059190610d46565b91905055505050565b60056020528060005260406000206000915090508060000180546105bd90610d14565b80601f01602080910402602001604051908101604052809291908181526020018280546105e990610d14565b80156106365780601f1061060b57610100808354040283529160200191610636565b820191906000526020600020905b81548152906001019060200180831161061957829003601f168201915b5050505050908060010154908060020160009054906101000a900473ffffffffffffffffffffffffffffffffffffffff16908060020160149054906101000a900460ff16908060040154905085565b60008054906101000a900473ffffffffffffffffffffffffffffffffffffffff1673ffffffffffffffffffffffffffffffffffffffff163373ffffffffffffffffffffffffffffffffffffffff1614610713576040517f08c379a000000000000000000000000000000000000000000000000000000000815260040161070a90610bac565b60405180910390fd5b6000600560006004600081548092919061072c90610d46565b9190505581526020019081526020016000209050848482600001919061075392919061087e565b50828160010181905550818160020160006101000a81548173ffffffffffffffffffffffffffffffffffffffff021916908373ffffffffffffffffffffffffffffffffffffffff16021790555060008160020160146101000a81548160ff021916908315150217905550600081600401819055505050505050565b60008054906101000a900473ffffffffffffffffffffffffffffffffffffffff1681565b60035481565b60015481565b600154341161080c57600080fd5b6001600260003373ffffffffffffffffffffffffffffffffffffffff1673ffffffffffffffffffffffffffffffffffffffff16815260200190815260200160002060006101000a81548160ff0219169083151502179055506003600081548092919061087790610d46565b9190505550565b82805461088a90610d14565b90600052602060002090601f0160209004810192826108ac57600085556108f3565b82601f106108c557803560ff19168380011785556108f3565b828001600101855582156108f3579182015b828111156108f25782358255916020019190600101906108d7565b5b5090506109009190610904565b5090565b5b8082111561091d576000816000905550600101610905565b5090565b60008135905061093081610e6f565b92915050565b60008135905061094581610e86565b92915050565b60008083601f84011261096157610960610e21565b5b8235905067ffffffffffffffff81111561097e5761097d610e1c565b5b60208301915083600182028301111561099a57610999610e26565b5b9250929050565b6000813590506109b081610e9d565b92915050565b6000602082840312156109cc576109cb610e30565b5b60006109da84828501610921565b91505092915050565b600080600080606085870312156109fd576109fc610e30565b5b600085013567ffffffffffffffff811115610a1b57610a1a610e2b565b5b610a278782880161094b565b94509450506020610a3a878288016109a1565b9250506040610a4b87828801610936565b91505092959194509250565b600060208284031215610a6d57610a6c610e30565b5b6000610a7b848285016109a1565b91505092915050565b610a8d81610c99565b82525050565b610a9c81610c87565b82525050565b610aab81610cab565b82525050565b6000610abc82610c3a565b610ac68185610c45565b9350610ad6818560208601610ce1565b610adf81610e35565b840191505092915050565b6000610af7601e83610c45565b9150610b0282610e46565b602082019050919050565b610b1681610cd7565b82525050565b6000602082019050610b316000830184610a93565b92915050565b6000602082019050610b4c6000830184610aa2565b92915050565b600060a0820190508181036000830152610b6c8188610ab1565b9050610b7b6020830187610b0d565b610b886040830186610a84565b610b956060830185610aa2565b610ba26080830184610b0d565b9695505050505050565b60006020820190508181036000830152610bc581610aea565b9050919050565b6000602082019050610be16000830184610b0d565b92915050565b600060a082019050610bfc6000830188610b0d565b610c096020830187610b0d565b610c166040830186610b0d565b610c236060830185610b0d565b610c306080830184610a93565b9695505050505050565b600081519050919050565b600082825260208201905092915050565b6000610c6182610cd7565b9150610c6c83610cd7565b925082610c7c57610c7b610dbe565b5b828204905092915050565b6000610c9282610cb7565b9050919050565b6000610ca482610cb7565b9050919050565b60008115159050919050565b600073ffffffffffffffffffffffffffffffffffffffff82169050919050565b6000819050919050565b60005b83811015610cff578082015181840152602081019050610ce4565b83811115610d0e576000848401525b50505050565b60006002820490506001821680610d2c57607f821691505b60208210811415610d4057610d3f610ded565b5b50919050565b6000610d5182610cd7565b91507fffffffffffffffffffffffffffffffffffffffffffffffffffffffffffffffff821415610d8457610d83610d8f565b5b600182019050919050565b7f4e487b7100000000000000000000000000000000000000000000000000000000600052601160045260246000fd5b7f4e487b7100000000000000000000000000000000000000000000000000000000600052601260045260246000fd5b7f4e487b7100000000000000000000000000000000000000000000000000000000600052602260045260246000fd5b600080fd5b600080fd5b600080fd5b600080fd5b600080fd5b6000601f19601f8301169050919050565b7f4f6e6c79206f776e65722063616e206372656174652063616d706169676e0000600082015250565b610e7881610c87565b8114610e8357600080fd5b50565b610e8f81610c99565b8114610e9a57600080fd5b50565b610ea681610cd7565b8114610eb157600080fd5b5056fea26469706673582212208b9338e8db783222ce42f6108918902d1e5e1eb5ff53ff436ad205fee670b39f64736f6c63430008070033",
					"opcodes": "PUSH1 0x80 PUSH1 0x40 MSTORE CALLVALUE DUP1 ISZERO PUSH3 0x11 JUMPI PUSH1 0x0 DUP1 REVERT JUMPDEST POP PUSH1 0x40 MLOAD PUSH3 0x106C CODESIZE SUB DUP1 PUSH3 0x106C DUP4 CODECOPY DUP2 DUP2 ADD PUSH1 0x40 MSTORE DUP2 ADD SWAP1 PUSH3 0x37 SWAP2 SWAP1 PUSH3 0xB4 JUMP JUMPDEST DUP1 PUSH1 0x0 DUP1 PUSH2 0x100 EXP DUP2 SLOAD DUP2 PUSH20 0xFFFFFFFFFFFFFFFFFFFFFFFFFFFFFFFFFFFFFFFF MUL NOT AND SWAP1 DUP4 PUSH20 0xFFFFFFFFFFFFFFFFFFFFFFFFFFFFFFFFFFFFFFFF AND MUL OR SWAP1 SSTORE POP DUP2 PUSH1 0x1 DUP2 SWAP1 SSTORE POP POP POP PUSH3 0x172 JUMP JUMPDEST PUSH1 0x0 DUP2 MLOAD SWAP1 POP PUSH3 0x97 DUP2 PUSH3 0x13E JUMP JUMPDEST SWAP3 SWAP2 POP POP JUMP JUMPDEST PUSH1 0x0 DUP2 MLOAD SWAP1 POP PUSH3 0xAE DUP2 PUSH3 0x158 JUMP JUMPDEST SWAP3 SWAP2 POP POP JUMP JUMPDEST PUSH1 0x0 DUP1 PUSH1 0x40 DUP4 DUP6 SUB SLT ISZERO PUSH3 0xCE JUMPI PUSH3 0xCD PUSH3 0x139 JUMP JUMPDEST JUMPDEST PUSH1 0x0 PUSH3 0xDE DUP6 DUP3 DUP7 ADD PUSH3 0x9D JUMP JUMPDEST SWAP3 POP POP PUSH1 0x20 PUSH3 0xF1 DUP6 DUP3 DUP7 ADD PUSH3 0x86 JUMP JUMPDEST SWAP2 POP POP SWAP3 POP SWAP3 SWAP1 POP JUMP JUMPDEST PUSH1 0x0 PUSH3 0x108 DUP3 PUSH3 0x10F JUMP JUMPDEST SWAP1 POP SWAP2 SWAP1 POP JUMP JUMPDEST PUSH1 0x0 PUSH20 0xFFFFFFFFFFFFFFFFFFFFFFFFFFFFFFFFFFFFFFFF DUP3 AND SWAP1 POP SWAP2 SWAP1 POP JUMP JUMPDEST PUSH1 0x0 DUP2 SWAP1 POP SWAP2 SWAP1 POP JUMP JUMPDEST PUSH1 0x0 DUP1 REVERT JUMPDEST PUSH3 0x149 DUP2 PUSH3 0xFB JUMP JUMPDEST DUP2 EQ PUSH3 0x155 JUMPI PUSH1 0x0 DUP1 REVERT JUMPDEST POP JUMP JUMPDEST PUSH3 0x163 DUP2 PUSH3 0x12F JUMP JUMPDEST DUP2 EQ PUSH3 0x16F JUMPI PUSH1 0x0 DUP1 REVERT JUMPDEST POP JUMP JUMPDEST PUSH2 0xEEA DUP1 PUSH3 0x182 PUSH1 0x0 CODECOPY PUSH1 0x0 RETURN INVALID PUSH1 0x80 PUSH1 0x40 MSTORE PUSH1 0x4 CALLDATASIZE LT PUSH2 0x9C JUMPI PUSH1 0x0 CALLDATALOAD PUSH1 0xE0 SHR DUP1 PUSH4 0x81D12C58 GT PUSH2 0x64 JUMPI DUP1 PUSH4 0x81D12C58 EQ PUSH2 0x18A JUMPI DUP1 PUSH4 0x8A9CFD55 EQ PUSH2 0x1CB JUMPI DUP1 PUSH4 0x8DA5CB5B EQ PUSH2 0x1F4 JUMPI DUP1 PUSH4 0x98C07938 EQ PUSH2 0x21F JUMPI DUP1 PUSH4 0xAAFFADF3 EQ PUSH2 0x24A JUMPI DUP1 PUSH4 0xD7BB99BA EQ PUSH2 0x275 JUMPI PUSH2 0x9C JUMP JUMPDEST DUP1 PUSH4 0x3441006 EQ PUSH2 0xA1 JUMPI DUP1 PUSH4 0xA144391 EQ PUSH2 0xCA JUMPI DUP1 PUSH4 0x3410452A EQ PUSH2 0x107 JUMPI DUP1 PUSH4 0x4051DDAC EQ PUSH2 0x132 JUMPI DUP1 PUSH4 0x4E08AC85 EQ PUSH2 0x161 JUMPI JUMPDEST PUSH1 0x0 DUP1 REVERT JUMPDEST CALLVALUE DUP1 ISZERO PUSH2 0xAD JUMPI PUSH1 0x0 DUP1 REVERT JUMPDEST POP PUSH2 0xC8 PUSH1 0x4 DUP1 CALLDATASIZE SUB DUP2 ADD SWAP1 PUSH2 0xC3 SWAP2 SWAP1 PUSH2 0xA57 JUMP JUMPDEST PUSH2 0x27F JUMP JUMPDEST STOP JUMPDEST CALLVALUE DUP1 ISZERO PUSH2 0xD6 JUMPI PUSH1 0x0 DUP1 REVERT JUMPDEST POP PUSH2 0xF1 PUSH1 0x4 DUP1 CALLDATASIZE SUB DUP2 ADD SWAP1 PUSH2 0xEC SWAP2 SWAP1 PUSH2 0x9B6 JUMP JUMPDEST PUSH2 0x3EE JUMP JUMPDEST PUSH1 0x40 MLOAD PUSH2 0xFE SWAP2 SWAP1 PUSH2 0xB37 JUMP JUMPDEST PUSH1 0x40 MLOAD DUP1 SWAP2 SUB SWAP1 RETURN JUMPDEST CALLVALUE DUP1 ISZERO PUSH2 0x113 JUMPI PUSH1 0x0 DUP1 REVERT JUMPDEST POP PUSH2 0x11C PUSH2 0x40E JUMP JUMPDEST PUSH1 0x40 MLOAD PUSH2 0x129 SWAP2 SWAP1 PUSH2 0xBCC JUMP JUMPDEST PUSH1 0x40 MLOAD DUP1 SWAP2 SUB SWAP1 RETURN JUMPDEST CALLVALUE DUP1 ISZERO PUSH2 0x13E JUMPI PUSH1 0x0 DUP1 REVERT JUMPDEST POP PUSH2 0x147 PUSH2 0x418 JUMP JUMPDEST PUSH1 0x40 MLOAD PUSH2 0x158 SWAP6 SWAP5 SWAP4 SWAP3 SWAP2 SWAP1 PUSH2 0xBE7 JUMP JUMPDEST PUSH1 0x40 MLOAD DUP1 SWAP2 SUB SWAP1 RETURN JUMPDEST CALLVALUE DUP1 ISZERO PUSH2 0x16D JUMPI PUSH1 0x0 DUP1 REVERT JUMPDEST POP PUSH2 0x188 PUSH1 0x4 DUP1 CALLDATASIZE SUB DUP2 ADD SWAP1 PUSH2 0x183 SWAP2 SWAP1 PUSH2 0xA57 JUMP JUMPDEST PUSH2 0x45C JUMP JUMPDEST STOP JUMPDEST CALLVALUE DUP1 ISZERO PUSH2 0x196 JUMPI PUSH1 0x0 DUP1 REVERT JUMPDEST POP PUSH2 0x1B1 PUSH1 0x4 DUP1 CALLDATASIZE SUB DUP2 ADD SWAP1 PUSH2 0x1AC SWAP2 SWAP1 PUSH2 0xA57 JUMP JUMPDEST PUSH2 0x59A JUMP JUMPDEST PUSH1 0x40 MLOAD PUSH2 0x1C2 SWAP6 SWAP5 SWAP4 SWAP3 SWAP2 SWAP1 PUSH2 0xB52 JUMP JUMPDEST PUSH1 0x40 MLOAD DUP1 SWAP2 SUB SWAP1 RETURN JUMPDEST CALLVALUE DUP1 ISZERO PUSH2 0x1D7 JUMPI PUSH1 0x0 DUP1 REVERT JUMPDEST POP PUSH2 0x1F2 PUSH1 0x4 DUP1 CALLDATASIZE SUB DUP2 ADD SWAP1 PUSH2 0x1ED SWAP2 SWAP1 PUSH2 0x9E3 JUMP JUMPDEST PUSH2 0x685 JUMP JUMPDEST STOP JUMPDEST CALLVALUE DUP1 ISZERO PUSH2 0x200 JUMPI PUSH1 0x0 DUP1 REVERT JUMPDEST POP PUSH2 0x209 PUSH2 0x7CE JUMP JUMPDEST PUSH1 0x40 MLOAD PUSH2 0x216 SWAP2 SWAP1 PUSH2 0xB1C JUMP JUMPDEST PUSH1 0x40 MLOAD DUP1 SWAP2 SUB SWAP1 RETURN JUMPDEST CALLVALUE DUP1 ISZERO PUSH2 0x22B JUMPI PUSH1 0x0 DUP1 REVERT JUMPDEST POP PUSH2 0x234 PUSH2 0x7F2 JUMP JUMPDEST PUSH1 0x40 MLOAD PUSH2 0x241 SWAP2 SWAP1 PUSH2 0xBCC JUMP JUMPDEST PUSH1 0x40 MLOAD DUP1 SWAP2 SUB SWAP1 RETURN JUMPDEST CALLVALUE DUP1 ISZERO PUSH2 0x256 JUMPI PUSH1 0x0 DUP1 REVERT JUMPDEST POP PUSH2 0x25F PUSH2 0x7F8 JUMP JUMPDEST PUSH1 0x40 MLOAD PUSH2 0x26C SWAP2 SWAP1 PUSH2 0xBCC JUMP JUMPDEST PUSH1 0x40 MLOAD DUP1 SWAP2 SUB SWAP1 RETURN JUMPDEST PUSH2 0x27D PUSH2 0x7FE JUMP JUMPDEST STOP JUMPDEST PUSH1 0x0 DUP1 SLOAD SWAP1 PUSH2 0x100 EXP SWAP1 DIV PUSH20 0xFFFFFFFFFFFFFFFFFFFFFFFFFFFFFFFFFFFFFFFF AND PUSH20 0xFFFFFFFFFFFFFFFFFFFFFFFFFFFFFFFFFFFFFFFF AND CALLER PUSH20 0xFFFFFFFFFFFFFFFFFFFFFFFFFFFFFFFFFFFFFFFF AND EQ PUSH2 0x30D JUMPI PUSH1 0x40 MLOAD PUSH32 0x8C379A000000000000000000000000000000000000000000000000000000000 DUP2 MSTORE PUSH1 0x4 ADD PUSH2 0x304 SWAP1 PUSH2 0xBAC JUMP JUMPDEST PUSH1 0x40 MLOAD DUP1 SWAP2 SUB SWAP1 REVERT JUMPDEST PUSH1 0x0 PUSH1 0x5 PUSH1 0x0 DUP4 DUP2 MSTORE PUSH1 0x20 ADD SWAP1 DUP2 MSTORE PUSH1 0x20 ADD PUSH1 0x0 KECCAK256 SWAP1 POP PUSH1 0x2 PUSH1 0x3 SLOAD PUSH2 0x333 SWAP2 SWAP1 PUSH2 0xC56 JUMP JUMPDEST DUP2 PUSH1 0x4 ADD SLOAD GT PUSH2 0x342 JUMPI PUSH1 0x0 DUP1 REVERT JUMPDEST DUP1 PUSH1 0x2 ADD PUSH1 0x14 SWAP1 SLOAD SWAP1 PUSH2 0x100 EXP SWAP1 DIV PUSH1 0xFF AND ISZERO PUSH2 0x35E JUMPI PUSH1 0x0 DUP1 REVERT JUMPDEST DUP1 PUSH1 0x2 ADD PUSH1 0x0 SWAP1 SLOAD SWAP1 PUSH2 0x100 EXP SWAP1 DIV PUSH20 0xFFFFFFFFFFFFFFFFFFFFFFFFFFFFFFFFFFFFFFFF AND PUSH20 0xFFFFFFFFFFFFFFFFFFFFFFFFFFFFFFFFFFFFFFFF AND PUSH2 0x8FC DUP3 PUSH1 0x1 ADD SLOAD SWAP1 DUP2 ISZERO MUL SWAP1 PUSH1 0x40 MLOAD PUSH1 0x0 PUSH1 0x40 MLOAD DUP1 DUP4 SUB DUP2 DUP6 DUP9 DUP9 CALL SWAP4 POP POP POP POP ISZERO DUP1 ISZERO PUSH2 0x3CC JUMPI RETURNDATASIZE PUSH1 0x0 DUP1 RETURNDATACOPY RETURNDATASIZE PUSH1 0x0 REVERT JUMPDEST POP PUSH1 0x1 DUP2 PUSH1 0x2 ADD PUSH1 0x14 PUSH2 0x100 EXP DUP2 SLOAD DUP2 PUSH1 0xFF MUL NOT AND SWAP1 DUP4 ISZERO ISZERO MUL OR SWAP1 SSTORE POP POP POP JUMP JUMPDEST PUSH1 0x2 PUSH1 0x20 MSTORE DUP1 PUSH1 0x0 MSTORE PUSH1 0x40 PUSH1 0x0 KECCAK256 PUSH1 0x0 SWAP2 POP SLOAD SWAP1 PUSH2 0x100 EXP SWAP1 DIV PUSH1 0xFF AND DUP2 JUMP JUMPDEST PUSH1 0x0 PUSH1 0x4 SLOAD SWAP1 POP SWAP1 JUMP JUMPDEST PUSH1 0x0 DUP1 PUSH1 0x0 DUP1 PUSH1 0x0 PUSH1 0x1 SLOAD SELFBALANCE PUSH1 0x4 SLOAD PUSH1 0x3 SLOAD PUSH1 0x0 DUP1 SLOAD SWAP1 PUSH2 0x100 EXP SWAP1 DIV PUSH20 0xFFFFFFFFFFFFFFFFFFFFFFFFFFFFFFFFFFFFFFFF AND SWAP5 POP SWAP5 POP SWAP5 POP SWAP5 POP SWAP5 POP SWAP1 SWAP2 SWAP3 SWAP4 SWAP5 JUMP JUMPDEST PUSH1 0x0 PUSH1 0x5 PUSH1 0x0 DUP4 DUP2 MSTORE PUSH1 0x20 ADD SWAP1 DUP2 MSTORE PUSH1 0x20 ADD PUSH1 0x0 KECCAK256 SWAP1 POP PUSH1 0x2 PUSH1 0x0 CALLER PUSH20 0xFFFFFFFFFFFFFFFFFFFFFFFFFFFFFFFFFFFFFFFF AND PUSH20 0xFFFFFFFFFFFFFFFFFFFFFFFFFFFFFFFFFFFFFFFF AND DUP2 MSTORE PUSH1 0x20 ADD SWAP1 DUP2 MSTORE PUSH1 0x20 ADD PUSH1 0x0 KECCAK256 PUSH1 0x0 SWAP1 SLOAD SWAP1 PUSH2 0x100 EXP SWAP1 DIV PUSH1 0xFF AND PUSH2 0x4C9 JUMPI PUSH1 0x0 DUP1 REVERT JUMPDEST DUP1 PUSH1 0x3 ADD PUSH1 0x0 CALLER PUSH20 0xFFFFFFFFFFFFFFFFFFFFFFFFFFFFFFFFFFFFFFFF AND PUSH20 0xFFFFFFFFFFFFFFFFFFFFFFFFFFFFFFFFFFFFFFFF AND DUP2 MSTORE PUSH1 0x20 ADD SWAP1 DUP2 MSTORE PUSH1 0x20 ADD PUSH1 0x0 KECCAK256 PUSH1 0x0 SWAP1 SLOAD SWAP1 PUSH2 0x100 EXP SWAP1 DIV PUSH1 0xFF AND ISZERO PUSH2 0x522 JUMPI PUSH1 0x0 DUP1 REVERT JUMPDEST PUSH1 0x1 DUP2 PUSH1 0x3 ADD PUSH1 0x0 CALLER PUSH20 0xFFFFFFFFFFFFFFFFFFFFFFFFFFFFFFFFFFFFFFFF AND PUSH20 0xFFFFFFFFFFFFFFFFFFFFFFFFFFFFFFFFFFFFFFFF AND DUP2 MSTORE PUSH1 0x20 ADD SWAP1 DUP2 MSTORE PUSH1 0x20 ADD PUSH1 0x0 KECCAK256 PUSH1 0x0 PUSH2 0x100 EXP DUP2 SLOAD DUP2 PUSH1 0xFF MUL NOT AND SWAP1 DUP4 ISZERO ISZERO MUL OR SWAP1 SSTORE POP DUP1 PUSH1 0x4 ADD PUSH1 0x0 DUP2 SLOAD DUP1 SWAP3 SWAP2 SWAP1 PUSH2 0x591 SWAP1 PUSH2 0xD46 JUMP JUMPDEST SWAP2 SWAP1 POP SSTORE POP POP POP JUMP JUMPDEST PUSH1 0x5 PUSH1 0x20 MSTORE DUP1 PUSH1 0x0 MSTORE PUSH1 0x40 PUSH1 0x0 KECCAK256 PUSH1 0x0 SWAP2 POP SWAP1 POP DUP1 PUSH1 0x0 ADD DUP1 SLOAD PUSH2 0x5BD SWAP1 PUSH2 0xD14 JUMP JUMPDEST DUP1 PUSH1 0x1F ADD PUSH1 0x20 DUP1 SWAP2 DIV MUL PUSH1 0x20 ADD PUSH1 0x40 MLOAD SWAP1 DUP2 ADD PUSH1 0x40 MSTORE DUP1 SWAP3 SWAP2 SWAP1 DUP2 DUP2 MSTORE PUSH1 0x20 ADD DUP3 DUP1 SLOAD PUSH2 0x5E9 SWAP1 PUSH2 0xD14 JUMP JUMPDEST DUP1 ISZERO PUSH2 0x636 JUMPI DUP1 PUSH1 0x1F LT PUSH2 0x60B JUMPI PUSH2 0x100 DUP1 DUP4 SLOAD DIV MUL DUP4 MSTORE SWAP2 PUSH1 0x20 ADD SWAP2 PUSH2 0x636 JUMP JUMPDEST DUP3 ADD SWAP2 SWAP1 PUSH1 0x0 MSTORE PUSH1 0x20 PUSH1 0x0 KECCAK256 SWAP1 JUMPDEST DUP2 SLOAD DUP2 MSTORE SWAP1 PUSH1 0x1 ADD SWAP1 PUSH1 0x20 ADD DUP1 DUP4 GT PUSH2 0x619 JUMPI DUP3 SWAP1 SUB PUSH1 0x1F AND DUP3 ADD SWAP2 JUMPDEST POP POP POP POP POP SWAP1 DUP1 PUSH1 0x1 ADD SLOAD SWAP1 DUP1 PUSH1 0x2 ADD PUSH1 0x0 SWAP1 SLOAD SWAP1 PUSH2 0x100 EXP SWAP1 DIV PUSH20 0xFFFFFFFFFFFFFFFFFFFFFFFFFFFFFFFFFFFFFFFF AND SWAP1 DUP1 PUSH1 0x2 ADD PUSH1 0x14 SWAP1 SLOAD SWAP1 PUSH2 0x100 EXP SWAP1 DIV PUSH1 0xFF AND SWAP1 DUP1 PUSH1 0x4 ADD SLOAD SWAP1 POP DUP6 JUMP JUMPDEST PUSH1 0x0 DUP1 SLOAD SWAP1 PUSH2 0x100 EXP SWAP1 DIV PUSH20 0xFFFFFFFFFFFFFFFFFFFFFFFFFFFFFFFFFFFFFFFF AND PUSH20 0xFFFFFFFFFFFFFFFFFFFFFFFFFFFFFFFFFFFFFFFF AND CALLER PUSH20 0xFFFFFFFFFFFFFFFFFFFFFFFFFFFFFFFFFFFFFFFF AND EQ PUSH2 0x713 JUMPI PUSH1 0x40 MLOAD PUSH32 0x8C379A000000000000000000000000000000000000000000000000000000000 DUP2 MSTORE PUSH1 0x4 ADD PUSH2 0x70A SWAP1 PUSH2 0xBAC JUMP JUMPDEST PUSH1 0x40 MLOAD DUP1 SWAP2 SUB SWAP1 REVERT JUMPDEST PUSH1 0x0 PUSH1 0x5 PUSH1 0x0 PUSH1 0x4 PUSH1 0x0 DUP2 SLOAD DUP1 SWAP3 SWAP2 SWAP1 PUSH2 0x72C SWAP1 PUSH2 0xD46 JUMP JUMPDEST SWAP2 SWAP1 POP SSTORE DUP2 MSTORE PUSH1 0x20 ADD SWAP1 DUP2 MSTORE PUSH1 0x20 ADD PUSH1 0x0 KECCAK256 SWAP1 POP DUP5 DUP5 DUP3 PUSH1 0x0 ADD SWAP2 SWAP1 PUSH2 0x753 SWAP3 SWAP2 SWAP1 PUSH2 0x87E JUMP JUMPDEST POP DUP3 DUP2 PUSH1 0x1 ADD DUP2 SWAP1 SSTORE POP DUP2 DUP2 PUSH1 0x2 ADD PUSH1 0x0 PUSH2 0x100 EXP DUP2 SLOAD DUP2 PUSH20 0xFFFFFFFFFFFFFFFFFFFFFFFFFFFFFFFFFFFFFFFF MUL NOT AND SWAP1 DUP4 PUSH20 0xFFFFFFFFFFFFFFFFFFFFFFFFFFFFFFFFFFFFFFFF AND MUL OR SWAP1 SSTORE POP PUSH1 0x0 DUP2 PUSH1 0x2 ADD PUSH1 0x14 PUSH2 0x100 EXP DUP2 SLOAD DUP2 PUSH1 0xFF MUL NOT AND SWAP1 DUP4 ISZERO ISZERO MUL OR SWAP1 SSTORE POP PUSH1 0x0 DUP2 PUSH1 0x4 ADD DUP2 SWAP1 SSTORE POP POP POP POP POP POP JUMP JUMPDEST PUSH1 0x0 DUP1 SLOAD SWAP1 PUSH2 0x100 EXP SWAP1 DIV PUSH20 0xFFFFFFFFFFFFFFFFFFFFFFFFFFFFFFFFFFFFFFFF AND DUP2 JUMP JUMPDEST PUSH1 0x3 SLOAD DUP2 JUMP JUMPDEST PUSH1 0x1 SLOAD DUP2 JUMP JUMPDEST PUSH1 0x1 SLOAD CALLVALUE GT PUSH2 0x80C JUMPI PUSH1 0x0 DUP1 REVERT JUMPDEST PUSH1 0x1 PUSH1 0x2 PUSH1 0x0 CALLER PUSH20 0xFFFFFFFFFFFFFFFFFFFFFFFFFFFFFFFFFFFFFFFF AND PUSH20 0xFFFFFFFFFFFFFFFFFFFFFFFFFFFFFFFFFFFFFFFF AND DUP2 MSTORE PUSH1 0x20 ADD SWAP1 DUP2 MSTORE PUSH1 0x20 ADD PUSH1 0x0 KECCAK256 PUSH1 0x0 PUSH2 0x100 EXP DUP2 SLOAD DUP2 PUSH1 0xFF MUL NOT AND SWAP1 DUP4 ISZERO ISZERO MUL OR SWAP1 SSTORE POP PUSH1 0x3 PUSH1 0x0 DUP2 SLOAD DUP1 SWAP3 SWAP2 SWAP1 PUSH2 0x877 SWAP1 PUSH2 0xD46 JUMP JUMPDEST SWAP2 SWAP1 POP SSTORE POP JUMP JUMPDEST DUP3 DUP1 SLOAD PUSH2 0x88A SWAP1 PUSH2 0xD14 JUMP JUMPDEST SWAP1 PUSH1 0x0 MSTORE PUSH1 0x20 PUSH1 0x0 KECCAK256 SWAP1 PUSH1 0x1F ADD PUSH1 0x20 SWAP1 DIV DUP2 ADD SWAP3 DUP3 PUSH2 0x8AC JUMPI PUSH1 0x0 DUP6 SSTORE PUSH2 0x8F3 JUMP JUMPDEST DUP3 PUSH1 0x1F LT PUSH2 0x8C5 JUMPI DUP1 CALLDATALOAD PUSH1 0xFF NOT AND DUP4 DUP1 ADD OR DUP6 SSTORE PUSH2 0x8F3 JUMP JUMPDEST DUP3 DUP1 ADD PUSH1 0x1 ADD DUP6 SSTORE DUP3 ISZERO PUSH2 0x8F3 JUMPI SWAP2 DUP3 ADD JUMPDEST DUP3 DUP2 GT ISZERO PUSH2 0x8F2 JUMPI DUP3 CALLDATALOAD DUP3 SSTORE SWAP2 PUSH1 0x20 ADD SWAP2 SWAP1 PUSH1 0x1 ADD SWAP1 PUSH2 0x8D7 JUMP JUMPDEST JUMPDEST POP SWAP1 POP PUSH2 0x900 SWAP2 SWAP1 PUSH2 0x904 JUMP JUMPDEST POP SWAP1 JUMP JUMPDEST JUMPDEST DUP1 DUP3 GT ISZERO PUSH2 0x91D JUMPI PUSH1 0x0 DUP2 PUSH1 0x0 SWAP1 SSTORE POP PUSH1 0x1 ADD PUSH2 0x905 JUMP JUMPDEST POP SWAP1 JUMP JUMPDEST PUSH1 0x0 DUP2 CALLDATALOAD SWAP1 POP PUSH2 0x930 DUP2 PUSH2 0xE6F JUMP JUMPDEST SWAP3 SWAP2 POP POP JUMP JUMPDEST PUSH1 0x0 DUP2 CALLDATALOAD SWAP1 POP PUSH2 0x945 DUP2 PUSH2 0xE86 JUMP JUMPDEST SWAP3 SWAP2 POP POP JUMP JUMPDEST PUSH1 0x0 DUP1 DUP4 PUSH1 0x1F DUP5 ADD SLT PUSH2 0x961 JUMPI PUSH2 0x960 PUSH2 0xE21 JUMP JUMPDEST JUMPDEST DUP3 CALLDATALOAD SWAP1 POP PUSH8 0xFFFFFFFFFFFFFFFF DUP2 GT ISZERO PUSH2 0x97E JUMPI PUSH2 0x97D PUSH2 0xE1C JUMP JUMPDEST JUMPDEST PUSH1 0x20 DUP4 ADD SWAP2 POP DUP4 PUSH1 0x1 DUP3 MUL DUP4 ADD GT ISZERO PUSH2 0x99A JUMPI PUSH2 0x999 PUSH2 0xE26 JUMP JUMPDEST JUMPDEST SWAP3 POP SWAP3 SWAP1 POP JUMP JUMPDEST PUSH1 0x0 DUP2 CALLDATALOAD SWAP1 POP PUSH2 0x9B0 DUP2 PUSH2 0xE9D JUMP JUMPDEST SWAP3 SWAP2 POP POP JUMP JUMPDEST PUSH1 0x0 PUSH1 0x20 DUP3 DUP5 SUB SLT ISZERO PUSH2 0x9CC JUMPI PUSH2 0x9CB PUSH2 0xE30 JUMP JUMPDEST JUMPDEST PUSH1 0x0 PUSH2 0x9DA DUP5 DUP3 DUP6 ADD PUSH2 0x921 JUMP JUMPDEST SWAP2 POP POP SWAP3 SWAP2 POP POP JUMP JUMPDEST PUSH1 0x0 DUP1 PUSH1 0x0 DUP1 PUSH1 0x60 DUP6 DUP8 SUB SLT ISZERO PUSH2 0x9FD JUMPI PUSH2 0x9FC PUSH2 0xE30 JUMP JUMPDEST JUMPDEST PUSH1 0x0 DUP6 ADD CALLDATALOAD PUSH8 0xFFFFFFFFFFFFFFFF DUP2 GT ISZERO PUSH2 0xA1B JUMPI PUSH2 0xA1A PUSH2 0xE2B JUMP JUMPDEST JUMPDEST PUSH2 0xA27 DUP8 DUP3 DUP9 ADD PUSH2 0x94B JUMP JUMPDEST SWAP5 POP SWAP5 POP POP PUSH1 0x20 PUSH2 0xA3A DUP8 DUP3 DUP9 ADD PUSH2 0x9A1 JUMP JUMPDEST SWAP3 POP POP PUSH1 0x40 PUSH2 0xA4B DUP8 DUP3 DUP9 ADD PUSH2 0x936 JUMP JUMPDEST SWAP2 POP POP SWAP3 SWAP6 SWAP2 SWAP5 POP SWAP3 POP JUMP JUMPDEST PUSH1 0x0 PUSH1 0x20 DUP3 DUP5 SUB SLT ISZERO PUSH2 0xA6D JUMPI PUSH2 0xA6C PUSH2 0xE30 JUMP JUMPDEST JUMPDEST PUSH1 0x0 PUSH2 0xA7B DUP5 DUP3 DUP6 ADD PUSH2 0x9A1 JUMP JUMPDEST SWAP2 POP POP SWAP3 SWAP2 POP POP JUMP JUMPDEST PUSH2 0xA8D DUP2 PUSH2 0xC99 JUMP JUMPDEST DUP3 MSTORE POP POP JUMP JUMPDEST PUSH2 0xA9C DUP2 PUSH2 0xC87 JUMP JUMPDEST DUP3 MSTORE POP POP JUMP JUMPDEST PUSH2 0xAAB DUP2 PUSH2 0xCAB JUMP JUMPDEST DUP3 MSTORE POP POP JUMP JUMPDEST PUSH1 0x0 PUSH2 0xABC DUP3 PUSH2 0xC3A JUMP JUMPDEST PUSH2 0xAC6 DUP2 DUP6 PUSH2 0xC45 JUMP JUMPDEST SWAP4 POP PUSH2 0xAD6 DUP2 DUP6 PUSH1 0x20 DUP7 ADD PUSH2 0xCE1 JUMP JUMPDEST PUSH2 0xADF DUP2 PUSH2 0xE35 JUMP JUMPDEST DUP5 ADD SWAP2 POP POP SWAP3 SWAP2 POP POP JUMP JUMPDEST PUSH1 0x0 PUSH2 0xAF7 PUSH1 0x1E DUP4 PUSH2 0xC45 JUMP JUMPDEST SWAP2 POP PUSH2 0xB02 DUP3 PUSH2 0xE46 JUMP JUMPDEST PUSH1 0x20 DUP3 ADD SWAP1 POP SWAP2 SWAP1 POP JUMP JUMPDEST PUSH2 0xB16 DUP2 PUSH2 0xCD7 JUMP JUMPDEST DUP3 MSTORE POP POP JUMP JUMPDEST PUSH1 0x0 PUSH1 0x20 DUP3 ADD SWAP1 POP PUSH2 0xB31 PUSH1 0x0 DUP4 ADD DUP5 PUSH2 0xA93 JUMP JUMPDEST SWAP3 SWAP2 POP POP JUMP JUMPDEST PUSH1 0x0 PUSH1 0x20 DUP3 ADD SWAP1 POP PUSH2 0xB4C PUSH1 0x0 DUP4 ADD DUP5 PUSH2 0xAA2 JUMP JUMPDEST SWAP3 SWAP2 POP POP JUMP JUMPDEST PUSH1 0x0 PUSH1 0xA0 DUP3 ADD SWAP1 POP DUP2 DUP2 SUB PUSH1 0x0 DUP4 ADD MSTORE PUSH2 0xB6C DUP2 DUP9 PUSH2 0xAB1 JUMP JUMPDEST SWAP1 POP PUSH2 0xB7B PUSH1 0x20 DUP4 ADD DUP8 PUSH2 0xB0D JUMP JUMPDEST PUSH2 0xB88 PUSH1 0x40 DUP4 ADD DUP7 PUSH2 0xA84 JUMP JUMPDEST PUSH2 0xB95 PUSH1 0x60 DUP4 ADD DUP6 PUSH2 0xAA2 JUMP JUMPDEST PUSH2 0xBA2 PUSH1 0x80 DUP4 ADD DUP5 PUSH2 0xB0D JUMP JUMPDEST SWAP7 SWAP6 POP POP POP POP POP POP JUMP JUMPDEST PUSH1 0x0 PUSH1 0x20 DUP3 ADD SWAP1 POP DUP2 DUP2 SUB PUSH1 0x0 DUP4 ADD MSTORE PUSH2 0xBC5 DUP2 PUSH2 0xAEA JUMP JUMPDEST SWAP1 POP SWAP2 SWAP1 POP JUMP JUMPDEST PUSH1 0x0 PUSH1 0x20 DUP3 ADD SWAP1 POP PUSH2 0xBE1 PUSH1 0x0 DUP4 ADD DUP5 PUSH2 0xB0D JUMP JUMPDEST SWAP3 SWAP2 POP POP JUMP JUMPDEST PUSH1 0x0 PUSH1 0xA0 DUP3 ADD SWAP1 POP PUSH2 0xBFC PUSH1 0x0 DUP4 ADD DUP9 PUSH2 0xB0D JUMP JUMPDEST PUSH2 0xC09 PUSH1 0x20 DUP4 ADD DUP8 PUSH2 0xB0D JUMP JUMPDEST PUSH2 0xC16 PUSH1 0x40 DUP4 ADD DUP7 PUSH2 0xB0D JUMP JUMPDEST PUSH2 0xC23 PUSH1 0x60 DUP4 ADD DUP6 PUSH2 0xB0D JUMP JUMPDEST PUSH2 0xC30 PUSH1 0x80 DUP4 ADD DUP5 PUSH2 0xA93 JUMP JUMPDEST SWAP7 SWAP6 POP POP POP POP POP POP JUMP JUMPDEST PUSH1 0x0 DUP2 MLOAD SWAP1 POP SWAP2 SWAP1 POP JUMP JUMPDEST PUSH1 0x0 DUP3 DUP3 MSTORE PUSH1 0x20 DUP3 ADD SWAP1 POP SWAP3 SWAP2 POP POP JUMP JUMPDEST PUSH1 0x0 PUSH2 0xC61 DUP3 PUSH2 0xCD7 JUMP JUMPDEST SWAP2 POP PUSH2 0xC6C DUP4 PUSH2 0xCD7 JUMP JUMPDEST SWAP3 POP DUP3 PUSH2 0xC7C JUMPI PUSH2 0xC7B PUSH2 0xDBE JUMP JUMPDEST JUMPDEST DUP3 DUP3 DIV SWAP1 POP SWAP3 SWAP2 POP POP JUMP JUMPDEST PUSH1 0x0 PUSH2 0xC92 DUP3 PUSH2 0xCB7 JUMP JUMPDEST SWAP1 POP SWAP2 SWAP1 POP JUMP JUMPDEST PUSH1 0x0 PUSH2 0xCA4 DUP3 PUSH2 0xCB7 JUMP JUMPDEST SWAP1 POP SWAP2 SWAP1 POP JUMP JUMPDEST PUSH1 0x0 DUP2 ISZERO ISZERO SWAP1 POP SWAP2 SWAP1 POP JUMP JUMPDEST PUSH1 0x0 PUSH20 0xFFFFFFFFFFFFFFFFFFFFFFFFFFFFFFFFFFFFFFFF DUP3 AND SWAP1 POP SWAP2 SWAP1 POP JUMP JUMPDEST PUSH1 0x0 DUP2 SWAP1 POP SWAP2 SWAP1 POP JUMP JUMPDEST PUSH1 0x0 JUMPDEST DUP4 DUP2 LT ISZERO PUSH2 0xCFF JUMPI DUP1 DUP3 ADD MLOAD DUP2 DUP5 ADD MSTORE PUSH1 0x20 DUP2 ADD SWAP1 POP PUSH2 0xCE4 JUMP JUMPDEST DUP4 DUP2 GT ISZERO PUSH2 0xD0E JUMPI PUSH1 0x0 DUP5 DUP5 ADD MSTORE JUMPDEST POP POP POP POP JUMP JUMPDEST PUSH1 0x0 PUSH1 0x2 DUP3 DIV SWAP1 POP PUSH1 0x1 DUP3 AND DUP1 PUSH2 0xD2C JUMPI PUSH1 0x7F DUP3 AND SWAP2 POP JUMPDEST PUSH1 0x20 DUP3 LT DUP2 EQ ISZERO PUSH2 0xD40 JUMPI PUSH2 0xD3F PUSH2 0xDED JUMP JUMPDEST JUMPDEST POP SWAP2 SWAP1 POP JUMP JUMPDEST PUSH1 0x0 PUSH2 0xD51 DUP3 PUSH2 0xCD7 JUMP JUMPDEST SWAP2 POP PUSH32 0xFFFFFFFFFFFFFFFFFFFFFFFFFFFFFFFFFFFFFFFFFFFFFFFFFFFFFFFFFFFFFFFF DUP3 EQ ISZERO PUSH2 0xD84 JUMPI PUSH2 0xD83 PUSH2 0xD8F JUMP JUMPDEST JUMPDEST PUSH1 0x1 DUP3 ADD SWAP1 POP SWAP2 SWAP1 POP JUMP JUMPDEST PUSH32 0x4E487B7100000000000000000000000000000000000000000000000000000000 PUSH1 0x0 MSTORE PUSH1 0x11 PUSH1 0x4 MSTORE PUSH1 0x24 PUSH1 0x0 REVERT JUMPDEST PUSH32 0x4E487B7100000000000000000000000000000000000000000000000000000000 PUSH1 0x0 MSTORE PUSH1 0x12 PUSH1 0x4 MSTORE PUSH1 0x24 PUSH1 0x0 REVERT JUMPDEST PUSH32 0x4E487B7100000000000000000000000000000000000000000000000000000000 PUSH1 0x0 MSTORE PUSH1 0x22 PUSH1 0x4 MSTORE PUSH1 0x24 PUSH1 0x0 REVERT JUMPDEST PUSH1 0x0 DUP1 REVERT JUMPDEST PUSH1 0x0 DUP1 REVERT JUMPDEST PUSH1 0x0 DUP1 REVERT JUMPDEST PUSH1 0x0 DUP1 REVERT JUMPDEST PUSH1 0x0 DUP1 REVERT JUMPDEST PUSH1 0x0 PUSH1 0x1F NOT PUSH1 0x1F DUP4 ADD AND SWAP1 POP SWAP2 SWAP1 POP JUMP JUMPDEST PUSH32 0x4F6E6C79206F776E65722063616E206372656174652063616D706169676E0000 PUSH1 0x0 DUP3 ADD MSTORE POP JUMP JUMPDEST PUSH2 0xE78 DUP2 PUSH2 0xC87 JUMP JUMPDEST DUP2 EQ PUSH2 0xE83 JUMPI PUSH1 0x0 DUP1 REVERT JUMPDEST POP JUMP JUMPDEST PUSH2 0xE8F DUP2 PUSH2 0xC99 JUMP JUMPDEST DUP2 EQ PUSH2 0xE9A JUMPI PUSH1 0x0 DUP1 REVERT JUMPDEST POP JUMP JUMPDEST PUSH2 0xEA6 DUP2 PUSH2 0xCD7 JUMP JUMPDEST DUP2 EQ PUSH2 0xEB1 JUMPI PUSH1 0x0 DUP1 REVERT JUMPDEST POP JUMP INVALID LOG2 PUSH5 0x6970667358 0x22 SLT KECCAK256 DUP12 SWAP4 CODESIZE 0xE8 0xDB PUSH25 0x3222CE42F6108918902D1E5E1EB5FF53FF436AD205FEE670B3 SWAP16 PUSH5 0x736F6C6343 STOP ADDMOD SMOD STOP CALLER "
				},
				"gasEstimates": {
					"creation": {
						"codeDepositCost": "763600",
						"executionCost": "infinite",
						"totalCost": "infinite"
					},
					"external": {
						"approveRequests(uint256)": "infinite",
						"approvers(address)": "2868",
						"contribute()": "51068",
						"createRequest(string,uint256,address)": "infinite",
						"finalizeRequest(uint256)": "infinite",
						"getRequestsCount()": "2482",
						"getSummary()": "infinite",
						"minContribution()": "2517",
						"owner()": "2555",
						"requests(uint256)": "infinite",
						"votersCount()": "2495"
					}
				},
				"methodIdentifiers": {
					"approveRequests(uint256)": "4e08ac85",
					"approvers(address)": "0a144391",
					"contribute()": "d7bb99ba",
					"createRequest(string,uint256,address)": "8a9cfd55",
					"finalizeRequest(uint256)": "03441006",
					"getRequestsCount()": "3410452a",
					"getSummary()": "4051ddac",
					"minContribution()": "aaffadf3",
					"owner()": "8da5cb5b",
					"requests(uint256)": "81d12c58",
					"votersCount()": "98c07938"
				}
			},
			"storageLayout": {
				"storage": [
					{
						"astId": 57,
						"contract": "crowdfund/SmartContract/contracts.sol:FundRaise",
						"label": "owner",
						"offset": 0,
						"slot": "0",
						"type": "t_address"
					},
					{
						"astId": 59,
						"contract": "crowdfund/SmartContract/contracts.sol:FundRaise",
						"label": "minContribution",
						"offset": 0,
						"slot": "1",
						"type": "t_uint256"
					},
					{
						"astId": 63,
						"contract": "crowdfund/SmartContract/contracts.sol:FundRaise",
						"label": "approvers",
						"offset": 0,
						"slot": "2",
						"type": "t_mapping(t_address,t_bool)"
					},
					{
						"astId": 65,
						"contract": "crowdfund/SmartContract/contracts.sol:FundRaise",
						"label": "votersCount",
						"offset": 0,
						"slot": "3",
						"type": "t_uint256"
					},
					{
						"astId": 67,
						"contract": "crowdfund/SmartContract/contracts.sol:FundRaise",
						"label": "numRequests",
						"offset": 0,
						"slot": "4",
						"type": "t_uint256"
					},
					{
						"astId": 72,
						"contract": "crowdfund/SmartContract/contracts.sol:FundRaise",
						"label": "requests",
						"offset": 0,
						"slot": "5",
						"type": "t_mapping(t_uint256,t_struct(Request)55_storage)"
					}
				],
				"types": {
					"t_address": {
						"encoding": "inplace",
						"label": "address",
						"numberOfBytes": "20"
					},
					"t_address_payable": {
						"encoding": "inplace",
						"label": "address payable",
						"numberOfBytes": "20"
					},
					"t_bool": {
						"encoding": "inplace",
						"label": "bool",
						"numberOfBytes": "1"
					},
					"t_mapping(t_address,t_bool)": {
						"encoding": "mapping",
						"key": "t_address",
						"label": "mapping(address => bool)",
						"numberOfBytes": "32",
						"value": "t_bool"
					},
					"t_mapping(t_uint256,t_struct(Request)55_storage)": {
						"encoding": "mapping",
						"key": "t_uint256",
						"label": "mapping(uint256 => struct FundRaise.Request)",
						"numberOfBytes": "32",
						"value": "t_struct(Request)55_storage"
					},
					"t_string_storage": {
						"encoding": "bytes",
						"label": "string",
						"numberOfBytes": "32"
					},
					"t_struct(Request)55_storage": {
						"encoding": "inplace",
						"label": "struct FundRaise.Request",
						"members": [
							{
								"astId": 42,
								"contract": "crowdfund/SmartContract/contracts.sol:FundRaise",
								"label": "description",
								"offset": 0,
								"slot": "0",
								"type": "t_string_storage"
							},
							{
								"astId": 44,
								"contract": "crowdfund/SmartContract/contracts.sol:FundRaise",
								"label": "value",
								"offset": 0,
								"slot": "1",
								"type": "t_uint256"
							},
							{
								"astId": 46,
								"contract": "crowdfund/SmartContract/contracts.sol:FundRaise",
								"label": "recipient",
								"offset": 0,
								"slot": "2",
								"type": "t_address_payable"
							},
							{
								"astId": 48,
								"contract": "crowdfund/SmartContract/contracts.sol:FundRaise",
								"label": "complete",
								"offset": 20,
								"slot": "2",
								"type": "t_bool"
							},
							{
								"astId": 52,
								"contract": "crowdfund/SmartContract/contracts.sol:FundRaise",
								"label": "approvals",
								"offset": 0,
								"slot": "3",
								"type": "t_mapping(t_address,t_bool)"
							},
							{
								"astId": 54,
								"contract": "crowdfund/SmartContract/contracts.sol:FundRaise",
								"label": "approvalsCount",
								"offset": 0,
								"slot": "4",
								"type": "t_uint256"
							}
						],
						"numberOfBytes": "160"
					},
					"t_uint256": {
						"encoding": "inplace",
						"label": "uint256",
						"numberOfBytes": "32"
					}
				}
			},
			"userdoc": {
				"kind": "user",
				"methods": {},
				"version": 1
			}
		}
	}
}