{
	"crowdfund/SmartContract/contracts.sol": {
		"FundRaise": {
			"abi": [
				{
					"inputs": [
						{
							"internalType": "uint256",
							"name": "minimum",
							"type": "uint256"
						},
						{
							"internalType": "address",
							"name": "campaignOwner",
							"type": "address"
						}
					],
					"stateMutability": "nonpayable",
					"type": "constructor"
				},
				{
					"inputs": [
						{
							"internalType": "uint256",
							"name": "index",
							"type": "uint256"
						}
					],
					"name": "approveRequests",
					"outputs": [],
					"stateMutability": "nonpayable",
					"type": "function"
				},
				{
					"inputs": [
						{
							"internalType": "address",
							"name": "",
							"type": "address"
						}
					],
					"name": "approvers",
					"outputs": [
						{
							"internalType": "bool",
							"name": "",
							"type": "bool"
						}
					],
					"stateMutability": "view",
					"type": "function"
				},
				{
					"inputs": [],
					"name": "contribute",
					"outputs": [],
					"stateMutability": "payable",
					"type": "function"
				},
				{
					"inputs": [
						{
							"internalType": "string",
							"name": "desc",
							"type": "string"
						},
						{
							"internalType": "uint256",
							"name": "val",
							"type": "uint256"
						},
						{
							"internalType": "address payable",
							"name": "recip",
							"type": "address"
						}
					],
					"name": "createRequest",
					"outputs": [],
					"stateMutability": "nonpayable",
					"type": "function"
				},
				{
					"inputs": [
						{
							"internalType": "uint256",
							"name": "index",
							"type": "uint256"
						}
					],
					"name": "finalizeRequest",
					"outputs": [],
					"stateMutability": "nonpayable",
					"type": "function"
				},
				{
					"inputs": [],
					"name": "minContribution",
					"outputs": [
						{
							"internalType": "uint256",
							"name": "",
							"type": "uint256"
						}
					],
					"stateMutability": "view",
					"type": "function"
				},
				{
					"inputs": [],
					"name": "owner",
					"outputs": [
						{
							"internalType": "address",
							"name": "",
							"type": "address"
						}
					],
					"stateMutability": "view",
					"type": "function"
				},
				{
					"inputs": [
						{
							"internalType": "uint256",
							"name": "",
							"type": "uint256"
						}
					],
					"name": "requests",
					"outputs": [
						{
							"internalType": "string",
							"name": "description",
							"type": "string"
						},
						{
							"internalType": "uint256",
							"name": "value",
							"type": "uint256"
						},
						{
							"internalType": "address payable",
							"name": "recipient",
							"type": "address"
						},
						{
							"internalType": "bool",
							"name": "complete",
							"type": "bool"
						},
						{
							"internalType": "uint256",
							"name": "approvalsCount",
							"type": "uint256"
						}
					],
					"stateMutability": "view",
					"type": "function"
				},
				{
					"inputs": [],
					"name": "votersCount",
					"outputs": [
						{
							"internalType": "uint256",
							"name": "",
							"type": "uint256"
						}
					],
					"stateMutability": "view",
					"type": "function"
				}
			],
			"devdoc": {
				"kind": "dev",
				"methods": {},
				"version": 1
			},
			"evm": {
				"assembly": "    /* \"crowdfund/SmartContract/contracts.sol\":536:2840  contract FundRaise {... */\n  mstore(0x40, 0x80)\n    /* \"crowdfund/SmartContract/contracts.sol\":1204:1325  constructor(uint minimum, address campaignOwner){... */\n  callvalue\n  dup1\n  iszero\n  tag_1\n  jumpi\n  0x00\n  dup1\n  revert\ntag_1:\n  pop\n  mload(0x40)\n  sub(codesize, bytecodeSize)\n  dup1\n  bytecodeSize\n  dup4\n  codecopy\n  dup2\n  dup2\n  add\n  0x40\n  mstore\n  dup2\n  add\n  swap1\n  tag_2\n  swap2\n  swap1\n  tag_3\n  jump\t// in\ntag_2:\n    /* \"crowdfund/SmartContract/contracts.sol\":1270:1283  campaignOwner */\n  dup1\n    /* \"crowdfund/SmartContract/contracts.sol\":1262:1267  owner */\n  0x00\n  dup1\n    /* \"crowdfund/SmartContract/contracts.sol\":1262:1283  owner = campaignOwner */\n  0x0100\n  exp\n  dup2\n  sload\n  dup2\n  0xffffffffffffffffffffffffffffffffffffffff\n  mul\n  not\n  and\n  swap1\n  dup4\n  0xffffffffffffffffffffffffffffffffffffffff\n  and\n  mul\n  or\n  swap1\n  sstore\n  pop\n    /* \"crowdfund/SmartContract/contracts.sol\":1311:1318  minimum */\n  dup2\n    /* \"crowdfund/SmartContract/contracts.sol\":1293:1308  minContribution */\n  0x01\n    /* \"crowdfund/SmartContract/contracts.sol\":1293:1318  minContribution = minimum */\n  dup2\n  swap1\n  sstore\n  pop\n    /* \"crowdfund/SmartContract/contracts.sol\":1204:1325  constructor(uint minimum, address campaignOwner){... */\n  pop\n  pop\n    /* \"crowdfund/SmartContract/contracts.sol\":536:2840  contract FundRaise {... */\n  jump(tag_6)\n    /* \"#utility.yul\":7:150   */\ntag_8:\n    /* \"#utility.yul\":64:69   */\n  0x00\n    /* \"#utility.yul\":95:101   */\n  dup2\n    /* \"#utility.yul\":89:102   */\n  mload\n    /* \"#utility.yul\":80:102   */\n  swap1\n  pop\n    /* \"#utility.yul\":111:144   */\n  tag_10\n    /* \"#utility.yul\":138:143   */\n  dup2\n    /* \"#utility.yul\":111:144   */\n  tag_11\n  jump\t// in\ntag_10:\n    /* \"#utility.yul\":7:150   */\n  swap3\n  swap2\n  pop\n  pop\n  jump\t// out\n    /* \"#utility.yul\":156:299   */\ntag_12:\n    /* \"#utility.yul\":213:218   */\n  0x00\n    /* \"#utility.yul\":244:250   */\n  dup2\n    /* \"#utility.yul\":238:251   */\n  mload\n    /* \"#utility.yul\":229:251   */\n  swap1\n  pop\n    /* \"#utility.yul\":260:293   */\n  tag_14\n    /* \"#utility.yul\":287:292   */\n  dup2\n    /* \"#utility.yul\":260:293   */\n  tag_15\n  jump\t// in\ntag_14:\n    /* \"#utility.yul\":156:299   */\n  swap3\n  swap2\n  pop\n  pop\n  jump\t// out\n    /* \"#utility.yul\":305:812   */\ntag_3:\n    /* \"#utility.yul\":384:390   */\n  0x00\n    /* \"#utility.yul\":392:398   */\n  dup1\n    /* \"#utility.yul\":441:443   */\n  0x40\n    /* \"#utility.yul\":429:438   */\n  dup4\n    /* \"#utility.yul\":420:427   */\n  dup6\n    /* \"#utility.yul\":416:439   */\n  sub\n    /* \"#utility.yul\":412:444   */\n  slt\n    /* \"#utility.yul\":409:528   */\n  iszero\n  tag_17\n  jumpi\n    /* \"#utility.yul\":447:526   */\n  tag_18\n  tag_19\n  jump\t// in\ntag_18:\n    /* \"#utility.yul\":409:528   */\ntag_17:\n    /* \"#utility.yul\":567:568   */\n  0x00\n    /* \"#utility.yul\":592:656   */\n  tag_20\n    /* \"#utility.yul\":648:655   */\n  dup6\n    /* \"#utility.yul\":639:645   */\n  dup3\n    /* \"#utility.yul\":628:637   */\n  dup7\n    /* \"#utility.yul\":624:646   */\n  add\n    /* \"#utility.yul\":592:656   */\n  tag_12\n  jump\t// in\ntag_20:\n    /* \"#utility.yul\":582:656   */\n  swap3\n  pop\n    /* \"#utility.yul\":538:666   */\n  pop\n    /* \"#utility.yul\":705:707   */\n  0x20\n    /* \"#utility.yul\":731:795   */\n  tag_21\n    /* \"#utility.yul\":787:794   */\n  dup6\n    /* \"#utility.yul\":778:784   */\n  dup3\n    /* \"#utility.yul\":767:776   */\n  dup7\n    /* \"#utility.yul\":763:785   */\n  add\n    /* \"#utility.yul\":731:795   */\n  tag_8\n  jump\t// in\ntag_21:\n    /* \"#utility.yul\":721:795   */\n  swap2\n  pop\n    /* \"#utility.yul\":676:805   */\n  pop\n    /* \"#utility.yul\":305:812   */\n  swap3\n  pop\n  swap3\n  swap1\n  pop\n  jump\t// out\n    /* \"#utility.yul\":899:995   */\ntag_24:\n    /* \"#utility.yul\":936:943   */\n  0x00\n    /* \"#utility.yul\":965:989   */\n  tag_26\n    /* \"#utility.yul\":983:988   */\n  dup3\n    /* \"#utility.yul\":965:989   */\n  tag_27\n  jump\t// in\ntag_26:\n    /* \"#utility.yul\":954:989   */\n  swap1\n  pop\n    /* \"#utility.yul\":899:995   */\n  swap2\n  swap1\n  pop\n  jump\t// out\n    /* \"#utility.yul\":1001:1127   */\ntag_27:\n    /* \"#utility.yul\":1038:1045   */\n  0x00\n    /* \"#utility.yul\":1078:1120   */\n  0xffffffffffffffffffffffffffffffffffffffff\n    /* \"#utility.yul\":1071:1076   */\n  dup3\n    /* \"#utility.yul\":1067:1121   */\n  and\n    /* \"#utility.yul\":1056:1121   */\n  swap1\n  pop\n    /* \"#utility.yul\":1001:1127   */\n  swap2\n  swap1\n  pop\n  jump\t// out\n    /* \"#utility.yul\":1133:1210   */\ntag_29:\n    /* \"#utility.yul\":1170:1177   */\n  0x00\n    /* \"#utility.yul\":1199:1204   */\n  dup2\n    /* \"#utility.yul\":1188:1204   */\n  swap1\n  pop\n    /* \"#utility.yul\":1133:1210   */\n  swap2\n  swap1\n  pop\n  jump\t// out\n    /* \"#utility.yul\":1339:1456   */\ntag_19:\n    /* \"#utility.yul\":1448:1449   */\n  0x00\n    /* \"#utility.yul\":1445:1446   */\n  dup1\n    /* \"#utility.yul\":1438:1450   */\n  revert\n    /* \"#utility.yul\":1462:1584   */\ntag_11:\n    /* \"#utility.yul\":1535:1559   */\n  tag_35\n    /* \"#utility.yul\":1553:1558   */\n  dup2\n    /* \"#utility.yul\":1535:1559   */\n  tag_24\n  jump\t// in\ntag_35:\n    /* \"#utility.yul\":1528:1533   */\n  dup2\n    /* \"#utility.yul\":1525:1560   */\n  eq\n    /* \"#utility.yul\":1515:1578   */\n  tag_36\n  jumpi\n    /* \"#utility.yul\":1574:1575   */\n  0x00\n    /* \"#utility.yul\":1571:1572   */\n  dup1\n    /* \"#utility.yul\":1564:1576   */\n  revert\n    /* \"#utility.yul\":1515:1578   */\ntag_36:\n    /* \"#utility.yul\":1462:1584   */\n  pop\n  jump\t// out\n    /* \"#utility.yul\":1590:1712   */\ntag_15:\n    /* \"#utility.yul\":1663:1687   */\n  tag_38\n    /* \"#utility.yul\":1681:1686   */\n  dup2\n    /* \"#utility.yul\":1663:1687   */\n  tag_29\n  jump\t// in\ntag_38:\n    /* \"#utility.yul\":1656:1661   */\n  dup2\n    /* \"#utility.yul\":1653:1688   */\n  eq\n    /* \"#utility.yul\":1643:1706   */\n  tag_39\n  jumpi\n    /* \"#utility.yul\":1702:1703   */\n  0x00\n    /* \"#utility.yul\":1699:1700   */\n  dup1\n    /* \"#utility.yul\":1692:1704   */\n  revert\n    /* \"#utility.yul\":1643:1706   */\ntag_39:\n    /* \"#utility.yul\":1590:1712   */\n  pop\n  jump\t// out\n    /* \"crowdfund/SmartContract/contracts.sol\":536:2840  contract FundRaise {... */\ntag_6:\n  dataSize(sub_0)\n  dup1\n  dataOffset(sub_0)\n  0x00\n  codecopy\n  0x00\n  return\nstop\n\nsub_0: assembly {\n        /* \"crowdfund/SmartContract/contracts.sol\":536:2840  contract FundRaise {... */\n      mstore(0x40, 0x80)\n      jumpi(tag_1, lt(calldatasize, 0x04))\n      shr(0xe0, calldataload(0x00))\n      dup1\n      0x8a9cfd55\n      gt\n      tag_11\n      jumpi\n      dup1\n      0x8a9cfd55\n      eq\n      tag_6\n      jumpi\n      dup1\n      0x8da5cb5b\n      eq\n      tag_7\n      jumpi\n      dup1\n      0x98c07938\n      eq\n      tag_8\n      jumpi\n      dup1\n      0xaaffadf3\n      eq\n      tag_9\n      jumpi\n      dup1\n      0xd7bb99ba\n      eq\n      tag_10\n      jumpi\n      jump(tag_1)\n    tag_11:\n      dup1\n      0x03441006\n      eq\n      tag_2\n      jumpi\n      dup1\n      0x0a144391\n      eq\n      tag_3\n      jumpi\n      dup1\n      0x4e08ac85\n      eq\n      tag_4\n      jumpi\n      dup1\n      0x81d12c58\n      eq\n      tag_5\n      jumpi\n    tag_1:\n      0x00\n      dup1\n      revert\n        /* \"crowdfund/SmartContract/contracts.sol\":2578:2836  function finalizeRequest (uint index) public isOwner{... */\n    tag_2:\n      callvalue\n      dup1\n      iszero\n      tag_12\n      jumpi\n      0x00\n      dup1\n      revert\n    tag_12:\n      pop\n      tag_13\n      0x04\n      dup1\n      calldatasize\n      sub\n      dup2\n      add\n      swap1\n      tag_14\n      swap2\n      swap1\n      tag_15\n      jump\t// in\n    tag_14:\n      tag_16\n      jump\t// in\n    tag_13:\n      stop\n        /* \"crowdfund/SmartContract/contracts.sol\":865:906  mapping(address => bool) public approvers */\n    tag_3:\n      callvalue\n      dup1\n      iszero\n      tag_17\n      jumpi\n      0x00\n      dup1\n      revert\n    tag_17:\n      pop\n      tag_18\n      0x04\n      dup1\n      calldatasize\n      sub\n      dup2\n      add\n      swap1\n      tag_19\n      swap2\n      swap1\n      tag_20\n      jump\t// in\n    tag_19:\n      tag_21\n      jump\t// in\n    tag_18:\n      mload(0x40)\n      tag_22\n      swap2\n      swap1\n      tag_23\n      jump\t// in\n    tag_22:\n      mload(0x40)\n      dup1\n      swap2\n      sub\n      swap1\n      return\n        /* \"crowdfund/SmartContract/contracts.sol\":2313:2572  function approveRequests(uint index) public {... */\n    tag_4:\n      callvalue\n      dup1\n      iszero\n      tag_24\n      jumpi\n      0x00\n      dup1\n      revert\n    tag_24:\n      pop\n      tag_25\n      0x04\n      dup1\n      calldatasize\n      sub\n      dup2\n      add\n      swap1\n      tag_26\n      swap2\n      swap1\n      tag_15\n      jump\t// in\n    tag_26:\n      tag_27\n      jump\t// in\n    tag_25:\n      stop\n        /* \"crowdfund/SmartContract/contracts.sol\":1001:1042  mapping (uint => Request) public requests */\n    tag_5:\n      callvalue\n      dup1\n      iszero\n      tag_28\n      jumpi\n      0x00\n      dup1\n      revert\n    tag_28:\n      pop\n      tag_29\n      0x04\n      dup1\n      calldatasize\n      sub\n      dup2\n      add\n      swap1\n      tag_30\n      swap2\n      swap1\n      tag_15\n      jump\t// in\n    tag_30:\n      tag_31\n      jump\t// in\n    tag_29:\n      mload(0x40)\n      tag_32\n      swap6\n      swap5\n      swap4\n      swap3\n      swap2\n      swap1\n      tag_33\n      jump\t// in\n    tag_32:\n      mload(0x40)\n      dup1\n      swap2\n      sub\n      swap1\n      return\n        /* \"crowdfund/SmartContract/contracts.sol\":1492:2307  function createRequest(string calldata desc, uint val, address payable recip) public isOwner {... */\n    tag_6:\n      callvalue\n      dup1\n      iszero\n      tag_34\n      jumpi\n      0x00\n      dup1\n      revert\n    tag_34:\n      pop\n      tag_35\n      0x04\n      dup1\n      calldatasize\n      sub\n      dup2\n      add\n      swap1\n      tag_36\n      swap2\n      swap1\n      tag_37\n      jump\t// in\n    tag_36:\n      tag_38\n      jump\t// in\n    tag_35:\n      stop\n        /* \"crowdfund/SmartContract/contracts.sol\":806:826  address public owner */\n    tag_7:\n      callvalue\n      dup1\n      iszero\n      tag_39\n      jumpi\n      0x00\n      dup1\n      revert\n    tag_39:\n      pop\n      tag_40\n      tag_41\n      jump\t// in\n    tag_40:\n      mload(0x40)\n      tag_42\n      swap2\n      swap1\n      tag_43\n      jump\t// in\n    tag_42:\n      mload(0x40)\n      dup1\n      swap2\n      sub\n      swap1\n      return\n        /* \"crowdfund/SmartContract/contracts.sol\":948:971  uint public votersCount */\n    tag_8:\n      callvalue\n      dup1\n      iszero\n      tag_44\n      jumpi\n      0x00\n      dup1\n      revert\n    tag_44:\n      pop\n      tag_45\n      tag_46\n      jump\t// in\n    tag_45:\n      mload(0x40)\n      tag_47\n      swap2\n      swap1\n      tag_48\n      jump\t// in\n    tag_47:\n      mload(0x40)\n      dup1\n      swap2\n      sub\n      swap1\n      return\n        /* \"crowdfund/SmartContract/contracts.sol\":832:859  uint public minContribution */\n    tag_9:\n      callvalue\n      dup1\n      iszero\n      tag_49\n      jumpi\n      0x00\n      dup1\n      revert\n    tag_49:\n      pop\n      tag_50\n      tag_51\n      jump\t// in\n    tag_50:\n      mload(0x40)\n      tag_52\n      swap2\n      swap1\n      tag_48\n      jump\t// in\n    tag_52:\n      mload(0x40)\n      dup1\n      swap2\n      sub\n      swap1\n      return\n        /* \"crowdfund/SmartContract/contracts.sol\":1335:1486  function contribute() public payable {... */\n    tag_10:\n      tag_53\n      tag_54\n      jump\t// in\n    tag_53:\n      stop\n        /* \"crowdfund/SmartContract/contracts.sol\":2578:2836  function finalizeRequest (uint index) public isOwner{... */\n    tag_16:\n        /* \"crowdfund/SmartContract/contracts.sol\":1140:1145  owner */\n      0x00\n      dup1\n      sload\n      swap1\n      0x0100\n      exp\n      swap1\n      div\n      0xffffffffffffffffffffffffffffffffffffffff\n      and\n        /* \"crowdfund/SmartContract/contracts.sol\":1126:1145  msg.sender == owner */\n      0xffffffffffffffffffffffffffffffffffffffff\n      and\n        /* \"crowdfund/SmartContract/contracts.sol\":1126:1136  msg.sender */\n      caller\n        /* \"crowdfund/SmartContract/contracts.sol\":1126:1145  msg.sender == owner */\n      0xffffffffffffffffffffffffffffffffffffffff\n      and\n      eq\n        /* \"crowdfund/SmartContract/contracts.sol\":1118:1180  require(msg.sender == owner, \"Only owner can create campaign\") */\n      tag_56\n      jumpi\n      mload(0x40)\n      0x08c379a000000000000000000000000000000000000000000000000000000000\n      dup2\n      mstore\n      0x04\n      add\n      tag_57\n      swap1\n      tag_58\n      jump\t// in\n    tag_57:\n      mload(0x40)\n      dup1\n      swap2\n      sub\n      swap1\n      revert\n    tag_56:\n        /* \"crowdfund/SmartContract/contracts.sol\":2641:2658  Request storage r */\n      0x00\n        /* \"crowdfund/SmartContract/contracts.sol\":2661:2669  requests */\n      0x05\n        /* \"crowdfund/SmartContract/contracts.sol\":2661:2676  requests[index] */\n      0x00\n        /* \"crowdfund/SmartContract/contracts.sol\":2670:2675  index */\n      dup4\n        /* \"crowdfund/SmartContract/contracts.sol\":2661:2676  requests[index] */\n      dup2\n      mstore\n      0x20\n      add\n      swap1\n      dup2\n      mstore\n      0x20\n      add\n      0x00\n      keccak256\n        /* \"crowdfund/SmartContract/contracts.sol\":2641:2676  Request storage r = requests[index] */\n      swap1\n      pop\n        /* \"crowdfund/SmartContract/contracts.sol\":2728:2729  2 */\n      0x02\n        /* \"crowdfund/SmartContract/contracts.sol\":2714:2725  votersCount */\n      sload(0x03)\n        /* \"crowdfund/SmartContract/contracts.sol\":2714:2729  votersCount / 2 */\n      tag_60\n      swap2\n      swap1\n      tag_61\n      jump\t// in\n    tag_60:\n        /* \"crowdfund/SmartContract/contracts.sol\":2694:2695  r */\n      dup2\n        /* \"crowdfund/SmartContract/contracts.sol\":2694:2710  r.approvalsCount */\n      0x04\n      add\n      sload\n        /* \"crowdfund/SmartContract/contracts.sol\":2694:2731  r.approvalsCount > (votersCount / 2 ) */\n      gt\n        /* \"crowdfund/SmartContract/contracts.sol\":2686:2732  require(r.approvalsCount > (votersCount / 2 )) */\n      tag_62\n      jumpi\n      0x00\n      dup1\n      revert\n    tag_62:\n        /* \"crowdfund/SmartContract/contracts.sol\":2751:2752  r */\n      dup1\n        /* \"crowdfund/SmartContract/contracts.sol\":2751:2761  r.complete */\n      0x02\n      add\n      0x14\n      swap1\n      sload\n      swap1\n      0x0100\n      exp\n      swap1\n      div\n      0xff\n      and\n        /* \"crowdfund/SmartContract/contracts.sol\":2750:2761  !r.complete */\n      iszero\n        /* \"crowdfund/SmartContract/contracts.sol\":2742:2762  require(!r.complete) */\n      tag_63\n      jumpi\n      0x00\n      dup1\n      revert\n    tag_63:\n        /* \"crowdfund/SmartContract/contracts.sol\":2772:2773  r */\n      dup1\n        /* \"crowdfund/SmartContract/contracts.sol\":2772:2783  r.recipient */\n      0x02\n      add\n      0x00\n      swap1\n      sload\n      swap1\n      0x0100\n      exp\n      swap1\n      div\n      0xffffffffffffffffffffffffffffffffffffffff\n      and\n        /* \"crowdfund/SmartContract/contracts.sol\":2772:2792  r.recipient.transfer */\n      0xffffffffffffffffffffffffffffffffffffffff\n      and\n        /* \"crowdfund/SmartContract/contracts.sol\":2772:2801  r.recipient.transfer(r.value) */\n      0x08fc\n        /* \"crowdfund/SmartContract/contracts.sol\":2793:2794  r */\n      dup3\n        /* \"crowdfund/SmartContract/contracts.sol\":2793:2800  r.value */\n      0x01\n      add\n      sload\n        /* \"crowdfund/SmartContract/contracts.sol\":2772:2801  r.recipient.transfer(r.value) */\n      swap1\n      dup2\n      iszero\n      mul\n      swap1\n      mload(0x40)\n      0x00\n      mload(0x40)\n      dup1\n      dup4\n      sub\n      dup2\n      dup6\n      dup9\n      dup9\n      call\n      swap4\n      pop\n      pop\n      pop\n      pop\n      iszero\n      dup1\n      iszero\n      tag_65\n      jumpi\n      returndatasize\n      0x00\n      dup1\n      returndatacopy\n      revert(0x00, returndatasize)\n    tag_65:\n      pop\n        /* \"crowdfund/SmartContract/contracts.sol\":2824:2828  true */\n      0x01\n        /* \"crowdfund/SmartContract/contracts.sol\":2811:2812  r */\n      dup2\n        /* \"crowdfund/SmartContract/contracts.sol\":2811:2821  r.complete */\n      0x02\n      add\n      0x14\n        /* \"crowdfund/SmartContract/contracts.sol\":2811:2828  r.complete = true */\n      0x0100\n      exp\n      dup2\n      sload\n      dup2\n      0xff\n      mul\n      not\n      and\n      swap1\n      dup4\n      iszero\n      iszero\n      mul\n      or\n      swap1\n      sstore\n      pop\n        /* \"crowdfund/SmartContract/contracts.sol\":2630:2836  {... */\n      pop\n        /* \"crowdfund/SmartContract/contracts.sol\":2578:2836  function finalizeRequest (uint index) public isOwner{... */\n      pop\n      jump\t// out\n        /* \"crowdfund/SmartContract/contracts.sol\":865:906  mapping(address => bool) public approvers */\n    tag_21:\n      mstore(0x20, 0x02)\n      dup1\n      0x00\n      mstore\n      keccak256(0x00, 0x40)\n      0x00\n      swap2\n      pop\n      sload\n      swap1\n      0x0100\n      exp\n      swap1\n      div\n      0xff\n      and\n      dup2\n      jump\t// out\n        /* \"crowdfund/SmartContract/contracts.sol\":2313:2572  function approveRequests(uint index) public {... */\n    tag_27:\n        /* \"crowdfund/SmartContract/contracts.sol\":2368:2387  Request storage req */\n      0x00\n        /* \"crowdfund/SmartContract/contracts.sol\":2390:2398  requests */\n      0x05\n        /* \"crowdfund/SmartContract/contracts.sol\":2390:2405  requests[index] */\n      0x00\n        /* \"crowdfund/SmartContract/contracts.sol\":2399:2404  index */\n      dup4\n        /* \"crowdfund/SmartContract/contracts.sol\":2390:2405  requests[index] */\n      dup2\n      mstore\n      0x20\n      add\n      swap1\n      dup2\n      mstore\n      0x20\n      add\n      0x00\n      keccak256\n        /* \"crowdfund/SmartContract/contracts.sol\":2368:2405  Request storage req = requests[index] */\n      swap1\n      pop\n        /* \"crowdfund/SmartContract/contracts.sol\":2425:2434  approvers */\n      0x02\n        /* \"crowdfund/SmartContract/contracts.sol\":2425:2446  approvers[msg.sender] */\n      0x00\n        /* \"crowdfund/SmartContract/contracts.sol\":2435:2445  msg.sender */\n      caller\n        /* \"crowdfund/SmartContract/contracts.sol\":2425:2446  approvers[msg.sender] */\n      0xffffffffffffffffffffffffffffffffffffffff\n      and\n      0xffffffffffffffffffffffffffffffffffffffff\n      and\n      dup2\n      mstore\n      0x20\n      add\n      swap1\n      dup2\n      mstore\n      0x20\n      add\n      0x00\n      keccak256\n      0x00\n      swap1\n      sload\n      swap1\n      0x0100\n      exp\n      swap1\n      div\n      0xff\n      and\n        /* \"crowdfund/SmartContract/contracts.sol\":2417:2447  require(approvers[msg.sender]) */\n      tag_67\n      jumpi\n      0x00\n      dup1\n      revert\n    tag_67:\n        /* \"crowdfund/SmartContract/contracts.sol\":2466:2469  req */\n      dup1\n        /* \"crowdfund/SmartContract/contracts.sol\":2466:2479  req.approvals */\n      0x03\n      add\n        /* \"crowdfund/SmartContract/contracts.sol\":2466:2491  req.approvals[msg.sender] */\n      0x00\n        /* \"crowdfund/SmartContract/contracts.sol\":2480:2490  msg.sender */\n      caller\n        /* \"crowdfund/SmartContract/contracts.sol\":2466:2491  req.approvals[msg.sender] */\n      0xffffffffffffffffffffffffffffffffffffffff\n      and\n      0xffffffffffffffffffffffffffffffffffffffff\n      and\n      dup2\n      mstore\n      0x20\n      add\n      swap1\n      dup2\n      mstore\n      0x20\n      add\n      0x00\n      keccak256\n      0x00\n      swap1\n      sload\n      swap1\n      0x0100\n      exp\n      swap1\n      div\n      0xff\n      and\n        /* \"crowdfund/SmartContract/contracts.sol\":2465:2491  !req.approvals[msg.sender] */\n      iszero\n        /* \"crowdfund/SmartContract/contracts.sol\":2457:2492  require(!req.approvals[msg.sender]) */\n      tag_68\n      jumpi\n      0x00\n      dup1\n      revert\n    tag_68:\n        /* \"crowdfund/SmartContract/contracts.sol\":2531:2535  true */\n      0x01\n        /* \"crowdfund/SmartContract/contracts.sol\":2503:2506  req */\n      dup2\n        /* \"crowdfund/SmartContract/contracts.sol\":2503:2516  req.approvals */\n      0x03\n      add\n        /* \"crowdfund/SmartContract/contracts.sol\":2503:2528  req.approvals[msg.sender] */\n      0x00\n        /* \"crowdfund/SmartContract/contracts.sol\":2517:2527  msg.sender */\n      caller\n        /* \"crowdfund/SmartContract/contracts.sol\":2503:2528  req.approvals[msg.sender] */\n      0xffffffffffffffffffffffffffffffffffffffff\n      and\n      0xffffffffffffffffffffffffffffffffffffffff\n      and\n      dup2\n      mstore\n      0x20\n      add\n      swap1\n      dup2\n      mstore\n      0x20\n      add\n      0x00\n      keccak256\n      0x00\n        /* \"crowdfund/SmartContract/contracts.sol\":2503:2535  req.approvals[msg.sender] = true */\n      0x0100\n      exp\n      dup2\n      sload\n      dup2\n      0xff\n      mul\n      not\n      and\n      swap1\n      dup4\n      iszero\n      iszero\n      mul\n      or\n      swap1\n      sstore\n      pop\n        /* \"crowdfund/SmartContract/contracts.sol\":2545:2548  req */\n      dup1\n        /* \"crowdfund/SmartContract/contracts.sol\":2545:2563  req.approvalsCount */\n      0x04\n      add\n      0x00\n        /* \"crowdfund/SmartContract/contracts.sol\":2545:2565  req.approvalsCount++ */\n      dup2\n      sload\n      dup1\n      swap3\n      swap2\n      swap1\n      tag_69\n      swap1\n      tag_70\n      jump\t// in\n    tag_69:\n      swap2\n      swap1\n      pop\n      sstore\n      pop\n        /* \"crowdfund/SmartContract/contracts.sol\":2357:2572  {... */\n      pop\n        /* \"crowdfund/SmartContract/contracts.sol\":2313:2572  function approveRequests(uint index) public {... */\n      pop\n      jump\t// out\n        /* \"crowdfund/SmartContract/contracts.sol\":1001:1042  mapping (uint => Request) public requests */\n    tag_31:\n      mstore(0x20, 0x05)\n      dup1\n      0x00\n      mstore\n      keccak256(0x00, 0x40)\n      0x00\n      swap2\n      pop\n      swap1\n      pop\n      dup1\n      0x00\n      add\n      dup1\n      sload\n      tag_71\n      swap1\n      tag_72\n      jump\t// in\n    tag_71:\n      dup1\n      0x1f\n      add\n      0x20\n      dup1\n      swap2\n      div\n      mul\n      0x20\n      add\n      mload(0x40)\n      swap1\n      dup2\n      add\n      0x40\n      mstore\n      dup1\n      swap3\n      swap2\n      swap1\n      dup2\n      dup2\n      mstore\n      0x20\n      add\n      dup3\n      dup1\n      sload\n      tag_73\n      swap1\n      tag_72\n      jump\t// in\n    tag_73:\n      dup1\n      iszero\n      tag_74\n      jumpi\n      dup1\n      0x1f\n      lt\n      tag_75\n      jumpi\n      0x0100\n      dup1\n      dup4\n      sload\n      div\n      mul\n      dup4\n      mstore\n      swap2\n      0x20\n      add\n      swap2\n      jump(tag_74)\n    tag_75:\n      dup3\n      add\n      swap2\n      swap1\n      0x00\n      mstore\n      keccak256(0x00, 0x20)\n      swap1\n    tag_76:\n      dup2\n      sload\n      dup2\n      mstore\n      swap1\n      0x01\n      add\n      swap1\n      0x20\n      add\n      dup1\n      dup4\n      gt\n      tag_76\n      jumpi\n      dup3\n      swap1\n      sub\n      0x1f\n      and\n      dup3\n      add\n      swap2\n    tag_74:\n      pop\n      pop\n      pop\n      pop\n      pop\n      swap1\n      dup1\n      0x01\n      add\n      sload\n      swap1\n      dup1\n      0x02\n      add\n      0x00\n      swap1\n      sload\n      swap1\n      0x0100\n      exp\n      swap1\n      div\n      0xffffffffffffffffffffffffffffffffffffffff\n      and\n      swap1\n      dup1\n      0x02\n      add\n      0x14\n      swap1\n      sload\n      swap1\n      0x0100\n      exp\n      swap1\n      div\n      0xff\n      and\n      swap1\n      dup1\n      0x04\n      add\n      sload\n      swap1\n      pop\n      dup6\n      jump\t// out\n        /* \"crowdfund/SmartContract/contracts.sol\":1492:2307  function createRequest(string calldata desc, uint val, address payable recip) public isOwner {... */\n    tag_38:\n        /* \"crowdfund/SmartContract/contracts.sol\":1140:1145  owner */\n      0x00\n      dup1\n      sload\n      swap1\n      0x0100\n      exp\n      swap1\n      div\n      0xffffffffffffffffffffffffffffffffffffffff\n      and\n        /* \"crowdfund/SmartContract/contracts.sol\":1126:1145  msg.sender == owner */\n      0xffffffffffffffffffffffffffffffffffffffff\n      and\n        /* \"crowdfund/SmartContract/contracts.sol\":1126:1136  msg.sender */\n      caller\n        /* \"crowdfund/SmartContract/contracts.sol\":1126:1145  msg.sender == owner */\n      0xffffffffffffffffffffffffffffffffffffffff\n      and\n      eq\n        /* \"crowdfund/SmartContract/contracts.sol\":1118:1180  require(msg.sender == owner, \"Only owner can create campaign\") */\n      tag_78\n      jumpi\n      mload(0x40)\n      0x08c379a000000000000000000000000000000000000000000000000000000000\n      dup2\n      mstore\n      0x04\n      add\n      tag_79\n      swap1\n      tag_58\n      jump\t// in\n    tag_79:\n      mload(0x40)\n      dup1\n      swap2\n      sub\n      swap1\n      revert\n    tag_78:\n        /* \"crowdfund/SmartContract/contracts.sol\":1979:1996  Request storage r */\n      0x00\n        /* \"crowdfund/SmartContract/contracts.sol\":1999:2007  requests */\n      0x05\n        /* \"crowdfund/SmartContract/contracts.sol\":1999:2022  requests[numRequests++] */\n      0x00\n        /* \"crowdfund/SmartContract/contracts.sol\":2008:2019  numRequests */\n      0x04\n      0x00\n        /* \"crowdfund/SmartContract/contracts.sol\":2008:2021  numRequests++ */\n      dup2\n      sload\n      dup1\n      swap3\n      swap2\n      swap1\n      tag_81\n      swap1\n      tag_70\n      jump\t// in\n    tag_81:\n      swap2\n      swap1\n      pop\n      sstore\n        /* \"crowdfund/SmartContract/contracts.sol\":1999:2022  requests[numRequests++] */\n      dup2\n      mstore\n      0x20\n      add\n      swap1\n      dup2\n      mstore\n      0x20\n      add\n      0x00\n      keccak256\n        /* \"crowdfund/SmartContract/contracts.sol\":1979:2022  Request storage r = requests[numRequests++] */\n      swap1\n      pop\n        /* \"crowdfund/SmartContract/contracts.sol\":2048:2052  desc */\n      dup5\n      dup5\n        /* \"crowdfund/SmartContract/contracts.sol\":2032:2033  r */\n      dup3\n        /* \"crowdfund/SmartContract/contracts.sol\":2032:2045  r.description */\n      0x00\n      add\n        /* \"crowdfund/SmartContract/contracts.sol\":2032:2052  r.description = desc */\n      swap2\n      swap1\n      tag_82\n      swap3\n      swap2\n      swap1\n      tag_83\n      jump\t// in\n    tag_82:\n      pop\n        /* \"crowdfund/SmartContract/contracts.sol\":2072:2075  val */\n      dup3\n        /* \"crowdfund/SmartContract/contracts.sol\":2062:2063  r */\n      dup2\n        /* \"crowdfund/SmartContract/contracts.sol\":2062:2069  r.value */\n      0x01\n      add\n        /* \"crowdfund/SmartContract/contracts.sol\":2062:2075  r.value = val */\n      dup2\n      swap1\n      sstore\n      pop\n        /* \"crowdfund/SmartContract/contracts.sol\":2099:2104  recip */\n      dup2\n        /* \"crowdfund/SmartContract/contracts.sol\":2085:2086  r */\n      dup2\n        /* \"crowdfund/SmartContract/contracts.sol\":2085:2096  r.recipient */\n      0x02\n      add\n      0x00\n        /* \"crowdfund/SmartContract/contracts.sol\":2085:2104  r.recipient = recip */\n      0x0100\n      exp\n      dup2\n      sload\n      dup2\n      0xffffffffffffffffffffffffffffffffffffffff\n      mul\n      not\n      and\n      swap1\n      dup4\n      0xffffffffffffffffffffffffffffffffffffffff\n      and\n      mul\n      or\n      swap1\n      sstore\n      pop\n        /* \"crowdfund/SmartContract/contracts.sol\":2127:2132  false */\n      0x00\n        /* \"crowdfund/SmartContract/contracts.sol\":2114:2115  r */\n      dup2\n        /* \"crowdfund/SmartContract/contracts.sol\":2114:2124  r.complete */\n      0x02\n      add\n      0x14\n        /* \"crowdfund/SmartContract/contracts.sol\":2114:2132  r.complete = false */\n      0x0100\n      exp\n      dup2\n      sload\n      dup2\n      0xff\n      mul\n      not\n      and\n      swap1\n      dup4\n      iszero\n      iszero\n      mul\n      or\n      swap1\n      sstore\n      pop\n        /* \"crowdfund/SmartContract/contracts.sol\":2161:2162  0 */\n      0x00\n        /* \"crowdfund/SmartContract/contracts.sol\":2142:2143  r */\n      dup2\n        /* \"crowdfund/SmartContract/contracts.sol\":2142:2158  r.approvalsCount */\n      0x04\n      add\n        /* \"crowdfund/SmartContract/contracts.sol\":2142:2162  r.approvalsCount = 0 */\n      dup2\n      swap1\n      sstore\n      pop\n        /* \"crowdfund/SmartContract/contracts.sol\":1585:2307  {... */\n      pop\n        /* \"crowdfund/SmartContract/contracts.sol\":1492:2307  function createRequest(string calldata desc, uint val, address payable recip) public isOwner {... */\n      pop\n      pop\n      pop\n      pop\n      jump\t// out\n        /* \"crowdfund/SmartContract/contracts.sol\":806:826  address public owner */\n    tag_41:\n      0x00\n      dup1\n      sload\n      swap1\n      0x0100\n      exp\n      swap1\n      div\n      0xffffffffffffffffffffffffffffffffffffffff\n      and\n      dup2\n      jump\t// out\n        /* \"crowdfund/SmartContract/contracts.sol\":948:971  uint public votersCount */\n    tag_46:\n      sload(0x03)\n      dup2\n      jump\t// out\n        /* \"crowdfund/SmartContract/contracts.sol\":832:859  uint public minContribution */\n    tag_51:\n      sload(0x01)\n      dup2\n      jump\t// out\n        /* \"crowdfund/SmartContract/contracts.sol\":1335:1486  function contribute() public payable {... */\n    tag_54:\n        /* \"crowdfund/SmartContract/contracts.sol\":1402:1417  minContribution */\n      sload(0x01)\n        /* \"crowdfund/SmartContract/contracts.sol\":1390:1399  msg.value */\n      callvalue\n        /* \"crowdfund/SmartContract/contracts.sol\":1390:1417  msg.value > minContribution */\n      gt\n        /* \"crowdfund/SmartContract/contracts.sol\":1382:1418  require(msg.value > minContribution) */\n      tag_85\n      jumpi\n      0x00\n      dup1\n      revert\n    tag_85:\n        /* \"crowdfund/SmartContract/contracts.sol\":1452:1456  true */\n      0x01\n        /* \"crowdfund/SmartContract/contracts.sol\":1428:1437  approvers */\n      0x02\n        /* \"crowdfund/SmartContract/contracts.sol\":1428:1449  approvers[msg.sender] */\n      0x00\n        /* \"crowdfund/SmartContract/contracts.sol\":1438:1448  msg.sender */\n      caller\n        /* \"crowdfund/SmartContract/contracts.sol\":1428:1449  approvers[msg.sender] */\n      0xffffffffffffffffffffffffffffffffffffffff\n      and\n      0xffffffffffffffffffffffffffffffffffffffff\n      and\n      dup2\n      mstore\n      0x20\n      add\n      swap1\n      dup2\n      mstore\n      0x20\n      add\n      0x00\n      keccak256\n      0x00\n        /* \"crowdfund/SmartContract/contracts.sol\":1428:1456  approvers[msg.sender] = true */\n      0x0100\n      exp\n      dup2\n      sload\n      dup2\n      0xff\n      mul\n      not\n      and\n      swap1\n      dup4\n      iszero\n      iszero\n      mul\n      or\n      swap1\n      sstore\n      pop\n        /* \"crowdfund/SmartContract/contracts.sol\":1466:1477  votersCount */\n      0x03\n      0x00\n        /* \"crowdfund/SmartContract/contracts.sol\":1466:1479  votersCount++ */\n      dup2\n      sload\n      dup1\n      swap3\n      swap2\n      swap1\n      tag_86\n      swap1\n      tag_70\n      jump\t// in\n    tag_86:\n      swap2\n      swap1\n      pop\n      sstore\n      pop\n        /* \"crowdfund/SmartContract/contracts.sol\":1335:1486  function contribute() public payable {... */\n      jump\t// out\n    tag_83:\n      dup3\n      dup1\n      sload\n      tag_87\n      swap1\n      tag_72\n      jump\t// in\n    tag_87:\n      swap1\n      0x00\n      mstore\n      keccak256(0x00, 0x20)\n      swap1\n      0x1f\n      add\n      0x20\n      swap1\n      div\n      dup2\n      add\n      swap3\n      dup3\n      tag_89\n      jumpi\n      0x00\n      dup6\n      sstore\n      jump(tag_88)\n    tag_89:\n      dup3\n      0x1f\n      lt\n      tag_90\n      jumpi\n      dup1\n      calldataload\n      not(0xff)\n      and\n      dup4\n      dup1\n      add\n      or\n      dup6\n      sstore\n      jump(tag_88)\n    tag_90:\n      dup3\n      dup1\n      add\n      0x01\n      add\n      dup6\n      sstore\n      dup3\n      iszero\n      tag_88\n      jumpi\n      swap2\n      dup3\n      add\n    tag_91:\n      dup3\n      dup2\n      gt\n      iszero\n      tag_92\n      jumpi\n      dup3\n      calldataload\n      dup3\n      sstore\n      swap2\n      0x20\n      add\n      swap2\n      swap1\n      0x01\n      add\n      swap1\n      jump(tag_91)\n    tag_92:\n    tag_88:\n      pop\n      swap1\n      pop\n      tag_93\n      swap2\n      swap1\n      tag_94\n      jump\t// in\n    tag_93:\n      pop\n      swap1\n      jump\t// out\n    tag_94:\n    tag_95:\n      dup1\n      dup3\n      gt\n      iszero\n      tag_96\n      jumpi\n      0x00\n      dup2\n      0x00\n      swap1\n      sstore\n      pop\n      0x01\n      add\n      jump(tag_95)\n    tag_96:\n      pop\n      swap1\n      jump\t// out\n        /* \"#utility.yul\":7:146   */\n    tag_98:\n        /* \"#utility.yul\":53:58   */\n      0x00\n        /* \"#utility.yul\":91:97   */\n      dup2\n        /* \"#utility.yul\":78:98   */\n      calldataload\n        /* \"#utility.yul\":69:98   */\n      swap1\n      pop\n        /* \"#utility.yul\":107:140   */\n      tag_100\n        /* \"#utility.yul\":134:139   */\n      dup2\n        /* \"#utility.yul\":107:140   */\n      tag_101\n      jump\t// in\n    tag_100:\n        /* \"#utility.yul\":7:146   */\n      swap3\n      swap2\n      pop\n      pop\n      jump\t// out\n        /* \"#utility.yul\":152:307   */\n    tag_102:\n        /* \"#utility.yul\":206:211   */\n      0x00\n        /* \"#utility.yul\":244:250   */\n      dup2\n        /* \"#utility.yul\":231:251   */\n      calldataload\n        /* \"#utility.yul\":222:251   */\n      swap1\n      pop\n        /* \"#utility.yul\":260:301   */\n      tag_104\n        /* \"#utility.yul\":295:300   */\n      dup2\n        /* \"#utility.yul\":260:301   */\n      tag_105\n      jump\t// in\n    tag_104:\n        /* \"#utility.yul\":152:307   */\n      swap3\n      swap2\n      pop\n      pop\n      jump\t// out\n        /* \"#utility.yul\":327:880   */\n    tag_106:\n        /* \"#utility.yul\":385:393   */\n      0x00\n        /* \"#utility.yul\":395:401   */\n      dup1\n        /* \"#utility.yul\":445:448   */\n      dup4\n        /* \"#utility.yul\":438:442   */\n      0x1f\n        /* \"#utility.yul\":430:436   */\n      dup5\n        /* \"#utility.yul\":426:443   */\n      add\n        /* \"#utility.yul\":422:449   */\n      slt\n        /* \"#utility.yul\":412:534   */\n      tag_108\n      jumpi\n        /* \"#utility.yul\":453:532   */\n      tag_109\n      tag_110\n      jump\t// in\n    tag_109:\n        /* \"#utility.yul\":412:534   */\n    tag_108:\n        /* \"#utility.yul\":566:572   */\n      dup3\n        /* \"#utility.yul\":553:573   */\n      calldataload\n        /* \"#utility.yul\":543:573   */\n      swap1\n      pop\n        /* \"#utility.yul\":596:614   */\n      0xffffffffffffffff\n        /* \"#utility.yul\":588:594   */\n      dup2\n        /* \"#utility.yul\":585:615   */\n      gt\n        /* \"#utility.yul\":582:699   */\n      iszero\n      tag_111\n      jumpi\n        /* \"#utility.yul\":618:697   */\n      tag_112\n      tag_113\n      jump\t// in\n    tag_112:\n        /* \"#utility.yul\":582:699   */\n    tag_111:\n        /* \"#utility.yul\":732:736   */\n      0x20\n        /* \"#utility.yul\":724:730   */\n      dup4\n        /* \"#utility.yul\":720:737   */\n      add\n        /* \"#utility.yul\":708:737   */\n      swap2\n      pop\n        /* \"#utility.yul\":786:789   */\n      dup4\n        /* \"#utility.yul\":778:782   */\n      0x01\n        /* \"#utility.yul\":770:776   */\n      dup3\n        /* \"#utility.yul\":766:783   */\n      mul\n        /* \"#utility.yul\":756:764   */\n      dup4\n        /* \"#utility.yul\":752:784   */\n      add\n        /* \"#utility.yul\":749:790   */\n      gt\n        /* \"#utility.yul\":746:874   */\n      iszero\n      tag_114\n      jumpi\n        /* \"#utility.yul\":793:872   */\n      tag_115\n      tag_116\n      jump\t// in\n    tag_115:\n        /* \"#utility.yul\":746:874   */\n    tag_114:\n        /* \"#utility.yul\":327:880   */\n      swap3\n      pop\n      swap3\n      swap1\n      pop\n      jump\t// out\n        /* \"#utility.yul\":886:1025   */\n    tag_117:\n        /* \"#utility.yul\":932:937   */\n      0x00\n        /* \"#utility.yul\":970:976   */\n      dup2\n        /* \"#utility.yul\":957:977   */\n      calldataload\n        /* \"#utility.yul\":948:977   */\n      swap1\n      pop\n        /* \"#utility.yul\":986:1019   */\n      tag_119\n        /* \"#utility.yul\":1013:1018   */\n      dup2\n        /* \"#utility.yul\":986:1019   */\n      tag_120\n      jump\t// in\n    tag_119:\n        /* \"#utility.yul\":886:1025   */\n      swap3\n      swap2\n      pop\n      pop\n      jump\t// out\n        /* \"#utility.yul\":1031:1360   */\n    tag_20:\n        /* \"#utility.yul\":1090:1096   */\n      0x00\n        /* \"#utility.yul\":1139:1141   */\n      0x20\n        /* \"#utility.yul\":1127:1136   */\n      dup3\n        /* \"#utility.yul\":1118:1125   */\n      dup5\n        /* \"#utility.yul\":1114:1137   */\n      sub\n        /* \"#utility.yul\":1110:1142   */\n      slt\n        /* \"#utility.yul\":1107:1226   */\n      iszero\n      tag_122\n      jumpi\n        /* \"#utility.yul\":1145:1224   */\n      tag_123\n      tag_124\n      jump\t// in\n    tag_123:\n        /* \"#utility.yul\":1107:1226   */\n    tag_122:\n        /* \"#utility.yul\":1265:1266   */\n      0x00\n        /* \"#utility.yul\":1290:1343   */\n      tag_125\n        /* \"#utility.yul\":1335:1342   */\n      dup5\n        /* \"#utility.yul\":1326:1332   */\n      dup3\n        /* \"#utility.yul\":1315:1324   */\n      dup6\n        /* \"#utility.yul\":1311:1333   */\n      add\n        /* \"#utility.yul\":1290:1343   */\n      tag_98\n      jump\t// in\n    tag_125:\n        /* \"#utility.yul\":1280:1343   */\n      swap2\n      pop\n        /* \"#utility.yul\":1236:1353   */\n      pop\n        /* \"#utility.yul\":1031:1360   */\n      swap3\n      swap2\n      pop\n      pop\n      jump\t// out\n        /* \"#utility.yul\":1366:2201   */\n    tag_37:\n        /* \"#utility.yul\":1463:1469   */\n      0x00\n        /* \"#utility.yul\":1471:1477   */\n      dup1\n        /* \"#utility.yul\":1479:1485   */\n      0x00\n        /* \"#utility.yul\":1487:1493   */\n      dup1\n        /* \"#utility.yul\":1536:1538   */\n      0x60\n        /* \"#utility.yul\":1524:1533   */\n      dup6\n        /* \"#utility.yul\":1515:1522   */\n      dup8\n        /* \"#utility.yul\":1511:1534   */\n      sub\n        /* \"#utility.yul\":1507:1539   */\n      slt\n        /* \"#utility.yul\":1504:1623   */\n      iszero\n      tag_127\n      jumpi\n        /* \"#utility.yul\":1542:1621   */\n      tag_128\n      tag_124\n      jump\t// in\n    tag_128:\n        /* \"#utility.yul\":1504:1623   */\n    tag_127:\n        /* \"#utility.yul\":1690:1691   */\n      0x00\n        /* \"#utility.yul\":1679:1688   */\n      dup6\n        /* \"#utility.yul\":1675:1692   */\n      add\n        /* \"#utility.yul\":1662:1693   */\n      calldataload\n        /* \"#utility.yul\":1720:1738   */\n      0xffffffffffffffff\n        /* \"#utility.yul\":1712:1718   */\n      dup2\n        /* \"#utility.yul\":1709:1739   */\n      gt\n        /* \"#utility.yul\":1706:1823   */\n      iszero\n      tag_129\n      jumpi\n        /* \"#utility.yul\":1742:1821   */\n      tag_130\n      tag_131\n      jump\t// in\n    tag_130:\n        /* \"#utility.yul\":1706:1823   */\n    tag_129:\n        /* \"#utility.yul\":1855:1920   */\n      tag_132\n        /* \"#utility.yul\":1912:1919   */\n      dup8\n        /* \"#utility.yul\":1903:1909   */\n      dup3\n        /* \"#utility.yul\":1892:1901   */\n      dup9\n        /* \"#utility.yul\":1888:1910   */\n      add\n        /* \"#utility.yul\":1855:1920   */\n      tag_106\n      jump\t// in\n    tag_132:\n        /* \"#utility.yul\":1837:1920   */\n      swap5\n      pop\n      swap5\n      pop\n        /* \"#utility.yul\":1633:1930   */\n      pop\n        /* \"#utility.yul\":1969:1971   */\n      0x20\n        /* \"#utility.yul\":1995:2048   */\n      tag_133\n        /* \"#utility.yul\":2040:2047   */\n      dup8\n        /* \"#utility.yul\":2031:2037   */\n      dup3\n        /* \"#utility.yul\":2020:2029   */\n      dup9\n        /* \"#utility.yul\":2016:2038   */\n      add\n        /* \"#utility.yul\":1995:2048   */\n      tag_117\n      jump\t// in\n    tag_133:\n        /* \"#utility.yul\":1985:2048   */\n      swap3\n      pop\n        /* \"#utility.yul\":1940:2058   */\n      pop\n        /* \"#utility.yul\":2097:2099   */\n      0x40\n        /* \"#utility.yul\":2123:2184   */\n      tag_134\n        /* \"#utility.yul\":2176:2183   */\n      dup8\n        /* \"#utility.yul\":2167:2173   */\n      dup3\n        /* \"#utility.yul\":2156:2165   */\n      dup9\n        /* \"#utility.yul\":2152:2174   */\n      add\n        /* \"#utility.yul\":2123:2184   */\n      tag_102\n      jump\t// in\n    tag_134:\n        /* \"#utility.yul\":2113:2184   */\n      swap2\n      pop\n        /* \"#utility.yul\":2068:2194   */\n      pop\n        /* \"#utility.yul\":1366:2201   */\n      swap3\n      swap6\n      swap2\n      swap5\n      pop\n      swap3\n      pop\n      jump\t// out\n        /* \"#utility.yul\":2207:2536   */\n    tag_15:\n        /* \"#utility.yul\":2266:2272   */\n      0x00\n        /* \"#utility.yul\":2315:2317   */\n      0x20\n        /* \"#utility.yul\":2303:2312   */\n      dup3\n        /* \"#utility.yul\":2294:2301   */\n      dup5\n        /* \"#utility.yul\":2290:2313   */\n      sub\n        /* \"#utility.yul\":2286:2318   */\n      slt\n        /* \"#utility.yul\":2283:2402   */\n      iszero\n      tag_136\n      jumpi\n        /* \"#utility.yul\":2321:2400   */\n      tag_137\n      tag_124\n      jump\t// in\n    tag_137:\n        /* \"#utility.yul\":2283:2402   */\n    tag_136:\n        /* \"#utility.yul\":2441:2442   */\n      0x00\n        /* \"#utility.yul\":2466:2519   */\n      tag_138\n        /* \"#utility.yul\":2511:2518   */\n      dup5\n        /* \"#utility.yul\":2502:2508   */\n      dup3\n        /* \"#utility.yul\":2491:2500   */\n      dup6\n        /* \"#utility.yul\":2487:2509   */\n      add\n        /* \"#utility.yul\":2466:2519   */\n      tag_117\n      jump\t// in\n    tag_138:\n        /* \"#utility.yul\":2456:2519   */\n      swap2\n      pop\n        /* \"#utility.yul\":2412:2529   */\n      pop\n        /* \"#utility.yul\":2207:2536   */\n      swap3\n      swap2\n      pop\n      pop\n      jump\t// out\n        /* \"#utility.yul\":2542:2684   */\n    tag_139:\n        /* \"#utility.yul\":2645:2677   */\n      tag_141\n        /* \"#utility.yul\":2671:2676   */\n      dup2\n        /* \"#utility.yul\":2645:2677   */\n      tag_142\n      jump\t// in\n    tag_141:\n        /* \"#utility.yul\":2640:2643   */\n      dup3\n        /* \"#utility.yul\":2633:2678   */\n      mstore\n        /* \"#utility.yul\":2542:2684   */\n      pop\n      pop\n      jump\t// out\n        /* \"#utility.yul\":2690:2808   */\n    tag_143:\n        /* \"#utility.yul\":2777:2801   */\n      tag_145\n        /* \"#utility.yul\":2795:2800   */\n      dup2\n        /* \"#utility.yul\":2777:2801   */\n      tag_146\n      jump\t// in\n    tag_145:\n        /* \"#utility.yul\":2772:2775   */\n      dup3\n        /* \"#utility.yul\":2765:2802   */\n      mstore\n        /* \"#utility.yul\":2690:2808   */\n      pop\n      pop\n      jump\t// out\n        /* \"#utility.yul\":2814:2923   */\n    tag_147:\n        /* \"#utility.yul\":2895:2916   */\n      tag_149\n        /* \"#utility.yul\":2910:2915   */\n      dup2\n        /* \"#utility.yul\":2895:2916   */\n      tag_150\n      jump\t// in\n    tag_149:\n        /* \"#utility.yul\":2890:2893   */\n      dup3\n        /* \"#utility.yul\":2883:2917   */\n      mstore\n        /* \"#utility.yul\":2814:2923   */\n      pop\n      pop\n      jump\t// out\n        /* \"#utility.yul\":2929:3293   */\n    tag_151:\n        /* \"#utility.yul\":3017:3020   */\n      0x00\n        /* \"#utility.yul\":3045:3084   */\n      tag_153\n        /* \"#utility.yul\":3078:3083   */\n      dup3\n        /* \"#utility.yul\":3045:3084   */\n      tag_154\n      jump\t// in\n    tag_153:\n        /* \"#utility.yul\":3100:3171   */\n      tag_155\n        /* \"#utility.yul\":3164:3170   */\n      dup2\n        /* \"#utility.yul\":3159:3162   */\n      dup6\n        /* \"#utility.yul\":3100:3171   */\n      tag_156\n      jump\t// in\n    tag_155:\n        /* \"#utility.yul\":3093:3171   */\n      swap4\n      pop\n        /* \"#utility.yul\":3180:3232   */\n      tag_157\n        /* \"#utility.yul\":3225:3231   */\n      dup2\n        /* \"#utility.yul\":3220:3223   */\n      dup6\n        /* \"#utility.yul\":3213:3217   */\n      0x20\n        /* \"#utility.yul\":3206:3211   */\n      dup7\n        /* \"#utility.yul\":3202:3218   */\n      add\n        /* \"#utility.yul\":3180:3232   */\n      tag_158\n      jump\t// in\n    tag_157:\n        /* \"#utility.yul\":3257:3286   */\n      tag_159\n        /* \"#utility.yul\":3279:3285   */\n      dup2\n        /* \"#utility.yul\":3257:3286   */\n      tag_160\n      jump\t// in\n    tag_159:\n        /* \"#utility.yul\":3252:3255   */\n      dup5\n        /* \"#utility.yul\":3248:3287   */\n      add\n        /* \"#utility.yul\":3241:3287   */\n      swap2\n      pop\n        /* \"#utility.yul\":3021:3293   */\n      pop\n        /* \"#utility.yul\":2929:3293   */\n      swap3\n      swap2\n      pop\n      pop\n      jump\t// out\n        /* \"#utility.yul\":3299:3665   */\n    tag_161:\n        /* \"#utility.yul\":3441:3444   */\n      0x00\n        /* \"#utility.yul\":3462:3529   */\n      tag_163\n        /* \"#utility.yul\":3526:3528   */\n      0x1e\n        /* \"#utility.yul\":3521:3524   */\n      dup4\n        /* \"#utility.yul\":3462:3529   */\n      tag_156\n      jump\t// in\n    tag_163:\n        /* \"#utility.yul\":3455:3529   */\n      swap2\n      pop\n        /* \"#utility.yul\":3538:3631   */\n      tag_164\n        /* \"#utility.yul\":3627:3630   */\n      dup3\n        /* \"#utility.yul\":3538:3631   */\n      tag_165\n      jump\t// in\n    tag_164:\n        /* \"#utility.yul\":3656:3658   */\n      0x20\n        /* \"#utility.yul\":3651:3654   */\n      dup3\n        /* \"#utility.yul\":3647:3659   */\n      add\n        /* \"#utility.yul\":3640:3659   */\n      swap1\n      pop\n        /* \"#utility.yul\":3299:3665   */\n      swap2\n      swap1\n      pop\n      jump\t// out\n        /* \"#utility.yul\":3671:3789   */\n    tag_166:\n        /* \"#utility.yul\":3758:3782   */\n      tag_168\n        /* \"#utility.yul\":3776:3781   */\n      dup2\n        /* \"#utility.yul\":3758:3782   */\n      tag_169\n      jump\t// in\n    tag_168:\n        /* \"#utility.yul\":3753:3756   */\n      dup3\n        /* \"#utility.yul\":3746:3783   */\n      mstore\n        /* \"#utility.yul\":3671:3789   */\n      pop\n      pop\n      jump\t// out\n        /* \"#utility.yul\":3795:4017   */\n    tag_43:\n        /* \"#utility.yul\":3888:3892   */\n      0x00\n        /* \"#utility.yul\":3926:3928   */\n      0x20\n        /* \"#utility.yul\":3915:3924   */\n      dup3\n        /* \"#utility.yul\":3911:3929   */\n      add\n        /* \"#utility.yul\":3903:3929   */\n      swap1\n      pop\n        /* \"#utility.yul\":3939:4010   */\n      tag_171\n        /* \"#utility.yul\":4007:4008   */\n      0x00\n        /* \"#utility.yul\":3996:4005   */\n      dup4\n        /* \"#utility.yul\":3992:4009   */\n      add\n        /* \"#utility.yul\":3983:3989   */\n      dup5\n        /* \"#utility.yul\":3939:4010   */\n      tag_143\n      jump\t// in\n    tag_171:\n        /* \"#utility.yul\":3795:4017   */\n      swap3\n      swap2\n      pop\n      pop\n      jump\t// out\n        /* \"#utility.yul\":4023:4233   */\n    tag_23:\n        /* \"#utility.yul\":4110:4114   */\n      0x00\n        /* \"#utility.yul\":4148:4150   */\n      0x20\n        /* \"#utility.yul\":4137:4146   */\n      dup3\n        /* \"#utility.yul\":4133:4151   */\n      add\n        /* \"#utility.yul\":4125:4151   */\n      swap1\n      pop\n        /* \"#utility.yul\":4161:4226   */\n      tag_173\n        /* \"#utility.yul\":4223:4224   */\n      0x00\n        /* \"#utility.yul\":4212:4221   */\n      dup4\n        /* \"#utility.yul\":4208:4225   */\n      add\n        /* \"#utility.yul\":4199:4205   */\n      dup5\n        /* \"#utility.yul\":4161:4226   */\n      tag_147\n      jump\t// in\n    tag_173:\n        /* \"#utility.yul\":4023:4233   */\n      swap3\n      swap2\n      pop\n      pop\n      jump\t// out\n        /* \"#utility.yul\":4239:5014   */\n    tag_33:\n        /* \"#utility.yul\":4474:4478   */\n      0x00\n        /* \"#utility.yul\":4512:4515   */\n      0xa0\n        /* \"#utility.yul\":4501:4510   */\n      dup3\n        /* \"#utility.yul\":4497:4516   */\n      add\n        /* \"#utility.yul\":4489:4516   */\n      swap1\n      pop\n        /* \"#utility.yul\":4562:4571   */\n      dup2\n        /* \"#utility.yul\":4556:4560   */\n      dup2\n        /* \"#utility.yul\":4552:4572   */\n      sub\n        /* \"#utility.yul\":4548:4549   */\n      0x00\n        /* \"#utility.yul\":4537:4546   */\n      dup4\n        /* \"#utility.yul\":4533:4550   */\n      add\n        /* \"#utility.yul\":4526:4573   */\n      mstore\n        /* \"#utility.yul\":4590:4668   */\n      tag_175\n        /* \"#utility.yul\":4663:4667   */\n      dup2\n        /* \"#utility.yul\":4654:4660   */\n      dup9\n        /* \"#utility.yul\":4590:4668   */\n      tag_151\n      jump\t// in\n    tag_175:\n        /* \"#utility.yul\":4582:4668   */\n      swap1\n      pop\n        /* \"#utility.yul\":4678:4750   */\n      tag_176\n        /* \"#utility.yul\":4746:4748   */\n      0x20\n        /* \"#utility.yul\":4735:4744   */\n      dup4\n        /* \"#utility.yul\":4731:4749   */\n      add\n        /* \"#utility.yul\":4722:4728   */\n      dup8\n        /* \"#utility.yul\":4678:4750   */\n      tag_166\n      jump\t// in\n    tag_176:\n        /* \"#utility.yul\":4760:4848   */\n      tag_177\n        /* \"#utility.yul\":4844:4846   */\n      0x40\n        /* \"#utility.yul\":4833:4842   */\n      dup4\n        /* \"#utility.yul\":4829:4847   */\n      add\n        /* \"#utility.yul\":4820:4826   */\n      dup7\n        /* \"#utility.yul\":4760:4848   */\n      tag_139\n      jump\t// in\n    tag_177:\n        /* \"#utility.yul\":4858:4924   */\n      tag_178\n        /* \"#utility.yul\":4920:4922   */\n      0x60\n        /* \"#utility.yul\":4909:4918   */\n      dup4\n        /* \"#utility.yul\":4905:4923   */\n      add\n        /* \"#utility.yul\":4896:4902   */\n      dup6\n        /* \"#utility.yul\":4858:4924   */\n      tag_147\n      jump\t// in\n    tag_178:\n        /* \"#utility.yul\":4934:5007   */\n      tag_179\n        /* \"#utility.yul\":5002:5005   */\n      0x80\n        /* \"#utility.yul\":4991:5000   */\n      dup4\n        /* \"#utility.yul\":4987:5006   */\n      add\n        /* \"#utility.yul\":4978:4984   */\n      dup5\n        /* \"#utility.yul\":4934:5007   */\n      tag_166\n      jump\t// in\n    tag_179:\n        /* \"#utility.yul\":4239:5014   */\n      swap7\n      swap6\n      pop\n      pop\n      pop\n      pop\n      pop\n      pop\n      jump\t// out\n        /* \"#utility.yul\":5020:5439   */\n    tag_58:\n        /* \"#utility.yul\":5186:5190   */\n      0x00\n        /* \"#utility.yul\":5224:5226   */\n      0x20\n        /* \"#utility.yul\":5213:5222   */\n      dup3\n        /* \"#utility.yul\":5209:5227   */\n      add\n        /* \"#utility.yul\":5201:5227   */\n      swap1\n      pop\n        /* \"#utility.yul\":5273:5282   */\n      dup2\n        /* \"#utility.yul\":5267:5271   */\n      dup2\n        /* \"#utility.yul\":5263:5283   */\n      sub\n        /* \"#utility.yul\":5259:5260   */\n      0x00\n        /* \"#utility.yul\":5248:5257   */\n      dup4\n        /* \"#utility.yul\":5244:5261   */\n      add\n        /* \"#utility.yul\":5237:5284   */\n      mstore\n        /* \"#utility.yul\":5301:5432   */\n      tag_181\n        /* \"#utility.yul\":5427:5431   */\n      dup2\n        /* \"#utility.yul\":5301:5432   */\n      tag_161\n      jump\t// in\n    tag_181:\n        /* \"#utility.yul\":5293:5432   */\n      swap1\n      pop\n        /* \"#utility.yul\":5020:5439   */\n      swap2\n      swap1\n      pop\n      jump\t// out\n        /* \"#utility.yul\":5445:5667   */\n    tag_48:\n        /* \"#utility.yul\":5538:5542   */\n      0x00\n        /* \"#utility.yul\":5576:5578   */\n      0x20\n        /* \"#utility.yul\":5565:5574   */\n      dup3\n        /* \"#utility.yul\":5561:5579   */\n      add\n        /* \"#utility.yul\":5553:5579   */\n      swap1\n      pop\n        /* \"#utility.yul\":5589:5660   */\n      tag_183\n        /* \"#utility.yul\":5657:5658   */\n      0x00\n        /* \"#utility.yul\":5646:5655   */\n      dup4\n        /* \"#utility.yul\":5642:5659   */\n      add\n        /* \"#utility.yul\":5633:5639   */\n      dup5\n        /* \"#utility.yul\":5589:5660   */\n      tag_166\n      jump\t// in\n    tag_183:\n        /* \"#utility.yul\":5445:5667   */\n      swap3\n      swap2\n      pop\n      pop\n      jump\t// out\n        /* \"#utility.yul\":5754:5853   */\n    tag_154:\n        /* \"#utility.yul\":5806:5812   */\n      0x00\n        /* \"#utility.yul\":5840:5845   */\n      dup2\n        /* \"#utility.yul\":5834:5846   */\n      mload\n        /* \"#utility.yul\":5824:5846   */\n      swap1\n      pop\n        /* \"#utility.yul\":5754:5853   */\n      swap2\n      swap1\n      pop\n      jump\t// out\n        /* \"#utility.yul\":5859:6028   */\n    tag_156:\n        /* \"#utility.yul\":5943:5954   */\n      0x00\n        /* \"#utility.yul\":5977:5983   */\n      dup3\n        /* \"#utility.yul\":5972:5975   */\n      dup3\n        /* \"#utility.yul\":5965:5984   */\n      mstore\n        /* \"#utility.yul\":6017:6021   */\n      0x20\n        /* \"#utility.yul\":6012:6015   */\n      dup3\n        /* \"#utility.yul\":6008:6022   */\n      add\n        /* \"#utility.yul\":5993:6022   */\n      swap1\n      pop\n        /* \"#utility.yul\":5859:6028   */\n      swap3\n      swap2\n      pop\n      pop\n      jump\t// out\n        /* \"#utility.yul\":6034:6219   */\n    tag_61:\n        /* \"#utility.yul\":6074:6075   */\n      0x00\n        /* \"#utility.yul\":6091:6111   */\n      tag_189\n        /* \"#utility.yul\":6109:6110   */\n      dup3\n        /* \"#utility.yul\":6091:6111   */\n      tag_169\n      jump\t// in\n    tag_189:\n        /* \"#utility.yul\":6086:6111   */\n      swap2\n      pop\n        /* \"#utility.yul\":6125:6145   */\n      tag_190\n        /* \"#utility.yul\":6143:6144   */\n      dup4\n        /* \"#utility.yul\":6125:6145   */\n      tag_169\n      jump\t// in\n    tag_190:\n        /* \"#utility.yul\":6120:6145   */\n      swap3\n      pop\n        /* \"#utility.yul\":6164:6165   */\n      dup3\n        /* \"#utility.yul\":6154:6189   */\n      tag_191\n      jumpi\n        /* \"#utility.yul\":6169:6187   */\n      tag_192\n      tag_193\n      jump\t// in\n    tag_192:\n        /* \"#utility.yul\":6154:6189   */\n    tag_191:\n        /* \"#utility.yul\":6211:6212   */\n      dup3\n        /* \"#utility.yul\":6208:6209   */\n      dup3\n        /* \"#utility.yul\":6204:6213   */\n      div\n        /* \"#utility.yul\":6199:6213   */\n      swap1\n      pop\n        /* \"#utility.yul\":6034:6219   */\n      swap3\n      swap2\n      pop\n      pop\n      jump\t// out\n        /* \"#utility.yul\":6225:6321   */\n    tag_146:\n        /* \"#utility.yul\":6262:6269   */\n      0x00\n        /* \"#utility.yul\":6291:6315   */\n      tag_195\n        /* \"#utility.yul\":6309:6314   */\n      dup3\n        /* \"#utility.yul\":6291:6315   */\n      tag_196\n      jump\t// in\n    tag_195:\n        /* \"#utility.yul\":6280:6315   */\n      swap1\n      pop\n        /* \"#utility.yul\":6225:6321   */\n      swap2\n      swap1\n      pop\n      jump\t// out\n        /* \"#utility.yul\":6327:6431   */\n    tag_142:\n        /* \"#utility.yul\":6372:6379   */\n      0x00\n        /* \"#utility.yul\":6401:6425   */\n      tag_198\n        /* \"#utility.yul\":6419:6424   */\n      dup3\n        /* \"#utility.yul\":6401:6425   */\n      tag_196\n      jump\t// in\n    tag_198:\n        /* \"#utility.yul\":6390:6425   */\n      swap1\n      pop\n        /* \"#utility.yul\":6327:6431   */\n      swap2\n      swap1\n      pop\n      jump\t// out\n        /* \"#utility.yul\":6437:6527   */\n    tag_150:\n        /* \"#utility.yul\":6471:6478   */\n      0x00\n        /* \"#utility.yul\":6514:6519   */\n      dup2\n        /* \"#utility.yul\":6507:6520   */\n      iszero\n        /* \"#utility.yul\":6500:6521   */\n      iszero\n        /* \"#utility.yul\":6489:6521   */\n      swap1\n      pop\n        /* \"#utility.yul\":6437:6527   */\n      swap2\n      swap1\n      pop\n      jump\t// out\n        /* \"#utility.yul\":6533:6659   */\n    tag_196:\n        /* \"#utility.yul\":6570:6577   */\n      0x00\n        /* \"#utility.yul\":6610:6652   */\n      0xffffffffffffffffffffffffffffffffffffffff\n        /* \"#utility.yul\":6603:6608   */\n      dup3\n        /* \"#utility.yul\":6599:6653   */\n      and\n        /* \"#utility.yul\":6588:6653   */\n      swap1\n      pop\n        /* \"#utility.yul\":6533:6659   */\n      swap2\n      swap1\n      pop\n      jump\t// out\n        /* \"#utility.yul\":6665:6742   */\n    tag_169:\n        /* \"#utility.yul\":6702:6709   */\n      0x00\n        /* \"#utility.yul\":6731:6736   */\n      dup2\n        /* \"#utility.yul\":6720:6736   */\n      swap1\n      pop\n        /* \"#utility.yul\":6665:6742   */\n      swap2\n      swap1\n      pop\n      jump\t// out\n        /* \"#utility.yul\":6748:7055   */\n    tag_158:\n        /* \"#utility.yul\":6816:6817   */\n      0x00\n        /* \"#utility.yul\":6826:6939   */\n    tag_203:\n        /* \"#utility.yul\":6840:6846   */\n      dup4\n        /* \"#utility.yul\":6837:6838   */\n      dup2\n        /* \"#utility.yul\":6834:6847   */\n      lt\n        /* \"#utility.yul\":6826:6939   */\n      iszero\n      tag_205\n      jumpi\n        /* \"#utility.yul\":6925:6926   */\n      dup1\n        /* \"#utility.yul\":6920:6923   */\n      dup3\n        /* \"#utility.yul\":6916:6927   */\n      add\n        /* \"#utility.yul\":6910:6928   */\n      mload\n        /* \"#utility.yul\":6906:6907   */\n      dup2\n        /* \"#utility.yul\":6901:6904   */\n      dup5\n        /* \"#utility.yul\":6897:6908   */\n      add\n        /* \"#utility.yul\":6890:6929   */\n      mstore\n        /* \"#utility.yul\":6862:6864   */\n      0x20\n        /* \"#utility.yul\":6859:6860   */\n      dup2\n        /* \"#utility.yul\":6855:6865   */\n      add\n        /* \"#utility.yul\":6850:6865   */\n      swap1\n      pop\n        /* \"#utility.yul\":6826:6939   */\n      jump(tag_203)\n    tag_205:\n        /* \"#utility.yul\":6957:6963   */\n      dup4\n        /* \"#utility.yul\":6954:6955   */\n      dup2\n        /* \"#utility.yul\":6951:6964   */\n      gt\n        /* \"#utility.yul\":6948:7049   */\n      iszero\n      tag_206\n      jumpi\n        /* \"#utility.yul\":7037:7038   */\n      0x00\n        /* \"#utility.yul\":7028:7034   */\n      dup5\n        /* \"#utility.yul\":7023:7026   */\n      dup5\n        /* \"#utility.yul\":7019:7035   */\n      add\n        /* \"#utility.yul\":7012:7039   */\n      mstore\n        /* \"#utility.yul\":6948:7049   */\n    tag_206:\n        /* \"#utility.yul\":6797:7055   */\n      pop\n        /* \"#utility.yul\":6748:7055   */\n      pop\n      pop\n      pop\n      jump\t// out\n        /* \"#utility.yul\":7061:7381   */\n    tag_72:\n        /* \"#utility.yul\":7105:7111   */\n      0x00\n        /* \"#utility.yul\":7142:7143   */\n      0x02\n        /* \"#utility.yul\":7136:7140   */\n      dup3\n        /* \"#utility.yul\":7132:7144   */\n      div\n        /* \"#utility.yul\":7122:7144   */\n      swap1\n      pop\n        /* \"#utility.yul\":7189:7190   */\n      0x01\n        /* \"#utility.yul\":7183:7187   */\n      dup3\n        /* \"#utility.yul\":7179:7191   */\n      and\n        /* \"#utility.yul\":7210:7228   */\n      dup1\n        /* \"#utility.yul\":7200:7281   */\n      tag_208\n      jumpi\n        /* \"#utility.yul\":7266:7270   */\n      0x7f\n        /* \"#utility.yul\":7258:7264   */\n      dup3\n        /* \"#utility.yul\":7254:7271   */\n      and\n        /* \"#utility.yul\":7244:7271   */\n      swap2\n      pop\n        /* \"#utility.yul\":7200:7281   */\n    tag_208:\n        /* \"#utility.yul\":7328:7330   */\n      0x20\n        /* \"#utility.yul\":7320:7326   */\n      dup3\n        /* \"#utility.yul\":7317:7331   */\n      lt\n        /* \"#utility.yul\":7297:7315   */\n      dup2\n        /* \"#utility.yul\":7294:7332   */\n      eq\n        /* \"#utility.yul\":7291:7375   */\n      iszero\n      tag_209\n      jumpi\n        /* \"#utility.yul\":7347:7365   */\n      tag_210\n      tag_211\n      jump\t// in\n    tag_210:\n        /* \"#utility.yul\":7291:7375   */\n    tag_209:\n        /* \"#utility.yul\":7112:7381   */\n      pop\n        /* \"#utility.yul\":7061:7381   */\n      swap2\n      swap1\n      pop\n      jump\t// out\n        /* \"#utility.yul\":7387:7620   */\n    tag_70:\n        /* \"#utility.yul\":7426:7429   */\n      0x00\n        /* \"#utility.yul\":7449:7473   */\n      tag_213\n        /* \"#utility.yul\":7467:7472   */\n      dup3\n        /* \"#utility.yul\":7449:7473   */\n      tag_169\n      jump\t// in\n    tag_213:\n        /* \"#utility.yul\":7440:7473   */\n      swap2\n      pop\n        /* \"#utility.yul\":7495:7561   */\n      0xffffffffffffffffffffffffffffffffffffffffffffffffffffffffffffffff\n        /* \"#utility.yul\":7488:7493   */\n      dup3\n        /* \"#utility.yul\":7485:7562   */\n      eq\n        /* \"#utility.yul\":7482:7585   */\n      iszero\n      tag_214\n      jumpi\n        /* \"#utility.yul\":7565:7583   */\n      tag_215\n      tag_216\n      jump\t// in\n    tag_215:\n        /* \"#utility.yul\":7482:7585   */\n    tag_214:\n        /* \"#utility.yul\":7612:7613   */\n      0x01\n        /* \"#utility.yul\":7605:7610   */\n      dup3\n        /* \"#utility.yul\":7601:7614   */\n      add\n        /* \"#utility.yul\":7594:7614   */\n      swap1\n      pop\n        /* \"#utility.yul\":7387:7620   */\n      swap2\n      swap1\n      pop\n      jump\t// out\n        /* \"#utility.yul\":7626:7806   */\n    tag_216:\n        /* \"#utility.yul\":7674:7751   */\n      0x4e487b7100000000000000000000000000000000000000000000000000000000\n        /* \"#utility.yul\":7671:7672   */\n      0x00\n        /* \"#utility.yul\":7664:7752   */\n      mstore\n        /* \"#utility.yul\":7771:7775   */\n      0x11\n        /* \"#utility.yul\":7768:7769   */\n      0x04\n        /* \"#utility.yul\":7761:7776   */\n      mstore\n        /* \"#utility.yul\":7795:7799   */\n      0x24\n        /* \"#utility.yul\":7792:7793   */\n      0x00\n        /* \"#utility.yul\":7785:7800   */\n      revert\n        /* \"#utility.yul\":7812:7992   */\n    tag_193:\n        /* \"#utility.yul\":7860:7937   */\n      0x4e487b7100000000000000000000000000000000000000000000000000000000\n        /* \"#utility.yul\":7857:7858   */\n      0x00\n        /* \"#utility.yul\":7850:7938   */\n      mstore\n        /* \"#utility.yul\":7957:7961   */\n      0x12\n        /* \"#utility.yul\":7954:7955   */\n      0x04\n        /* \"#utility.yul\":7947:7962   */\n      mstore\n        /* \"#utility.yul\":7981:7985   */\n      0x24\n        /* \"#utility.yul\":7978:7979   */\n      0x00\n        /* \"#utility.yul\":7971:7986   */\n      revert\n        /* \"#utility.yul\":7998:8178   */\n    tag_211:\n        /* \"#utility.yul\":8046:8123   */\n      0x4e487b7100000000000000000000000000000000000000000000000000000000\n        /* \"#utility.yul\":8043:8044   */\n      0x00\n        /* \"#utility.yul\":8036:8124   */\n      mstore\n        /* \"#utility.yul\":8143:8147   */\n      0x22\n        /* \"#utility.yul\":8140:8141   */\n      0x04\n        /* \"#utility.yul\":8133:8148   */\n      mstore\n        /* \"#utility.yul\":8167:8171   */\n      0x24\n        /* \"#utility.yul\":8164:8165   */\n      0x00\n        /* \"#utility.yul\":8157:8172   */\n      revert\n        /* \"#utility.yul\":8184:8301   */\n    tag_113:\n        /* \"#utility.yul\":8293:8294   */\n      0x00\n        /* \"#utility.yul\":8290:8291   */\n      dup1\n        /* \"#utility.yul\":8283:8295   */\n      revert\n        /* \"#utility.yul\":8307:8424   */\n    tag_110:\n        /* \"#utility.yul\":8416:8417   */\n      0x00\n        /* \"#utility.yul\":8413:8414   */\n      dup1\n        /* \"#utility.yul\":8406:8418   */\n      revert\n        /* \"#utility.yul\":8430:8547   */\n    tag_116:\n        /* \"#utility.yul\":8539:8540   */\n      0x00\n        /* \"#utility.yul\":8536:8537   */\n      dup1\n        /* \"#utility.yul\":8529:8541   */\n      revert\n        /* \"#utility.yul\":8553:8670   */\n    tag_131:\n        /* \"#utility.yul\":8662:8663   */\n      0x00\n        /* \"#utility.yul\":8659:8660   */\n      dup1\n        /* \"#utility.yul\":8652:8664   */\n      revert\n        /* \"#utility.yul\":8676:8793   */\n    tag_124:\n        /* \"#utility.yul\":8785:8786   */\n      0x00\n        /* \"#utility.yul\":8782:8783   */\n      dup1\n        /* \"#utility.yul\":8775:8787   */\n      revert\n        /* \"#utility.yul\":8799:8901   */\n    tag_160:\n        /* \"#utility.yul\":8840:8846   */\n      0x00\n        /* \"#utility.yul\":8891:8893   */\n      0x1f\n        /* \"#utility.yul\":8887:8894   */\n      not\n        /* \"#utility.yul\":8882:8884   */\n      0x1f\n        /* \"#utility.yul\":8875:8880   */\n      dup4\n        /* \"#utility.yul\":8871:8885   */\n      add\n        /* \"#utility.yul\":8867:8895   */\n      and\n        /* \"#utility.yul\":8857:8895   */\n      swap1\n      pop\n        /* \"#utility.yul\":8799:8901   */\n      swap2\n      swap1\n      pop\n      jump\t// out\n        /* \"#utility.yul\":8907:9087   */\n    tag_165:\n        /* \"#utility.yul\":9047:9079   */\n      0x4f6e6c79206f776e65722063616e206372656174652063616d706169676e0000\n        /* \"#utility.yul\":9043:9044   */\n      0x00\n        /* \"#utility.yul\":9035:9041   */\n      dup3\n        /* \"#utility.yul\":9031:9045   */\n      add\n        /* \"#utility.yul\":9024:9080   */\n      mstore\n        /* \"#utility.yul\":8907:9087   */\n      pop\n      jump\t// out\n        /* \"#utility.yul\":9093:9215   */\n    tag_101:\n        /* \"#utility.yul\":9166:9190   */\n      tag_228\n        /* \"#utility.yul\":9184:9189   */\n      dup2\n        /* \"#utility.yul\":9166:9190   */\n      tag_146\n      jump\t// in\n    tag_228:\n        /* \"#utility.yul\":9159:9164   */\n      dup2\n        /* \"#utility.yul\":9156:9191   */\n      eq\n        /* \"#utility.yul\":9146:9209   */\n      tag_229\n      jumpi\n        /* \"#utility.yul\":9205:9206   */\n      0x00\n        /* \"#utility.yul\":9202:9203   */\n      dup1\n        /* \"#utility.yul\":9195:9207   */\n      revert\n        /* \"#utility.yul\":9146:9209   */\n    tag_229:\n        /* \"#utility.yul\":9093:9215   */\n      pop\n      jump\t// out\n        /* \"#utility.yul\":9221:9359   */\n    tag_105:\n        /* \"#utility.yul\":9302:9334   */\n      tag_231\n        /* \"#utility.yul\":9328:9333   */\n      dup2\n        /* \"#utility.yul\":9302:9334   */\n      tag_142\n      jump\t// in\n    tag_231:\n        /* \"#utility.yul\":9295:9300   */\n      dup2\n        /* \"#utility.yul\":9292:9335   */\n      eq\n        /* \"#utility.yul\":9282:9353   */\n      tag_232\n      jumpi\n        /* \"#utility.yul\":9349:9350   */\n      0x00\n        /* \"#utility.yul\":9346:9347   */\n      dup1\n        /* \"#utility.yul\":9339:9351   */\n      revert\n        /* \"#utility.yul\":9282:9353   */\n    tag_232:\n        /* \"#utility.yul\":9221:9359   */\n      pop\n      jump\t// out\n        /* \"#utility.yul\":9365:9487   */\n    tag_120:\n        /* \"#utility.yul\":9438:9462   */\n      tag_234\n        /* \"#utility.yul\":9456:9461   */\n      dup2\n        /* \"#utility.yul\":9438:9462   */\n      tag_169\n      jump\t// in\n    tag_234:\n        /* \"#utility.yul\":9431:9436   */\n      dup2\n        /* \"#utility.yul\":9428:9463   */\n      eq\n        /* \"#utility.yul\":9418:9481   */\n      tag_235\n      jumpi\n        /* \"#utility.yul\":9477:9478   */\n      0x00\n        /* \"#utility.yul\":9474:9475   */\n      dup1\n        /* \"#utility.yul\":9467:9479   */\n      revert\n        /* \"#utility.yul\":9418:9481   */\n    tag_235:\n        /* \"#utility.yul\":9365:9487   */\n      pop\n      jump\t// out\n\n    auxdata: 0xa2646970667358221220b88722cd9308672642de55524e70409939bb7e2d86750a28c9cf14dd41d29a9464736f6c63430008070033\n}\n",
				"bytecode": {
					"linkReferences": {},
					"object": "60806040523480156200001157600080fd5b5060405162000f5b38038062000f5b8339818101604052810190620000379190620000b4565b806000806101000a81548173ffffffffffffffffffffffffffffffffffffffff021916908373ffffffffffffffffffffffffffffffffffffffff16021790555081600181905550505062000172565b60008151905062000097816200013e565b92915050565b600081519050620000ae8162000158565b92915050565b60008060408385031215620000ce57620000cd62000139565b5b6000620000de858286016200009d565b9250506020620000f18582860162000086565b9150509250929050565b600062000108826200010f565b9050919050565b600073ffffffffffffffffffffffffffffffffffffffff82169050919050565b6000819050919050565b600080fd5b6200014981620000fb565b81146200015557600080fd5b50565b62000163816200012f565b81146200016f57600080fd5b50565b610dd980620001826000396000f3fe6080604052600436106100865760003560e01c80638a9cfd55116100595780638a9cfd551461015b5780638da5cb5b1461018457806398c07938146101af578063aaffadf3146101da578063d7bb99ba1461020557610086565b8063034410061461008b5780630a144391146100b45780634e08ac85146100f157806381d12c581461011a575b600080fd5b34801561009757600080fd5b506100b260048036038101906100ad9190610999565b61020f565b005b3480156100c057600080fd5b506100db60048036038101906100d691906108f8565b61037e565b6040516100e89190610a79565b60405180910390f35b3480156100fd57600080fd5b5061011860048036038101906101139190610999565b61039e565b005b34801561012657600080fd5b50610141600480360381019061013c9190610999565b6104dc565b604051610152959493929190610a94565b60405180910390f35b34801561016757600080fd5b50610182600480360381019061017d9190610925565b6105c7565b005b34801561019057600080fd5b50610199610710565b6040516101a69190610a5e565b60405180910390f35b3480156101bb57600080fd5b506101c4610734565b6040516101d19190610b0e565b60405180910390f35b3480156101e657600080fd5b506101ef61073a565b6040516101fc9190610b0e565b60405180910390f35b61020d610740565b005b60008054906101000a900473ffffffffffffffffffffffffffffffffffffffff1673ffffffffffffffffffffffffffffffffffffffff163373ffffffffffffffffffffffffffffffffffffffff161461029d576040517f08c379a000000000000000000000000000000000000000000000000000000000815260040161029490610aee565b60405180910390fd5b600060056000838152602001908152602001600020905060026003546102c39190610b45565b8160040154116102d257600080fd5b8060020160149054906101000a900460ff16156102ee57600080fd5b8060020160009054906101000a900473ffffffffffffffffffffffffffffffffffffffff1673ffffffffffffffffffffffffffffffffffffffff166108fc82600101549081150290604051600060405180830381858888f1935050505015801561035c573d6000803e3d6000fd5b5060018160020160146101000a81548160ff0219169083151502179055505050565b60026020528060005260406000206000915054906101000a900460ff1681565b6000600560008381526020019081526020016000209050600260003373ffffffffffffffffffffffffffffffffffffffff1673ffffffffffffffffffffffffffffffffffffffff16815260200190815260200160002060009054906101000a900460ff1661040b57600080fd5b8060030160003373ffffffffffffffffffffffffffffffffffffffff1673ffffffffffffffffffffffffffffffffffffffff16815260200190815260200160002060009054906101000a900460ff161561046457600080fd5b60018160030160003373ffffffffffffffffffffffffffffffffffffffff1673ffffffffffffffffffffffffffffffffffffffff16815260200190815260200160002060006101000a81548160ff0219169083151502179055508060040160008154809291906104d390610c35565b91905055505050565b60056020528060005260406000206000915090508060000180546104ff90610c03565b80601f016020809104026020016040519081016040528092919081815260200182805461052b90610c03565b80156105785780601f1061054d57610100808354040283529160200191610578565b820191906000526020600020905b81548152906001019060200180831161055b57829003601f168201915b5050505050908060010154908060020160009054906101000a900473ffffffffffffffffffffffffffffffffffffffff16908060020160149054906101000a900460ff16908060040154905085565b60008054906101000a900473ffffffffffffffffffffffffffffffffffffffff1673ffffffffffffffffffffffffffffffffffffffff163373ffffffffffffffffffffffffffffffffffffffff1614610655576040517f08c379a000000000000000000000000000000000000000000000000000000000815260040161064c90610aee565b60405180910390fd5b6000600560006004600081548092919061066e90610c35565b919050558152602001908152602001600020905084848260000191906106959291906107c0565b50828160010181905550818160020160006101000a81548173ffffffffffffffffffffffffffffffffffffffff021916908373ffffffffffffffffffffffffffffffffffffffff16021790555060008160020160146101000a81548160ff021916908315150217905550600081600401819055505050505050565b60008054906101000a900473ffffffffffffffffffffffffffffffffffffffff1681565b60035481565b60015481565b600154341161074e57600080fd5b6001600260003373ffffffffffffffffffffffffffffffffffffffff1673ffffffffffffffffffffffffffffffffffffffff16815260200190815260200160002060006101000a81548160ff021916908315150217905550600360008154809291906107b990610c35565b9190505550565b8280546107cc90610c03565b90600052602060002090601f0160209004810192826107ee5760008555610835565b82601f1061080757803560ff1916838001178555610835565b82800160010185558215610835579182015b82811115610834578235825591602001919060010190610819565b5b5090506108429190610846565b5090565b5b8082111561085f576000816000905550600101610847565b5090565b60008135905061087281610d5e565b92915050565b60008135905061088781610d75565b92915050565b60008083601f8401126108a3576108a2610d10565b5b8235905067ffffffffffffffff8111156108c0576108bf610d0b565b5b6020830191508360018202830111156108dc576108db610d15565b5b9250929050565b6000813590506108f281610d8c565b92915050565b60006020828403121561090e5761090d610d1f565b5b600061091c84828501610863565b91505092915050565b6000806000806060858703121561093f5761093e610d1f565b5b600085013567ffffffffffffffff81111561095d5761095c610d1a565b5b6109698782880161088d565b9450945050602061097c878288016108e3565b925050604061098d87828801610878565b91505092959194509250565b6000602082840312156109af576109ae610d1f565b5b60006109bd848285016108e3565b91505092915050565b6109cf81610b88565b82525050565b6109de81610b76565b82525050565b6109ed81610b9a565b82525050565b60006109fe82610b29565b610a088185610b34565b9350610a18818560208601610bd0565b610a2181610d24565b840191505092915050565b6000610a39601e83610b34565b9150610a4482610d35565b602082019050919050565b610a5881610bc6565b82525050565b6000602082019050610a7360008301846109d5565b92915050565b6000602082019050610a8e60008301846109e4565b92915050565b600060a0820190508181036000830152610aae81886109f3565b9050610abd6020830187610a4f565b610aca60408301866109c6565b610ad760608301856109e4565b610ae46080830184610a4f565b9695505050505050565b60006020820190508181036000830152610b0781610a2c565b9050919050565b6000602082019050610b236000830184610a4f565b92915050565b600081519050919050565b600082825260208201905092915050565b6000610b5082610bc6565b9150610b5b83610bc6565b925082610b6b57610b6a610cad565b5b828204905092915050565b6000610b8182610ba6565b9050919050565b6000610b9382610ba6565b9050919050565b60008115159050919050565b600073ffffffffffffffffffffffffffffffffffffffff82169050919050565b6000819050919050565b60005b83811015610bee578082015181840152602081019050610bd3565b83811115610bfd576000848401525b50505050565b60006002820490506001821680610c1b57607f821691505b60208210811415610c2f57610c2e610cdc565b5b50919050565b6000610c4082610bc6565b91507fffffffffffffffffffffffffffffffffffffffffffffffffffffffffffffffff821415610c7357610c72610c7e565b5b600182019050919050565b7f4e487b7100000000000000000000000000000000000000000000000000000000600052601160045260246000fd5b7f4e487b7100000000000000000000000000000000000000000000000000000000600052601260045260246000fd5b7f4e487b7100000000000000000000000000000000000000000000000000000000600052602260045260246000fd5b600080fd5b600080fd5b600080fd5b600080fd5b600080fd5b6000601f19601f8301169050919050565b7f4f6e6c79206f776e65722063616e206372656174652063616d706169676e0000600082015250565b610d6781610b76565b8114610d7257600080fd5b50565b610d7e81610b88565b8114610d8957600080fd5b50565b610d9581610bc6565b8114610da057600080fd5b5056fea2646970667358221220b88722cd9308672642de55524e70409939bb7e2d86750a28c9cf14dd41d29a9464736f6c63430008070033",
					"opcodes": "PUSH1 0x80 PUSH1 0x40 MSTORE CALLVALUE DUP1 ISZERO PUSH3 0x11 JUMPI PUSH1 0x0 DUP1 REVERT JUMPDEST POP PUSH1 0x40 MLOAD PUSH3 0xF5B CODESIZE SUB DUP1 PUSH3 0xF5B DUP4 CODECOPY DUP2 DUP2 ADD PUSH1 0x40 MSTORE DUP2 ADD SWAP1 PUSH3 0x37 SWAP2 SWAP1 PUSH3 0xB4 JUMP JUMPDEST DUP1 PUSH1 0x0 DUP1 PUSH2 0x100 EXP DUP2 SLOAD DUP2 PUSH20 0xFFFFFFFFFFFFFFFFFFFFFFFFFFFFFFFFFFFFFFFF MUL NOT AND SWAP1 DUP4 PUSH20 0xFFFFFFFFFFFFFFFFFFFFFFFFFFFFFFFFFFFFFFFF AND MUL OR SWAP1 SSTORE POP DUP2 PUSH1 0x1 DUP2 SWAP1 SSTORE POP POP POP PUSH3 0x172 JUMP JUMPDEST PUSH1 0x0 DUP2 MLOAD SWAP1 POP PUSH3 0x97 DUP2 PUSH3 0x13E JUMP JUMPDEST SWAP3 SWAP2 POP POP JUMP JUMPDEST PUSH1 0x0 DUP2 MLOAD SWAP1 POP PUSH3 0xAE DUP2 PUSH3 0x158 JUMP JUMPDEST SWAP3 SWAP2 POP POP JUMP JUMPDEST PUSH1 0x0 DUP1 PUSH1 0x40 DUP4 DUP6 SUB SLT ISZERO PUSH3 0xCE JUMPI PUSH3 0xCD PUSH3 0x139 JUMP JUMPDEST JUMPDEST PUSH1 0x0 PUSH3 0xDE DUP6 DUP3 DUP7 ADD PUSH3 0x9D JUMP JUMPDEST SWAP3 POP POP PUSH1 0x20 PUSH3 0xF1 DUP6 DUP3 DUP7 ADD PUSH3 0x86 JUMP JUMPDEST SWAP2 POP POP SWAP3 POP SWAP3 SWAP1 POP JUMP JUMPDEST PUSH1 0x0 PUSH3 0x108 DUP3 PUSH3 0x10F JUMP JUMPDEST SWAP1 POP SWAP2 SWAP1 POP JUMP JUMPDEST PUSH1 0x0 PUSH20 0xFFFFFFFFFFFFFFFFFFFFFFFFFFFFFFFFFFFFFFFF DUP3 AND SWAP1 POP SWAP2 SWAP1 POP JUMP JUMPDEST PUSH1 0x0 DUP2 SWAP1 POP SWAP2 SWAP1 POP JUMP JUMPDEST PUSH1 0x0 DUP1 REVERT JUMPDEST PUSH3 0x149 DUP2 PUSH3 0xFB JUMP JUMPDEST DUP2 EQ PUSH3 0x155 JUMPI PUSH1 0x0 DUP1 REVERT JUMPDEST POP JUMP JUMPDEST PUSH3 0x163 DUP2 PUSH3 0x12F JUMP JUMPDEST DUP2 EQ PUSH3 0x16F JUMPI PUSH1 0x0 DUP1 REVERT JUMPDEST POP JUMP JUMPDEST PUSH2 0xDD9 DUP1 PUSH3 0x182 PUSH1 0x0 CODECOPY PUSH1 0x0 RETURN INVALID PUSH1 0x80 PUSH1 0x40 MSTORE PUSH1 0x4 CALLDATASIZE LT PUSH2 0x86 JUMPI PUSH1 0x0 CALLDATALOAD PUSH1 0xE0 SHR DUP1 PUSH4 0x8A9CFD55 GT PUSH2 0x59 JUMPI DUP1 PUSH4 0x8A9CFD55 EQ PUSH2 0x15B JUMPI DUP1 PUSH4 0x8DA5CB5B EQ PUSH2 0x184 JUMPI DUP1 PUSH4 0x98C07938 EQ PUSH2 0x1AF JUMPI DUP1 PUSH4 0xAAFFADF3 EQ PUSH2 0x1DA JUMPI DUP1 PUSH4 0xD7BB99BA EQ PUSH2 0x205 JUMPI PUSH2 0x86 JUMP JUMPDEST DUP1 PUSH4 0x3441006 EQ PUSH2 0x8B JUMPI DUP1 PUSH4 0xA144391 EQ PUSH2 0xB4 JUMPI DUP1 PUSH4 0x4E08AC85 EQ PUSH2 0xF1 JUMPI DUP1 PUSH4 0x81D12C58 EQ PUSH2 0x11A JUMPI JUMPDEST PUSH1 0x0 DUP1 REVERT JUMPDEST CALLVALUE DUP1 ISZERO PUSH2 0x97 JUMPI PUSH1 0x0 DUP1 REVERT JUMPDEST POP PUSH2 0xB2 PUSH1 0x4 DUP1 CALLDATASIZE SUB DUP2 ADD SWAP1 PUSH2 0xAD SWAP2 SWAP1 PUSH2 0x999 JUMP JUMPDEST PUSH2 0x20F JUMP JUMPDEST STOP JUMPDEST CALLVALUE DUP1 ISZERO PUSH2 0xC0 JUMPI PUSH1 0x0 DUP1 REVERT JUMPDEST POP PUSH2 0xDB PUSH1 0x4 DUP1 CALLDATASIZE SUB DUP2 ADD SWAP1 PUSH2 0xD6 SWAP2 SWAP1 PUSH2 0x8F8 JUMP JUMPDEST PUSH2 0x37E JUMP JUMPDEST PUSH1 0x40 MLOAD PUSH2 0xE8 SWAP2 SWAP1 PUSH2 0xA79 JUMP JUMPDEST PUSH1 0x40 MLOAD DUP1 SWAP2 SUB SWAP1 RETURN JUMPDEST CALLVALUE DUP1 ISZERO PUSH2 0xFD JUMPI PUSH1 0x0 DUP1 REVERT JUMPDEST POP PUSH2 0x118 PUSH1 0x4 DUP1 CALLDATASIZE SUB DUP2 ADD SWAP1 PUSH2 0x113 SWAP2 SWAP1 PUSH2 0x999 JUMP JUMPDEST PUSH2 0x39E JUMP JUMPDEST STOP JUMPDEST CALLVALUE DUP1 ISZERO PUSH2 0x126 JUMPI PUSH1 0x0 DUP1 REVERT JUMPDEST POP PUSH2 0x141 PUSH1 0x4 DUP1 CALLDATASIZE SUB DUP2 ADD SWAP1 PUSH2 0x13C SWAP2 SWAP1 PUSH2 0x999 JUMP JUMPDEST PUSH2 0x4DC JUMP JUMPDEST PUSH1 0x40 MLOAD PUSH2 0x152 SWAP6 SWAP5 SWAP4 SWAP3 SWAP2 SWAP1 PUSH2 0xA94 JUMP JUMPDEST PUSH1 0x40 MLOAD DUP1 SWAP2 SUB SWAP1 RETURN JUMPDEST CALLVALUE DUP1 ISZERO PUSH2 0x167 JUMPI PUSH1 0x0 DUP1 REVERT JUMPDEST POP PUSH2 0x182 PUSH1 0x4 DUP1 CALLDATASIZE SUB DUP2 ADD SWAP1 PUSH2 0x17D SWAP2 SWAP1 PUSH2 0x925 JUMP JUMPDEST PUSH2 0x5C7 JUMP JUMPDEST STOP JUMPDEST CALLVALUE DUP1 ISZERO PUSH2 0x190 JUMPI PUSH1 0x0 DUP1 REVERT JUMPDEST POP PUSH2 0x199 PUSH2 0x710 JUMP JUMPDEST PUSH1 0x40 MLOAD PUSH2 0x1A6 SWAP2 SWAP1 PUSH2 0xA5E JUMP JUMPDEST PUSH1 0x40 MLOAD DUP1 SWAP2 SUB SWAP1 RETURN JUMPDEST CALLVALUE DUP1 ISZERO PUSH2 0x1BB JUMPI PUSH1 0x0 DUP1 REVERT JUMPDEST POP PUSH2 0x1C4 PUSH2 0x734 JUMP JUMPDEST PUSH1 0x40 MLOAD PUSH2 0x1D1 SWAP2 SWAP1 PUSH2 0xB0E JUMP JUMPDEST PUSH1 0x40 MLOAD DUP1 SWAP2 SUB SWAP1 RETURN JUMPDEST CALLVALUE DUP1 ISZERO PUSH2 0x1E6 JUMPI PUSH1 0x0 DUP1 REVERT JUMPDEST POP PUSH2 0x1EF PUSH2 0x73A JUMP JUMPDEST PUSH1 0x40 MLOAD PUSH2 0x1FC SWAP2 SWAP1 PUSH2 0xB0E JUMP JUMPDEST PUSH1 0x40 MLOAD DUP1 SWAP2 SUB SWAP1 RETURN JUMPDEST PUSH2 0x20D PUSH2 0x740 JUMP JUMPDEST STOP JUMPDEST PUSH1 0x0 DUP1 SLOAD SWAP1 PUSH2 0x100 EXP SWAP1 DIV PUSH20 0xFFFFFFFFFFFFFFFFFFFFFFFFFFFFFFFFFFFFFFFF AND PUSH20 0xFFFFFFFFFFFFFFFFFFFFFFFFFFFFFFFFFFFFFFFF AND CALLER PUSH20 0xFFFFFFFFFFFFFFFFFFFFFFFFFFFFFFFFFFFFFFFF AND EQ PUSH2 0x29D JUMPI PUSH1 0x40 MLOAD PUSH32 0x8C379A000000000000000000000000000000000000000000000000000000000 DUP2 MSTORE PUSH1 0x4 ADD PUSH2 0x294 SWAP1 PUSH2 0xAEE JUMP JUMPDEST PUSH1 0x40 MLOAD DUP1 SWAP2 SUB SWAP1 REVERT JUMPDEST PUSH1 0x0 PUSH1 0x5 PUSH1 0x0 DUP4 DUP2 MSTORE PUSH1 0x20 ADD SWAP1 DUP2 MSTORE PUSH1 0x20 ADD PUSH1 0x0 KECCAK256 SWAP1 POP PUSH1 0x2 PUSH1 0x3 SLOAD PUSH2 0x2C3 SWAP2 SWAP1 PUSH2 0xB45 JUMP JUMPDEST DUP2 PUSH1 0x4 ADD SLOAD GT PUSH2 0x2D2 JUMPI PUSH1 0x0 DUP1 REVERT JUMPDEST DUP1 PUSH1 0x2 ADD PUSH1 0x14 SWAP1 SLOAD SWAP1 PUSH2 0x100 EXP SWAP1 DIV PUSH1 0xFF AND ISZERO PUSH2 0x2EE JUMPI PUSH1 0x0 DUP1 REVERT JUMPDEST DUP1 PUSH1 0x2 ADD PUSH1 0x0 SWAP1 SLOAD SWAP1 PUSH2 0x100 EXP SWAP1 DIV PUSH20 0xFFFFFFFFFFFFFFFFFFFFFFFFFFFFFFFFFFFFFFFF AND PUSH20 0xFFFFFFFFFFFFFFFFFFFFFFFFFFFFFFFFFFFFFFFF AND PUSH2 0x8FC DUP3 PUSH1 0x1 ADD SLOAD SWAP1 DUP2 ISZERO MUL SWAP1 PUSH1 0x40 MLOAD PUSH1 0x0 PUSH1 0x40 MLOAD DUP1 DUP4 SUB DUP2 DUP6 DUP9 DUP9 CALL SWAP4 POP POP POP POP ISZERO DUP1 ISZERO PUSH2 0x35C JUMPI RETURNDATASIZE PUSH1 0x0 DUP1 RETURNDATACOPY RETURNDATASIZE PUSH1 0x0 REVERT JUMPDEST POP PUSH1 0x1 DUP2 PUSH1 0x2 ADD PUSH1 0x14 PUSH2 0x100 EXP DUP2 SLOAD DUP2 PUSH1 0xFF MUL NOT AND SWAP1 DUP4 ISZERO ISZERO MUL OR SWAP1 SSTORE POP POP POP JUMP JUMPDEST PUSH1 0x2 PUSH1 0x20 MSTORE DUP1 PUSH1 0x0 MSTORE PUSH1 0x40 PUSH1 0x0 KECCAK256 PUSH1 0x0 SWAP2 POP SLOAD SWAP1 PUSH2 0x100 EXP SWAP1 DIV PUSH1 0xFF AND DUP2 JUMP JUMPDEST PUSH1 0x0 PUSH1 0x5 PUSH1 0x0 DUP4 DUP2 MSTORE PUSH1 0x20 ADD SWAP1 DUP2 MSTORE PUSH1 0x20 ADD PUSH1 0x0 KECCAK256 SWAP1 POP PUSH1 0x2 PUSH1 0x0 CALLER PUSH20 0xFFFFFFFFFFFFFFFFFFFFFFFFFFFFFFFFFFFFFFFF AND PUSH20 0xFFFFFFFFFFFFFFFFFFFFFFFFFFFFFFFFFFFFFFFF AND DUP2 MSTORE PUSH1 0x20 ADD SWAP1 DUP2 MSTORE PUSH1 0x20 ADD PUSH1 0x0 KECCAK256 PUSH1 0x0 SWAP1 SLOAD SWAP1 PUSH2 0x100 EXP SWAP1 DIV PUSH1 0xFF AND PUSH2 0x40B JUMPI PUSH1 0x0 DUP1 REVERT JUMPDEST DUP1 PUSH1 0x3 ADD PUSH1 0x0 CALLER PUSH20 0xFFFFFFFFFFFFFFFFFFFFFFFFFFFFFFFFFFFFFFFF AND PUSH20 0xFFFFFFFFFFFFFFFFFFFFFFFFFFFFFFFFFFFFFFFF AND DUP2 MSTORE PUSH1 0x20 ADD SWAP1 DUP2 MSTORE PUSH1 0x20 ADD PUSH1 0x0 KECCAK256 PUSH1 0x0 SWAP1 SLOAD SWAP1 PUSH2 0x100 EXP SWAP1 DIV PUSH1 0xFF AND ISZERO PUSH2 0x464 JUMPI PUSH1 0x0 DUP1 REVERT JUMPDEST PUSH1 0x1 DUP2 PUSH1 0x3 ADD PUSH1 0x0 CALLER PUSH20 0xFFFFFFFFFFFFFFFFFFFFFFFFFFFFFFFFFFFFFFFF AND PUSH20 0xFFFFFFFFFFFFFFFFFFFFFFFFFFFFFFFFFFFFFFFF AND DUP2 MSTORE PUSH1 0x20 ADD SWAP1 DUP2 MSTORE PUSH1 0x20 ADD PUSH1 0x0 KECCAK256 PUSH1 0x0 PUSH2 0x100 EXP DUP2 SLOAD DUP2 PUSH1 0xFF MUL NOT AND SWAP1 DUP4 ISZERO ISZERO MUL OR SWAP1 SSTORE POP DUP1 PUSH1 0x4 ADD PUSH1 0x0 DUP2 SLOAD DUP1 SWAP3 SWAP2 SWAP1 PUSH2 0x4D3 SWAP1 PUSH2 0xC35 JUMP JUMPDEST SWAP2 SWAP1 POP SSTORE POP POP POP JUMP JUMPDEST PUSH1 0x5 PUSH1 0x20 MSTORE DUP1 PUSH1 0x0 MSTORE PUSH1 0x40 PUSH1 0x0 KECCAK256 PUSH1 0x0 SWAP2 POP SWAP1 POP DUP1 PUSH1 0x0 ADD DUP1 SLOAD PUSH2 0x4FF SWAP1 PUSH2 0xC03 JUMP JUMPDEST DUP1 PUSH1 0x1F ADD PUSH1 0x20 DUP1 SWAP2 DIV MUL PUSH1 0x20 ADD PUSH1 0x40 MLOAD SWAP1 DUP2 ADD PUSH1 0x40 MSTORE DUP1 SWAP3 SWAP2 SWAP1 DUP2 DUP2 MSTORE PUSH1 0x20 ADD DUP3 DUP1 SLOAD PUSH2 0x52B SWAP1 PUSH2 0xC03 JUMP JUMPDEST DUP1 ISZERO PUSH2 0x578 JUMPI DUP1 PUSH1 0x1F LT PUSH2 0x54D JUMPI PUSH2 0x100 DUP1 DUP4 SLOAD DIV MUL DUP4 MSTORE SWAP2 PUSH1 0x20 ADD SWAP2 PUSH2 0x578 JUMP JUMPDEST DUP3 ADD SWAP2 SWAP1 PUSH1 0x0 MSTORE PUSH1 0x20 PUSH1 0x0 KECCAK256 SWAP1 JUMPDEST DUP2 SLOAD DUP2 MSTORE SWAP1 PUSH1 0x1 ADD SWAP1 PUSH1 0x20 ADD DUP1 DUP4 GT PUSH2 0x55B JUMPI DUP3 SWAP1 SUB PUSH1 0x1F AND DUP3 ADD SWAP2 JUMPDEST POP POP POP POP POP SWAP1 DUP1 PUSH1 0x1 ADD SLOAD SWAP1 DUP1 PUSH1 0x2 ADD PUSH1 0x0 SWAP1 SLOAD SWAP1 PUSH2 0x100 EXP SWAP1 DIV PUSH20 0xFFFFFFFFFFFFFFFFFFFFFFFFFFFFFFFFFFFFFFFF AND SWAP1 DUP1 PUSH1 0x2 ADD PUSH1 0x14 SWAP1 SLOAD SWAP1 PUSH2 0x100 EXP SWAP1 DIV PUSH1 0xFF AND SWAP1 DUP1 PUSH1 0x4 ADD SLOAD SWAP1 POP DUP6 JUMP JUMPDEST PUSH1 0x0 DUP1 SLOAD SWAP1 PUSH2 0x100 EXP SWAP1 DIV PUSH20 0xFFFFFFFFFFFFFFFFFFFFFFFFFFFFFFFFFFFFFFFF AND PUSH20 0xFFFFFFFFFFFFFFFFFFFFFFFFFFFFFFFFFFFFFFFF AND CALLER PUSH20 0xFFFFFFFFFFFFFFFFFFFFFFFFFFFFFFFFFFFFFFFF AND EQ PUSH2 0x655 JUMPI PUSH1 0x40 MLOAD PUSH32 0x8C379A000000000000000000000000000000000000000000000000000000000 DUP2 MSTORE PUSH1 0x4 ADD PUSH2 0x64C SWAP1 PUSH2 0xAEE JUMP JUMPDEST PUSH1 0x40 MLOAD DUP1 SWAP2 SUB SWAP1 REVERT JUMPDEST PUSH1 0x0 PUSH1 0x5 PUSH1 0x0 PUSH1 0x4 PUSH1 0x0 DUP2 SLOAD DUP1 SWAP3 SWAP2 SWAP1 PUSH2 0x66E SWAP1 PUSH2 0xC35 JUMP JUMPDEST SWAP2 SWAP1 POP SSTORE DUP2 MSTORE PUSH1 0x20 ADD SWAP1 DUP2 MSTORE PUSH1 0x20 ADD PUSH1 0x0 KECCAK256 SWAP1 POP DUP5 DUP5 DUP3 PUSH1 0x0 ADD SWAP2 SWAP1 PUSH2 0x695 SWAP3 SWAP2 SWAP1 PUSH2 0x7C0 JUMP JUMPDEST POP DUP3 DUP2 PUSH1 0x1 ADD DUP2 SWAP1 SSTORE POP DUP2 DUP2 PUSH1 0x2 ADD PUSH1 0x0 PUSH2 0x100 EXP DUP2 SLOAD DUP2 PUSH20 0xFFFFFFFFFFFFFFFFFFFFFFFFFFFFFFFFFFFFFFFF MUL NOT AND SWAP1 DUP4 PUSH20 0xFFFFFFFFFFFFFFFFFFFFFFFFFFFFFFFFFFFFFFFF AND MUL OR SWAP1 SSTORE POP PUSH1 0x0 DUP2 PUSH1 0x2 ADD PUSH1 0x14 PUSH2 0x100 EXP DUP2 SLOAD DUP2 PUSH1 0xFF MUL NOT AND SWAP1 DUP4 ISZERO ISZERO MUL OR SWAP1 SSTORE POP PUSH1 0x0 DUP2 PUSH1 0x4 ADD DUP2 SWAP1 SSTORE POP POP POP POP POP POP JUMP JUMPDEST PUSH1 0x0 DUP1 SLOAD SWAP1 PUSH2 0x100 EXP SWAP1 DIV PUSH20 0xFFFFFFFFFFFFFFFFFFFFFFFFFFFFFFFFFFFFFFFF AND DUP2 JUMP JUMPDEST PUSH1 0x3 SLOAD DUP2 JUMP JUMPDEST PUSH1 0x1 SLOAD DUP2 JUMP JUMPDEST PUSH1 0x1 SLOAD CALLVALUE GT PUSH2 0x74E JUMPI PUSH1 0x0 DUP1 REVERT JUMPDEST PUSH1 0x1 PUSH1 0x2 PUSH1 0x0 CALLER PUSH20 0xFFFFFFFFFFFFFFFFFFFFFFFFFFFFFFFFFFFFFFFF AND PUSH20 0xFFFFFFFFFFFFFFFFFFFFFFFFFFFFFFFFFFFFFFFF AND DUP2 MSTORE PUSH1 0x20 ADD SWAP1 DUP2 MSTORE PUSH1 0x20 ADD PUSH1 0x0 KECCAK256 PUSH1 0x0 PUSH2 0x100 EXP DUP2 SLOAD DUP2 PUSH1 0xFF MUL NOT AND SWAP1 DUP4 ISZERO ISZERO MUL OR SWAP1 SSTORE POP PUSH1 0x3 PUSH1 0x0 DUP2 SLOAD DUP1 SWAP3 SWAP2 SWAP1 PUSH2 0x7B9 SWAP1 PUSH2 0xC35 JUMP JUMPDEST SWAP2 SWAP1 POP SSTORE POP JUMP JUMPDEST DUP3 DUP1 SLOAD PUSH2 0x7CC SWAP1 PUSH2 0xC03 JUMP JUMPDEST SWAP1 PUSH1 0x0 MSTORE PUSH1 0x20 PUSH1 0x0 KECCAK256 SWAP1 PUSH1 0x1F ADD PUSH1 0x20 SWAP1 DIV DUP2 ADD SWAP3 DUP3 PUSH2 0x7EE JUMPI PUSH1 0x0 DUP6 SSTORE PUSH2 0x835 JUMP JUMPDEST DUP3 PUSH1 0x1F LT PUSH2 0x807 JUMPI DUP1 CALLDATALOAD PUSH1 0xFF NOT AND DUP4 DUP1 ADD OR DUP6 SSTORE PUSH2 0x835 JUMP JUMPDEST DUP3 DUP1 ADD PUSH1 0x1 ADD DUP6 SSTORE DUP3 ISZERO PUSH2 0x835 JUMPI SWAP2 DUP3 ADD JUMPDEST DUP3 DUP2 GT ISZERO PUSH2 0x834 JUMPI DUP3 CALLDATALOAD DUP3 SSTORE SWAP2 PUSH1 0x20 ADD SWAP2 SWAP1 PUSH1 0x1 ADD SWAP1 PUSH2 0x819 JUMP JUMPDEST JUMPDEST POP SWAP1 POP PUSH2 0x842 SWAP2 SWAP1 PUSH2 0x846 JUMP JUMPDEST POP SWAP1 JUMP JUMPDEST JUMPDEST DUP1 DUP3 GT ISZERO PUSH2 0x85F JUMPI PUSH1 0x0 DUP2 PUSH1 0x0 SWAP1 SSTORE POP PUSH1 0x1 ADD PUSH2 0x847 JUMP JUMPDEST POP SWAP1 JUMP JUMPDEST PUSH1 0x0 DUP2 CALLDATALOAD SWAP1 POP PUSH2 0x872 DUP2 PUSH2 0xD5E JUMP JUMPDEST SWAP3 SWAP2 POP POP JUMP JUMPDEST PUSH1 0x0 DUP2 CALLDATALOAD SWAP1 POP PUSH2 0x887 DUP2 PUSH2 0xD75 JUMP JUMPDEST SWAP3 SWAP2 POP POP JUMP JUMPDEST PUSH1 0x0 DUP1 DUP4 PUSH1 0x1F DUP5 ADD SLT PUSH2 0x8A3 JUMPI PUSH2 0x8A2 PUSH2 0xD10 JUMP JUMPDEST JUMPDEST DUP3 CALLDATALOAD SWAP1 POP PUSH8 0xFFFFFFFFFFFFFFFF DUP2 GT ISZERO PUSH2 0x8C0 JUMPI PUSH2 0x8BF PUSH2 0xD0B JUMP JUMPDEST JUMPDEST PUSH1 0x20 DUP4 ADD SWAP2 POP DUP4 PUSH1 0x1 DUP3 MUL DUP4 ADD GT ISZERO PUSH2 0x8DC JUMPI PUSH2 0x8DB PUSH2 0xD15 JUMP JUMPDEST JUMPDEST SWAP3 POP SWAP3 SWAP1 POP JUMP JUMPDEST PUSH1 0x0 DUP2 CALLDATALOAD SWAP1 POP PUSH2 0x8F2 DUP2 PUSH2 0xD8C JUMP JUMPDEST SWAP3 SWAP2 POP POP JUMP JUMPDEST PUSH1 0x0 PUSH1 0x20 DUP3 DUP5 SUB SLT ISZERO PUSH2 0x90E JUMPI PUSH2 0x90D PUSH2 0xD1F JUMP JUMPDEST JUMPDEST PUSH1 0x0 PUSH2 0x91C DUP5 DUP3 DUP6 ADD PUSH2 0x863 JUMP JUMPDEST SWAP2 POP POP SWAP3 SWAP2 POP POP JUMP JUMPDEST PUSH1 0x0 DUP1 PUSH1 0x0 DUP1 PUSH1 0x60 DUP6 DUP8 SUB SLT ISZERO PUSH2 0x93F JUMPI PUSH2 0x93E PUSH2 0xD1F JUMP JUMPDEST JUMPDEST PUSH1 0x0 DUP6 ADD CALLDATALOAD PUSH8 0xFFFFFFFFFFFFFFFF DUP2 GT ISZERO PUSH2 0x95D JUMPI PUSH2 0x95C PUSH2 0xD1A JUMP JUMPDEST JUMPDEST PUSH2 0x969 DUP8 DUP3 DUP9 ADD PUSH2 0x88D JUMP JUMPDEST SWAP5 POP SWAP5 POP POP PUSH1 0x20 PUSH2 0x97C DUP8 DUP3 DUP9 ADD PUSH2 0x8E3 JUMP JUMPDEST SWAP3 POP POP PUSH1 0x40 PUSH2 0x98D DUP8 DUP3 DUP9 ADD PUSH2 0x878 JUMP JUMPDEST SWAP2 POP POP SWAP3 SWAP6 SWAP2 SWAP5 POP SWAP3 POP JUMP JUMPDEST PUSH1 0x0 PUSH1 0x20 DUP3 DUP5 SUB SLT ISZERO PUSH2 0x9AF JUMPI PUSH2 0x9AE PUSH2 0xD1F JUMP JUMPDEST JUMPDEST PUSH1 0x0 PUSH2 0x9BD DUP5 DUP3 DUP6 ADD PUSH2 0x8E3 JUMP JUMPDEST SWAP2 POP POP SWAP3 SWAP2 POP POP JUMP JUMPDEST PUSH2 0x9CF DUP2 PUSH2 0xB88 JUMP JUMPDEST DUP3 MSTORE POP POP JUMP JUMPDEST PUSH2 0x9DE DUP2 PUSH2 0xB76 JUMP JUMPDEST DUP3 MSTORE POP POP JUMP JUMPDEST PUSH2 0x9ED DUP2 PUSH2 0xB9A JUMP JUMPDEST DUP3 MSTORE POP POP JUMP JUMPDEST PUSH1 0x0 PUSH2 0x9FE DUP3 PUSH2 0xB29 JUMP JUMPDEST PUSH2 0xA08 DUP2 DUP6 PUSH2 0xB34 JUMP JUMPDEST SWAP4 POP PUSH2 0xA18 DUP2 DUP6 PUSH1 0x20 DUP7 ADD PUSH2 0xBD0 JUMP JUMPDEST PUSH2 0xA21 DUP2 PUSH2 0xD24 JUMP JUMPDEST DUP5 ADD SWAP2 POP POP SWAP3 SWAP2 POP POP JUMP JUMPDEST PUSH1 0x0 PUSH2 0xA39 PUSH1 0x1E DUP4 PUSH2 0xB34 JUMP JUMPDEST SWAP2 POP PUSH2 0xA44 DUP3 PUSH2 0xD35 JUMP JUMPDEST PUSH1 0x20 DUP3 ADD SWAP1 POP SWAP2 SWAP1 POP JUMP JUMPDEST PUSH2 0xA58 DUP2 PUSH2 0xBC6 JUMP JUMPDEST DUP3 MSTORE POP POP JUMP JUMPDEST PUSH1 0x0 PUSH1 0x20 DUP3 ADD SWAP1 POP PUSH2 0xA73 PUSH1 0x0 DUP4 ADD DUP5 PUSH2 0x9D5 JUMP JUMPDEST SWAP3 SWAP2 POP POP JUMP JUMPDEST PUSH1 0x0 PUSH1 0x20 DUP3 ADD SWAP1 POP PUSH2 0xA8E PUSH1 0x0 DUP4 ADD DUP5 PUSH2 0x9E4 JUMP JUMPDEST SWAP3 SWAP2 POP POP JUMP JUMPDEST PUSH1 0x0 PUSH1 0xA0 DUP3 ADD SWAP1 POP DUP2 DUP2 SUB PUSH1 0x0 DUP4 ADD MSTORE PUSH2 0xAAE DUP2 DUP9 PUSH2 0x9F3 JUMP JUMPDEST SWAP1 POP PUSH2 0xABD PUSH1 0x20 DUP4 ADD DUP8 PUSH2 0xA4F JUMP JUMPDEST PUSH2 0xACA PUSH1 0x40 DUP4 ADD DUP7 PUSH2 0x9C6 JUMP JUMPDEST PUSH2 0xAD7 PUSH1 0x60 DUP4 ADD DUP6 PUSH2 0x9E4 JUMP JUMPDEST PUSH2 0xAE4 PUSH1 0x80 DUP4 ADD DUP5 PUSH2 0xA4F JUMP JUMPDEST SWAP7 SWAP6 POP POP POP POP POP POP JUMP JUMPDEST PUSH1 0x0 PUSH1 0x20 DUP3 ADD SWAP1 POP DUP2 DUP2 SUB PUSH1 0x0 DUP4 ADD MSTORE PUSH2 0xB07 DUP2 PUSH2 0xA2C JUMP JUMPDEST SWAP1 POP SWAP2 SWAP1 POP JUMP JUMPDEST PUSH1 0x0 PUSH1 0x20 DUP3 ADD SWAP1 POP PUSH2 0xB23 PUSH1 0x0 DUP4 ADD DUP5 PUSH2 0xA4F JUMP JUMPDEST SWAP3 SWAP2 POP POP JUMP JUMPDEST PUSH1 0x0 DUP2 MLOAD SWAP1 POP SWAP2 SWAP1 POP JUMP JUMPDEST PUSH1 0x0 DUP3 DUP3 MSTORE PUSH1 0x20 DUP3 ADD SWAP1 POP SWAP3 SWAP2 POP POP JUMP JUMPDEST PUSH1 0x0 PUSH2 0xB50 DUP3 PUSH2 0xBC6 JUMP JUMPDEST SWAP2 POP PUSH2 0xB5B DUP4 PUSH2 0xBC6 JUMP JUMPDEST SWAP3 POP DUP3 PUSH2 0xB6B JUMPI PUSH2 0xB6A PUSH2 0xCAD JUMP JUMPDEST JUMPDEST DUP3 DUP3 DIV SWAP1 POP SWAP3 SWAP2 POP POP JUMP JUMPDEST PUSH1 0x0 PUSH2 0xB81 DUP3 PUSH2 0xBA6 JUMP JUMPDEST SWAP1 POP SWAP2 SWAP1 POP JUMP JUMPDEST PUSH1 0x0 PUSH2 0xB93 DUP3 PUSH2 0xBA6 JUMP JUMPDEST SWAP1 POP SWAP2 SWAP1 POP JUMP JUMPDEST PUSH1 0x0 DUP2 ISZERO ISZERO SWAP1 POP SWAP2 SWAP1 POP JUMP JUMPDEST PUSH1 0x0 PUSH20 0xFFFFFFFFFFFFFFFFFFFFFFFFFFFFFFFFFFFFFFFF DUP3 AND SWAP1 POP SWAP2 SWAP1 POP JUMP JUMPDEST PUSH1 0x0 DUP2 SWAP1 POP SWAP2 SWAP1 POP JUMP JUMPDEST PUSH1 0x0 JUMPDEST DUP4 DUP2 LT ISZERO PUSH2 0xBEE JUMPI DUP1 DUP3 ADD MLOAD DUP2 DUP5 ADD MSTORE PUSH1 0x20 DUP2 ADD SWAP1 POP PUSH2 0xBD3 JUMP JUMPDEST DUP4 DUP2 GT ISZERO PUSH2 0xBFD JUMPI PUSH1 0x0 DUP5 DUP5 ADD MSTORE JUMPDEST POP POP POP POP JUMP JUMPDEST PUSH1 0x0 PUSH1 0x2 DUP3 DIV SWAP1 POP PUSH1 0x1 DUP3 AND DUP1 PUSH2 0xC1B JUMPI PUSH1 0x7F DUP3 AND SWAP2 POP JUMPDEST PUSH1 0x20 DUP3 LT DUP2 EQ ISZERO PUSH2 0xC2F JUMPI PUSH2 0xC2E PUSH2 0xCDC JUMP JUMPDEST JUMPDEST POP SWAP2 SWAP1 POP JUMP JUMPDEST PUSH1 0x0 PUSH2 0xC40 DUP3 PUSH2 0xBC6 JUMP JUMPDEST SWAP2 POP PUSH32 0xFFFFFFFFFFFFFFFFFFFFFFFFFFFFFFFFFFFFFFFFFFFFFFFFFFFFFFFFFFFFFFFF DUP3 EQ ISZERO PUSH2 0xC73 JUMPI PUSH2 0xC72 PUSH2 0xC7E JUMP JUMPDEST JUMPDEST PUSH1 0x1 DUP3 ADD SWAP1 POP SWAP2 SWAP1 POP JUMP JUMPDEST PUSH32 0x4E487B7100000000000000000000000000000000000000000000000000000000 PUSH1 0x0 MSTORE PUSH1 0x11 PUSH1 0x4 MSTORE PUSH1 0x24 PUSH1 0x0 REVERT JUMPDEST PUSH32 0x4E487B7100000000000000000000000000000000000000000000000000000000 PUSH1 0x0 MSTORE PUSH1 0x12 PUSH1 0x4 MSTORE PUSH1 0x24 PUSH1 0x0 REVERT JUMPDEST PUSH32 0x4E487B7100000000000000000000000000000000000000000000000000000000 PUSH1 0x0 MSTORE PUSH1 0x22 PUSH1 0x4 MSTORE PUSH1 0x24 PUSH1 0x0 REVERT JUMPDEST PUSH1 0x0 DUP1 REVERT JUMPDEST PUSH1 0x0 DUP1 REVERT JUMPDEST PUSH1 0x0 DUP1 REVERT JUMPDEST PUSH1 0x0 DUP1 REVERT JUMPDEST PUSH1 0x0 DUP1 REVERT JUMPDEST PUSH1 0x0 PUSH1 0x1F NOT PUSH1 0x1F DUP4 ADD AND SWAP1 POP SWAP2 SWAP1 POP JUMP JUMPDEST PUSH32 0x4F6E6C79206F776E65722063616E206372656174652063616D706169676E0000 PUSH1 0x0 DUP3 ADD MSTORE POP JUMP JUMPDEST PUSH2 0xD67 DUP2 PUSH2 0xB76 JUMP JUMPDEST DUP2 EQ PUSH2 0xD72 JUMPI PUSH1 0x0 DUP1 REVERT JUMPDEST POP JUMP JUMPDEST PUSH2 0xD7E DUP2 PUSH2 0xB88 JUMP JUMPDEST DUP2 EQ PUSH2 0xD89 JUMPI PUSH1 0x0 DUP1 REVERT JUMPDEST POP JUMP JUMPDEST PUSH2 0xD95 DUP2 PUSH2 0xBC6 JUMP JUMPDEST DUP2 EQ PUSH2 0xDA0 JUMPI PUSH1 0x0 DUP1 REVERT JUMPDEST POP JUMP INVALID LOG2 PUSH5 0x6970667358 0x22 SLT KECCAK256 0xB8 DUP8 0x22 0xCD SWAP4 ADDMOD PUSH8 0x2642DE55524E7040 SWAP10 CODECOPY 0xBB PUSH31 0x2D86750A28C9CF14DD41D29A9464736F6C6343000807003300000000000000 "
				},
				"gasEstimates": {
					"creation": {
						"codeDepositCost": "709000",
						"executionCost": "infinite",
						"totalCost": "infinite"
					},
					"external": {
						"approveRequests(uint256)": "infinite",
						"approvers(address)": "2868",
						"contribute()": "51046",
						"createRequest(string,uint256,address)": "infinite",
						"finalizeRequest(uint256)": "infinite",
						"minContribution()": "2495",
						"owner()": "2533",
						"requests(uint256)": "infinite",
						"votersCount()": "2473"
					}
				},
				"methodIdentifiers": {
					"approveRequests(uint256)": "4e08ac85",
					"approvers(address)": "0a144391",
					"contribute()": "d7bb99ba",
					"createRequest(string,uint256,address)": "8a9cfd55",
					"finalizeRequest(uint256)": "03441006",
					"minContribution()": "aaffadf3",
					"owner()": "8da5cb5b",
					"requests(uint256)": "81d12c58",
					"votersCount()": "98c07938"
				}
			},
			"storageLayout": {
				"storage": [
					{
						"astId": 57,
						"contract": "crowdfund/SmartContract/contracts.sol:FundRaise",
						"label": "owner",
						"offset": 0,
						"slot": "0",
						"type": "t_address"
					},
					{
						"astId": 59,
						"contract": "crowdfund/SmartContract/contracts.sol:FundRaise",
						"label": "minContribution",
						"offset": 0,
						"slot": "1",
						"type": "t_uint256"
					},
					{
						"astId": 63,
						"contract": "crowdfund/SmartContract/contracts.sol:FundRaise",
						"label": "approvers",
						"offset": 0,
						"slot": "2",
						"type": "t_mapping(t_address,t_bool)"
					},
					{
						"astId": 65,
						"contract": "crowdfund/SmartContract/contracts.sol:FundRaise",
						"label": "votersCount",
						"offset": 0,
						"slot": "3",
						"type": "t_uint256"
					},
					{
						"astId": 67,
						"contract": "crowdfund/SmartContract/contracts.sol:FundRaise",
						"label": "numRequests",
						"offset": 0,
						"slot": "4",
						"type": "t_uint256"
					},
					{
						"astId": 72,
						"contract": "crowdfund/SmartContract/contracts.sol:FundRaise",
						"label": "requests",
						"offset": 0,
						"slot": "5",
						"type": "t_mapping(t_uint256,t_struct(Request)55_storage)"
					}
				],
				"types": {
					"t_address": {
						"encoding": "inplace",
						"label": "address",
						"numberOfBytes": "20"
					},
					"t_address_payable": {
						"encoding": "inplace",
						"label": "address payable",
						"numberOfBytes": "20"
					},
					"t_bool": {
						"encoding": "inplace",
						"label": "bool",
						"numberOfBytes": "1"
					},
					"t_mapping(t_address,t_bool)": {
						"encoding": "mapping",
						"key": "t_address",
						"label": "mapping(address => bool)",
						"numberOfBytes": "32",
						"value": "t_bool"
					},
					"t_mapping(t_uint256,t_struct(Request)55_storage)": {
						"encoding": "mapping",
						"key": "t_uint256",
						"label": "mapping(uint256 => struct FundRaise.Request)",
						"numberOfBytes": "32",
						"value": "t_struct(Request)55_storage"
					},
					"t_string_storage": {
						"encoding": "bytes",
						"label": "string",
						"numberOfBytes": "32"
					},
					"t_struct(Request)55_storage": {
						"encoding": "inplace",
						"label": "struct FundRaise.Request",
						"members": [
							{
								"astId": 42,
								"contract": "crowdfund/SmartContract/contracts.sol:FundRaise",
								"label": "description",
								"offset": 0,
								"slot": "0",
								"type": "t_string_storage"
							},
							{
								"astId": 44,
								"contract": "crowdfund/SmartContract/contracts.sol:FundRaise",
								"label": "value",
								"offset": 0,
								"slot": "1",
								"type": "t_uint256"
							},
							{
								"astId": 46,
								"contract": "crowdfund/SmartContract/contracts.sol:FundRaise",
								"label": "recipient",
								"offset": 0,
								"slot": "2",
								"type": "t_address_payable"
							},
							{
								"astId": 48,
								"contract": "crowdfund/SmartContract/contracts.sol:FundRaise",
								"label": "complete",
								"offset": 20,
								"slot": "2",
								"type": "t_bool"
							},
							{
								"astId": 52,
								"contract": "crowdfund/SmartContract/contracts.sol:FundRaise",
								"label": "approvals",
								"offset": 0,
								"slot": "3",
								"type": "t_mapping(t_address,t_bool)"
							},
							{
								"astId": 54,
								"contract": "crowdfund/SmartContract/contracts.sol:FundRaise",
								"label": "approvalsCount",
								"offset": 0,
								"slot": "4",
								"type": "t_uint256"
							}
						],
						"numberOfBytes": "160"
					},
					"t_uint256": {
						"encoding": "inplace",
						"label": "uint256",
						"numberOfBytes": "32"
					}
				}
			},
			"userdoc": {
				"kind": "user",
				"methods": {},
				"version": 1
			}
		}
	}
}